{
  "abi": [
    {
      "inputs": [
        {
          "internalType": "address",
          "name": "SUPERDEFI_",
          "type": "address"
        },
        {
          "internalType": "string",
          "name": "baseURI_",
          "type": "string"
        },
        {
          "internalType": "uint256",
          "name": "zeroDPB_",
          "type": "uint256"
        }
      ],
      "stateMutability": "nonpayable",
      "type": "constructor"
    },
    {
      "anonymous": false,
      "inputs": [
        {
          "indexed": true,
          "internalType": "address",
          "name": "owner",
          "type": "address"
        },
        {
          "indexed": true,
          "internalType": "address",
          "name": "approved",
          "type": "address"
        },
        {
          "indexed": true,
          "internalType": "uint256",
          "name": "tokenId",
          "type": "uint256"
        }
      ],
      "name": "Approval",
      "type": "event"
    },
    {
      "anonymous": false,
      "inputs": [
        {
          "indexed": true,
          "internalType": "address",
          "name": "owner",
          "type": "address"
        },
        {
          "indexed": true,
          "internalType": "address",
          "name": "operator",
          "type": "address"
        },
        {
          "indexed": false,
          "internalType": "bool",
          "name": "approved",
          "type": "bool"
        }
      ],
      "name": "ApprovalForAll",
      "type": "event"
    },
    {
      "anonymous": false,
      "inputs": [
        {
          "indexed": true,
          "internalType": "address",
          "name": "caller",
          "type": "address"
        },
        {
          "indexed": false,
          "internalType": "uint256",
          "name": "amount",
          "type": "uint256"
        }
      ],
      "name": "DistributionUpdated",
      "type": "event"
    },
    {
      "anonymous": false,
      "inputs": [
        {
          "indexed": false,
          "internalType": "uint256",
          "name": "duration",
          "type": "uint256"
        },
        {
          "indexed": false,
          "internalType": "uint8",
          "name": "premiumMultiplier",
          "type": "uint8"
        }
      ],
      "name": "LockPeriodSet",
      "type": "event"
    },
    {
      "anonymous": false,
      "inputs": [
        {
          "indexed": true,
          "internalType": "uint256",
          "name": "tokenId",
          "type": "uint256"
        },
        {
          "indexed": true,
          "internalType": "address",
          "name": "owner",
          "type": "address"
        },
        {
          "indexed": false,
          "internalType": "uint256",
          "name": "amount",
          "type": "uint256"
        },
        {
          "indexed": false,
          "internalType": "uint256",
          "name": "duration",
          "type": "uint256"
        }
      ],
      "name": "LockPositionCreated",
      "type": "event"
    },
    {
      "anonymous": false,
      "inputs": [
        {
          "indexed": true,
          "internalType": "uint256",
          "name": "tokenId",
          "type": "uint256"
        },
        {
          "indexed": true,
          "internalType": "address",
          "name": "owner",
          "type": "address"
        },
        {
          "indexed": false,
          "internalType": "uint256",
          "name": "amount",
          "type": "uint256"
        }
      ],
      "name": "LockPositionWithdrawn",
      "type": "event"
    },
    {
      "anonymous": false,
      "inputs": [
        {
          "indexed": true,
          "internalType": "address",
          "name": "previousOwner",
          "type": "address"
        },
        {
          "indexed": true,
          "internalType": "address",
          "name": "owner",
          "type": "address"
        }
      ],
      "name": "OwnershipAccepted",
      "type": "event"
    },
    {
      "anonymous": false,
      "inputs": [
        {
          "indexed": true,
          "internalType": "address",
          "name": "owner",
          "type": "address"
        },
        {
          "indexed": true,
          "internalType": "address",
          "name": "pendingOwner",
          "type": "address"
        }
      ],
      "name": "OwnershipProposed",
      "type": "event"
    },
    {
      "anonymous": false,
      "inputs": [
        {
          "indexed": true,
          "internalType": "address",
          "name": "from",
          "type": "address"
        },
        {
          "indexed": true,
          "internalType": "address",
          "name": "to",
          "type": "address"
        },
        {
          "indexed": true,
          "internalType": "uint256",
          "name": "tokenId",
          "type": "uint256"
        }
      ],
      "name": "Transfer",
      "type": "event"
    },
    {
      "inputs": [],
      "name": "SUPERDEFI",
      "outputs": [
        {
          "internalType": "address",
          "name": "",
          "type": "address"
        }
      ],
      "stateMutability": "view",
      "type": "function"
    },
    {
      "inputs": [
        {
          "internalType": "address",
          "name": "sender",
          "type": "address"
        }
      ],
      "name": "acceptOwnership",
      "outputs": [],
      "stateMutability": "nonpayable",
      "type": "function"
    },
    {
      "inputs": [
        {
          "internalType": "address",
          "name": "to",
          "type": "address"
        },
        {
          "internalType": "uint256",
          "name": "tokenId",
          "type": "uint256"
        }
      ],
      "name": "approve",
      "outputs": [],
      "stateMutability": "nonpayable",
      "type": "function"
    },
    {
      "inputs": [
        {
          "internalType": "address",
          "name": "owner",
          "type": "address"
        }
      ],
      "name": "balanceOf",
      "outputs": [
        {
          "internalType": "uint256",
          "name": "",
          "type": "uint256"
        }
      ],
      "stateMutability": "view",
      "type": "function"
    },
    {
      "inputs": [],
      "name": "baseURI",
      "outputs": [
        {
          "internalType": "string",
          "name": "",
          "type": "string"
        }
      ],
      "stateMutability": "view",
      "type": "function"
    },
    {
      "inputs": [
        {
          "internalType": "uint256[]",
          "name": "tokenIds_",
          "type": "uint256[]"
        },
        {
          "internalType": "uint256",
          "name": "lockAmount_",
          "type": "uint256"
        },
        {
          "internalType": "uint256",
          "name": "duration_",
          "type": "uint256"
        },
        {
          "internalType": "address",
          "name": "destination_",
          "type": "address"
        }
      ],
      "name": "batchRelock",
      "outputs": [
        {
          "internalType": "uint256",
          "name": "amountUnlocked_",
          "type": "uint256"
        },
        {
          "internalType": "uint256",
          "name": "newTokenId_",
          "type": "uint256"
        }
      ],
      "stateMutability": "nonpayable",
      "type": "function"
    },
    {
      "inputs": [
        {
          "internalType": "uint256[]",
          "name": "tokenIds_",
          "type": "uint256[]"
        },
        {
          "internalType": "address",
          "name": "destination_",
          "type": "address"
        }
      ],
      "name": "batchUnlock",
      "outputs": [
        {
          "internalType": "uint256",
          "name": "amountUnlocked_",
          "type": "uint256"
        }
      ],
      "stateMutability": "nonpayable",
      "type": "function"
    },
    {
      "inputs": [],
      "name": "distributableSUPERDEFI",
      "outputs": [
        {
          "internalType": "uint256",
          "name": "",
          "type": "uint256"
        }
      ],
      "stateMutability": "view",
      "type": "function"
    },
    {
      "inputs": [
        {
          "internalType": "uint256",
          "name": "tokenId",
          "type": "uint256"
        }
      ],
      "name": "getApproved",
      "outputs": [
        {
          "internalType": "address",
          "name": "",
          "type": "address"
        }
      ],
      "stateMutability": "view",
      "type": "function"
    },
    {
      "inputs": [
        {
          "internalType": "uint256",
          "name": "amount_",
          "type": "uint256"
        },
        {
          "internalType": "uint256",
          "name": "duration_",
          "type": "uint256"
        }
      ],
      "name": "getPoints",
      "outputs": [
        {
          "internalType": "uint256",
          "name": "points_",
          "type": "uint256"
        }
      ],
      "stateMutability": "view",
      "type": "function"
    },
    {
      "inputs": [
        {
          "internalType": "address",
          "name": "owner",
          "type": "address"
        },
        {
          "internalType": "address",
          "name": "operator",
          "type": "address"
        }
      ],
      "name": "isApprovedForAll",
      "outputs": [
        {
          "internalType": "bool",
          "name": "",
          "type": "bool"
        }
      ],
      "stateMutability": "view",
      "type": "function"
    },
    {
      "inputs": [
        {
          "internalType": "uint256",
          "name": "amount_",
          "type": "uint256"
        },
        {
          "internalType": "uint256",
          "name": "duration_",
          "type": "uint256"
        },
        {
          "internalType": "address",
          "name": "destination_",
          "type": "address"
        }
      ],
      "name": "lock",
      "outputs": [
        {
          "internalType": "uint256",
          "name": "tokenId_",
          "type": "uint256"
        }
      ],
      "stateMutability": "nonpayable",
      "type": "function"
    },
    {
      "inputs": [
        {
          "internalType": "uint256",
          "name": "amount_",
          "type": "uint256"
        },
        {
          "internalType": "uint256",
          "name": "duration_",
          "type": "uint256"
        },
        {
          "internalType": "address",
          "name": "destination_",
          "type": "address"
        },
        {
          "internalType": "uint256",
          "name": "deadline_",
          "type": "uint256"
        },
        {
          "internalType": "uint8",
          "name": "v_",
          "type": "uint8"
        },
        {
          "internalType": "bytes32",
          "name": "r_",
          "type": "bytes32"
        },
        {
          "internalType": "bytes32",
          "name": "s_",
          "type": "bytes32"
        }
      ],
      "name": "lockWithPermit",
      "outputs": [
        {
          "internalType": "uint256",
          "name": "tokenId_",
          "type": "uint256"
        }
      ],
      "stateMutability": "nonpayable",
      "type": "function"
    },
    {
      "inputs": [
        {
          "internalType": "uint256[]",
          "name": "tokenIds_",
          "type": "uint256[]"
        },
        {
          "internalType": "address",
          "name": "destination_",
          "type": "address"
        }
      ],
      "name": "merge",
      "outputs": [
        {
          "internalType": "uint256",
          "name": "tokenId_",
          "type": "uint256"
        }
      ],
      "stateMutability": "nonpayable",
      "type": "function"
    },
    {
      "inputs": [],
      "name": "name",
      "outputs": [
        {
          "internalType": "string",
          "name": "",
          "type": "string"
        }
      ],
      "stateMutability": "view",
      "type": "function"
    },
    {
      "inputs": [],
      "name": "owner",
      "outputs": [
        {
          "internalType": "address",
          "name": "",
          "type": "address"
        }
      ],
      "stateMutability": "view",
      "type": "function"
    },
    {
      "inputs": [
        {
          "internalType": "uint256",
          "name": "tokenId",
          "type": "uint256"
        }
      ],
      "name": "ownerOf",
      "outputs": [
        {
          "internalType": "address",
          "name": "",
          "type": "address"
        }
      ],
      "stateMutability": "view",
      "type": "function"
    },
    {
      "inputs": [],
      "name": "pendingOwner",
      "outputs": [
        {
          "internalType": "address",
          "name": "",
          "type": "address"
        }
      ],
      "stateMutability": "view",
      "type": "function"
    },
    {
      "inputs": [
        {
          "internalType": "uint256",
          "name": "tokenId_",
          "type": "uint256"
        }
      ],
      "name": "pointsOf",
      "outputs": [
        {
          "internalType": "uint256",
          "name": "points_",
          "type": "uint256"
        }
      ],
      "stateMutability": "view",
      "type": "function"
    },
    {
      "inputs": [
        {
          "internalType": "uint256",
          "name": "",
          "type": "uint256"
        }
      ],
      "name": "positionOf",
      "outputs": [
        {
          "internalType": "uint96",
          "name": "units",
          "type": "uint96"
        },
        {
          "internalType": "uint88",
          "name": "depositedSUPERDEFI",
          "type": "uint88"
        },
        {
          "internalType": "uint32",
          "name": "expiry",
          "type": "uint32"
        },
        {
          "internalType": "uint32",
          "name": "created",
          "type": "uint32"
        },
        {
          "internalType": "uint8",
          "name": "premiumMultiplier",
          "type": "uint8"
        },
        {
          "internalType": "int256",
          "name": "pointsCorrection",
          "type": "int256"
        }
      ],
      "stateMutability": "view",
      "type": "function"
    },
    {
      "inputs": [
        {
          "internalType": "uint256",
          "name": "",
          "type": "uint256"
        }
      ],
      "name": "premiumMultiplierOf",
      "outputs": [
        {
          "internalType": "uint8",
          "name": "",
          "type": "uint8"
        }
      ],
      "stateMutability": "view",
      "type": "function"
    },
    {
      "inputs": [
        {
          "internalType": "address",
          "name": "newOwner_",
          "type": "address"
        }
      ],
      "name": "proposeOwnership",
      "outputs": [],
      "stateMutability": "nonpayable",
      "type": "function"
    },
    {
      "inputs": [
        {
          "internalType": "uint256",
          "name": "tokenId_",
          "type": "uint256"
        },
        {
          "internalType": "uint256",
          "name": "lockAmount_",
          "type": "uint256"
        },
        {
          "internalType": "uint256",
          "name": "duration_",
          "type": "uint256"
        },
        {
          "internalType": "address",
          "name": "destination_",
          "type": "address"
        }
      ],
      "name": "relock",
      "outputs": [
        {
          "internalType": "uint256",
          "name": "amountUnlocked_",
          "type": "uint256"
        },
        {
          "internalType": "uint256",
          "name": "newTokenId_",
          "type": "uint256"
        }
      ],
      "stateMutability": "nonpayable",
      "type": "function"
    },
    {
      "inputs": [
        {
          "internalType": "address",
          "name": "from",
          "type": "address"
        },
        {
          "internalType": "address",
          "name": "to",
          "type": "address"
        },
        {
          "internalType": "uint256",
          "name": "tokenId",
          "type": "uint256"
        }
      ],
      "name": "safeTransferFrom",
      "outputs": [],
      "stateMutability": "nonpayable",
      "type": "function"
    },
    {
      "inputs": [
        {
          "internalType": "address",
          "name": "from",
          "type": "address"
        },
        {
          "internalType": "address",
          "name": "to",
          "type": "address"
        },
        {
          "internalType": "uint256",
          "name": "tokenId",
          "type": "uint256"
        },
        {
          "internalType": "bytes",
          "name": "_data",
          "type": "bytes"
        }
      ],
      "name": "safeTransferFrom",
      "outputs": [],
      "stateMutability": "nonpayable",
      "type": "function"
    },
    {
      "inputs": [
        {
          "internalType": "address",
          "name": "operator",
          "type": "address"
        },
        {
          "internalType": "bool",
          "name": "approved",
          "type": "bool"
        }
      ],
      "name": "setApprovalForAll",
      "outputs": [],
      "stateMutability": "nonpayable",
      "type": "function"
    },
    {
      "inputs": [
        {
          "internalType": "string",
          "name": "baseURI_",
          "type": "string"
        }
      ],
      "name": "setBaseURI",
      "outputs": [],
      "stateMutability": "nonpayable",
      "type": "function"
    },
    {
      "inputs": [
        {
          "internalType": "uint256[]",
          "name": "durations_",
          "type": "uint256[]"
        },
        {
          "internalType": "uint8[]",
          "name": "multipliers",
          "type": "uint8[]"
        }
      ],
      "name": "setLockPeriods",
      "outputs": [],
      "stateMutability": "nonpayable",
      "type": "function"
    },
    {
      "inputs": [
        {
          "internalType": "bytes4",
          "name": "interfaceId",
          "type": "bytes4"
        }
      ],
      "name": "supportsInterface",
      "outputs": [
        {
          "internalType": "bool",
          "name": "",
          "type": "bool"
        }
      ],
      "stateMutability": "view",
      "type": "function"
    },
    {
      "inputs": [],
      "name": "symbol",
      "outputs": [
        {
          "internalType": "string",
          "name": "",
          "type": "string"
        }
      ],
      "stateMutability": "view",
      "type": "function"
    },
    {
      "inputs": [
        {
          "internalType": "uint256",
          "name": "index",
          "type": "uint256"
        }
      ],
      "name": "tokenByIndex",
      "outputs": [
        {
          "internalType": "uint256",
          "name": "",
          "type": "uint256"
        }
      ],
      "stateMutability": "view",
      "type": "function"
    },
    {
      "inputs": [
        {
          "internalType": "address",
          "name": "owner",
          "type": "address"
        },
        {
          "internalType": "uint256",
          "name": "index",
          "type": "uint256"
        }
      ],
      "name": "tokenOfOwnerByIndex",
      "outputs": [
        {
          "internalType": "uint256",
          "name": "",
          "type": "uint256"
        }
      ],
      "stateMutability": "view",
      "type": "function"
    },
    {
      "inputs": [
        {
          "internalType": "uint256",
          "name": "tokenId_",
          "type": "uint256"
        }
      ],
      "name": "tokenURI",
      "outputs": [
        {
          "internalType": "string",
          "name": "tokenURI_",
          "type": "string"
        }
      ],
      "stateMutability": "view",
      "type": "function"
    },
    {
      "inputs": [],
      "name": "totalDepositedSUPERDEFI",
      "outputs": [
        {
          "internalType": "uint256",
          "name": "",
          "type": "uint256"
        }
      ],
      "stateMutability": "view",
      "type": "function"
    },
    {
      "inputs": [],
      "name": "totalSupply",
      "outputs": [
        {
          "internalType": "uint256",
          "name": "",
          "type": "uint256"
        }
      ],
      "stateMutability": "view",
      "type": "function"
    },
    {
      "inputs": [],
      "name": "totalUnits",
      "outputs": [
        {
          "internalType": "uint256",
          "name": "",
          "type": "uint256"
        }
      ],
      "stateMutability": "view",
      "type": "function"
    },
    {
      "inputs": [
        {
          "internalType": "address",
          "name": "from",
          "type": "address"
        },
        {
          "internalType": "address",
          "name": "to",
          "type": "address"
        },
        {
          "internalType": "uint256",
          "name": "tokenId",
          "type": "uint256"
        }
      ],
      "name": "transferFrom",
      "outputs": [],
      "stateMutability": "nonpayable",
      "type": "function"
    },
    {
      "inputs": [
        {
          "internalType": "uint256",
          "name": "tokenId_",
          "type": "uint256"
        },
        {
          "internalType": "address",
          "name": "destination_",
          "type": "address"
        }
      ],
      "name": "unlock",
      "outputs": [
        {
          "internalType": "uint256",
          "name": "amountUnlocked_",
          "type": "uint256"
        }
      ],
      "stateMutability": "nonpayable",
      "type": "function"
    },
    {
      "inputs": [],
      "name": "updateDistribution",
      "outputs": [],
      "stateMutability": "nonpayable",
      "type": "function"
    },
    {
      "inputs": [
        {
          "internalType": "uint256",
          "name": "tokenId_",
          "type": "uint256"
        }
      ],
      "name": "withdrawableOf",
      "outputs": [
        {
          "internalType": "uint256",
          "name": "withdrawableSUPERDEFI_",
          "type": "uint256"
        }
      ],
      "stateMutability": "view",
      "type": "function"
    }
  ],
  "bytecode": "60c0604052600a80546001600160581b0319166aa56fa5b99019a5c80000001790553480156200002e57600080fd5b506040516200396c3803806200396c833981016040819052620000519162000204565b604080518082018252601081526f4c6f636b65642053555045524445464960801b60208083019182528351808501909452600a8452696c53555045524445464960b01b908401528151919291620000ab9160009162000148565b508051620000c190600190602084019062000148565b5050506001600160a01b0383166080819052620001145760405162461bcd60e51b815260206004820152600d60248201526c24a72b20a624a22faa27a5a2a760991b604482015260640160405180910390fd5b601280546001600160a01b0319163317905581516200013b90601190602085019062000148565b5060a05250620003499050565b82805462000156906200030d565b90600052602060002090601f0160209004810192826200017a5760008555620001c5565b82601f106200019557805160ff1916838001178555620001c5565b82800160010185558215620001c5579182015b82811115620001c5578251825591602001919060010190620001a8565b50620001d3929150620001d7565b5090565b5b80821115620001d35760008155600101620001d8565b634e487b7160e01b600052604160045260246000fd5b6000806000606084860312156200021a57600080fd5b83516001600160a01b03811681146200023257600080fd5b602085810151919450906001600160401b03808211156200025257600080fd5b818701915087601f8301126200026757600080fd5b8151818111156200027c576200027c620001ee565b604051601f8201601f19908116603f01168101908382118183101715620002a757620002a7620001ee565b816040528281528a86848701011115620002c057600080fd5b600093505b82841015620002e45784840186015181850187015292850192620002c5565b82841115620002f65760008684830101525b809750505050505050604084015190509250925092565b600181811c908216806200032257607f821691505b6020821081036200034357634e487b7160e01b600052602260045260246000fd5b50919050565b60805160a0516135d3620003996000396000611bd601526000818161062b015281816110c2015281816112e201528181611557015281816115c0015281816116b80152611fb101526135d36000f3fe608060405234801561001057600080fd5b50600436106102485760003560e01c8063710bf3221161013b578063b88d4fde116100b8578063d35cf7901161007c578063d35cf790146105b1578063e30c3978146105c4578063e985e9c5146105d7578063f1d2ec1d14610613578063fb8007171461062657600080fd5b8063b88d4fde1461055c578063c87b56dd1461056f578063cc1168f214610582578063d01969de14610595578063d1fdb3e81461059e57600080fd5b8063a22cb465116100ff578063a22cb465146104e6578063a372e771146104f9578063a54da0701461050c578063a6a5ac2214610541578063aa8badc11461055457600080fd5b8063710bf3221461047d57806382411358146104905780638da5cb5b146104a3578063913b1f8c146104b657806395d89b41146104de57600080fd5b806342842e0e116101c957806355f804b31161018d57806355f804b3146104335780636352211e146104465780636c0360eb146104595780636d86acc41461046157806370a082311461046a57600080fd5b806342842e0e1461033157806346f96023146103445780634d4c71a3146103fa5780634f6ccce71461040d57806351710e451461042057600080fd5b806318160ddd1161021057806318160ddd146102dd57806323b872dd146102ef5780632b580629146103025780632f745c5914610315578063316d82de1461032857600080fd5b806301ffc9a71461024d57806306fdde0314610275578063081812fc1461028a578063095ea7b3146102b5578063159d97fc146102ca575b600080fd5b61026061025b366004612b48565b61064d565b60405190151581526020015b60405180910390f35b61027d610678565b60405161026c9190612bbd565b61029d610298366004612bd0565b61070a565b6040516001600160a01b03909116815260200161026c565b6102c86102c3366004612c00565b6107a4565b005b6102c86102d8366004612d11565b6108b9565b6008545b60405190815260200161026c565b6102c86102fd366004612dd3565b610996565b6102e1610310366004612e0f565b6109c7565b6102e1610323366004612c00565b610b20565b6102e1600d5481565b6102c861033f366004612dd3565b610bb6565b6103ae610352366004612bd0565b600f60205260009081526040902080546001909101546001600160601b03821691600160601b81046001600160581b031691600160b81b820463ffffffff90811692600160d81b810490911691600160f81b90910460ff169086565b604080516001600160601b0390971687526001600160581b03909516602087015263ffffffff938416948601949094529116606084015260ff16608083015260a082015260c00161026c565b6102e1610408366004612e5d565b610bd1565b6102e161041b366004612bd0565b610be4565b6102c861042e366004612e7f565b610c77565b6102c8610441366004612ef2565b610d23565b61029d610454366004612bd0565b610d64565b61027d610ddb565b6102e1600e5481565b6102e1610478366004612e7f565b610e69565b6102c861048b366004612e7f565b610ef0565b6102e161049e366004612bd0565b610f6c565b60125461029d906001600160a01b031681565b6104c96104c4366004612f3b565b610fc5565b6040805192835260208301919091520161026c565b61027d611104565b6102c86104f4366004612faa565b611113565b6104c9610507366004612fe1565b6111d7565b61052f61051a366004612bd0565b60106020526000908152604090205460ff1681565b60405160ff909116815260200161026c565b6102e161054f366004612e0f565b611257565b6102c861131e565b6102c861056a366004613015565b6113e4565b61027d61057d366004612bd0565b611416565b6102e1610590366004613091565b61149a565b6102e1600c5481565b6102e16105ac366004612bd0565b611605565b6102e16105bf3660046130f4565b611640565b60135461029d906001600160a01b031681565b6102606105e5366004613129565b6001600160a01b03918216600090815260056020908152604080832093909416825291909152205460ff1690565b6102e1610621366004613153565b6116f9565b61029d7f000000000000000000000000000000000000000000000000000000000000000081565b60006001600160e01b0319821663780e9d6360e01b1480610672575061067282611778565b92915050565b60606000805461068790613176565b80601f01602080910402602001604051908101604052809291908181526020018280546106b390613176565b80156107005780601f106106d557610100808354040283529160200191610700565b820191906000526020600020905b8154815290600101906020018083116106e357829003601f168201915b5050505050905090565b6000818152600260205260408120546001600160a01b03166107885760405162461bcd60e51b815260206004820152602c60248201527f4552433732313a20617070726f76656420717565727920666f72206e6f6e657860448201526b34b9ba32b73a103a37b5b2b760a11b60648201526084015b60405180910390fd5b506000908152600460205260409020546001600160a01b031690565b60006107af82610d64565b9050806001600160a01b0316836001600160a01b03160361081c5760405162461bcd60e51b815260206004820152602160248201527f4552433732313a20617070726f76616c20746f2063757272656e74206f776e656044820152603960f91b606482015260840161077f565b336001600160a01b0382161480610838575061083881336105e5565b6108aa5760405162461bcd60e51b815260206004820152603860248201527f4552433732313a20617070726f76652063616c6c6572206973206e6f74206f7760448201527f6e6572206e6f7220617070726f76656420666f7220616c6c0000000000000000606482015260840161077f565b6108b483836117c8565b505050565b6012546001600160a01b031633146108e35760405162461bcd60e51b815260040161077f906131b0565b815160005b81811015610990576000848281518110610904576109046131d3565b602002602001015190507ffc13abab9eef7fa87c9be4bc9806ada68a2c7a8e79a26b1b3d3204014aedaa1f81858481518110610942576109426131d3565b602090810291909101810151600085815260108352604090819020805460ff191660ff90931692831790558051938452918301520160405180910390a150610989816131ff565b90506108e8565b50505050565b6109a03382611836565b6109bc5760405162461bcd60e51b815260040161077f90613218565b6108b483838361192d565b815160009060018111610a0d5760405162461bcd60e51b815260206004820152600e60248201526d4d494e5f325f544f5f4d4552474560901b604482015260640161077f565b6000805b82811015610b02576000868281518110610a2d57610a2d6131d3565b60200260200101519050336001600160a01b0316610a4a82610d64565b6001600160a01b031614610a705760405162461bcd60e51b815260040161077f906131b0565b6000818152600f6020526040902054600160b81b900463ffffffff1615610ad15760405162461bcd60e51b81526020600482015260156024820152741413d4d2551253d397d393d517d5539313d0d2d151605a1b604482015260640161077f565b610ada81611ad8565b610ae48160801c90565b610aee9084613269565b92505080610afb906131ff565b9050610a11565b50610b1884610b1083611b7f565b945084611bb5565b505092915050565b6000610b2b83610e69565b8210610b8d5760405162461bcd60e51b815260206004820152602b60248201527f455243373231456e756d657261626c653a206f776e657220696e646578206f7560448201526a74206f6620626f756e647360a81b606482015260840161077f565b506001600160a01b03919091166000908152600660209081526040808320938352929052205490565b6108b4838383604051806020016040528060008152506113e4565b6000610bdd8383611bcf565b9392505050565b6000610bef60085490565b8210610c525760405162461bcd60e51b815260206004820152602c60248201527f455243373231456e756d657261626c653a20676c6f62616c20696e646578206f60448201526b7574206f6620626f756e647360a01b606482015260840161077f565b60088281548110610c6557610c656131d3565b90600052602060002001549050919050565b6013546001600160a01b03828116911614610cc85760405162461bcd60e51b81526020600482015260116024820152702727aa2fa822a72224a723afa7aba722a960791b604482015260640161077f565b6012546040516001600160a01b038084169216907f357bdeb5828fa83945f38a88510ce5cd7d628dafb346d767efbc693149fdd97c90600090a350601280546001600160a01b03199081163317909155601380549091169055565b6012546001600160a01b03163314610d4d5760405162461bcd60e51b815260040161077f906131b0565b8051610d60906011906020840190612a9f565b5050565b6000818152600260205260408120546001600160a01b0316806106725760405162461bcd60e51b815260206004820152602960248201527f4552433732313a206f776e657220717565727920666f72206e6f6e657869737460448201526832b73a103a37b5b2b760b91b606482015260840161077f565b60118054610de890613176565b80601f0160208091040260200160405190810160405280929190818152602001828054610e1490613176565b8015610e615780601f10610e3657610100808354040283529160200191610e61565b820191906000526020600020905b815481529060010190602001808311610e4457829003601f168201915b505050505081565b60006001600160a01b038216610ed45760405162461bcd60e51b815260206004820152602a60248201527f4552433732313a2062616c616e636520717565727920666f7220746865207a65604482015269726f206164647265737360b01b606482015260840161077f565b506001600160a01b031660009081526003602052604090205490565b6012546001600160a01b03163314610f1a5760405162461bcd60e51b815260040161077f906131b0565b601380546001600160a01b0319166001600160a01b03838116918217909255601254604051919216907fb51454ce8c7f26becd312a46c4815553887f2ec876a0b8dc813b87f62edf6f8090600090a350565b6000818152600260205260408120546001600160a01b0316610fbb5760405162461bcd60e51b81526020600482015260086024820152672727afaa27a5a2a760c11b604482015260640161077f565b6106728260801c90565b6000806040518060400160405280600b81526020016a626174636852656c6f636b60a81b815250600081604051602001610fff919061329d565b6040516020818303038152906040528051906020012060001c9050806014540361103b5760405162461bcd60e51b815260040161077f906132b9565b601481905561104a3389611c05565b93508387111561109c5760405162461bcd60e51b815260206004820152601c60248201527f494e53554646494349454e545f414d4f554e545f554e4c4f434b454400000000604482015260640161077f565b6110a7878787611c91565b925060006110b588866132d9565b905080156110e8576110e87f00000000000000000000000000000000000000000000000000000000000000008783611f2d565b6110f0611f90565b505060006014555091969095509350505050565b60606001805461068790613176565b336001600160a01b0383160361116b5760405162461bcd60e51b815260206004820152601960248201527f4552433732313a20617070726f766520746f2063616c6c657200000000000000604482015260640161077f565b3360008181526005602090815260408083206001600160a01b03871680855290835292819020805460ff191686151590811790915590519081529192917f17307eab39ab6107e8899845ad3d59bd9653f200f220920489ca2b5937696c31910160405180910390a35050565b6000806040518060400160405280600681526020016572656c6f636b60d01b81525060008160405160200161120c919061329d565b6040516020818303038152906040528051906020012060001c905080601454036112485760405162461bcd60e51b815260040161077f906132b9565b601481905561104a3389612058565b60006040518060400160405280600b81526020016a6261746368556e6c6f636b60a81b815250600081604051602001611290919061329d565b6040516020818303038152906040528051906020012060001c905080601454036112cc5760405162461bcd60e51b815260040161077f906132b9565b60148190556112db3386611c05565b92506113087f00000000000000000000000000000000000000000000000000000000000000008585611f2d565b611310611f90565b505060006014555092915050565b600e548061135f5760405162461bcd60e51b815260206004820152600e60248201526d4e4f5f554e49545f535550504c5960901b604482015260640161077f565b600061137161136c611f90565b612212565b90508061137c575050565b8161138b600160801b836132f0565b6113959190613325565b600b60008282546113a69190613269565b909155505060405181815233907f46749f2362413a5f0f53f7f11249e02052d810c56ead7bea2544c4a93a0828ee9060200160405180910390a25050565b6113ee3383611836565b61140a5760405162461bcd60e51b815260040161077f90613218565b61099084848484612228565b6000818152600260205260409020546060906001600160a01b03166114685760405162461bcd60e51b81526020600482015260086024820152672727afaa27a5a2a760c11b604482015260640161077f565b60116114738361225b565b604051602001611484929190613339565b6040516020818303038152906040529050919050565b60006040518060400160405280600e81526020016d1b1bd8dad5da5d1a14195c9b5a5d60921b8152506000816040516020016114d6919061329d565b6040516020818303038152906040528051906020012060001c905080601454036115125760405162461bcd60e51b815260040161077f906132b9565b601481905560405163d505accf60e01b8152336004820152306024820152604481018b90526064810188905260ff8716608482015260a4810186905260c481018590527f00000000000000000000000000000000000000000000000000000000000000006001600160a01b03169063d505accf9060e401600060405180830381600087803b1580156115a357600080fd5b505af11580156115b7573d6000803e3d6000fd5b505050506115e77f000000000000000000000000000000000000000000000000000000000000000033308d61235c565b6115f28a8a8a611c91565b60006014559a9950505050505050505050565b6000818152600f6020526040812080546001820154610bdd916001600160601b03811691600160601b9091046001600160581b031690612394565b6000604051806040016040528060048152602001636c6f636b60e01b815250600081604051602001611672919061329d565b6040516020818303038152906040528051906020012060001c905080601454036116ae5760405162461bcd60e51b815260040161077f906132b9565b60148190556116df7f000000000000000000000000000000000000000000000000000000000000000033308961235c565b6116ea868686611c91565b60006014559695505050505050565b600060405180604001604052806006815260200165756e6c6f636b60d01b81525060008160405160200161172d919061329d565b6040516020818303038152906040528051906020012060001c905080601454036117695760405162461bcd60e51b815260040161077f906132b9565b60148190556112db3386612058565b60006001600160e01b031982166380ac58cd60e01b14806117a957506001600160e01b03198216635b5e139f60e01b145b8061067257506301ffc9a760e01b6001600160e01b0319831614610672565b600081815260046020526040902080546001600160a01b0319166001600160a01b03841690811790915581906117fd82610d64565b6001600160a01b03167f8c5be1e5ebec7d5bd14f71427d1e84f3dd0314c0f7b2291e5b200ac8c7c3b92560405160405180910390a45050565b6000818152600260205260408120546001600160a01b03166118af5760405162461bcd60e51b815260206004820152602c60248201527f4552433732313a206f70657261746f7220717565727920666f72206e6f6e657860448201526b34b9ba32b73a103a37b5b2b760a11b606482015260840161077f565b60006118ba83610d64565b9050806001600160a01b0316846001600160a01b031614806118f55750836001600160a01b03166118ea8461070a565b6001600160a01b0316145b8061192557506001600160a01b0380821660009081526005602090815260408083209388168352929052205460ff165b949350505050565b826001600160a01b031661194082610d64565b6001600160a01b0316146119a85760405162461bcd60e51b815260206004820152602960248201527f4552433732313a207472616e73666572206f6620746f6b656e2074686174206960448201526839903737ba1037bbb760b91b606482015260840161077f565b6001600160a01b038216611a0a5760405162461bcd60e51b8152602060048201526024808201527f4552433732313a207472616e7366657220746f20746865207a65726f206164646044820152637265737360e01b606482015260840161077f565b611a158383836123e1565b611a206000826117c8565b6001600160a01b0383166000908152600360205260408120805460019290611a499084906132d9565b90915550506001600160a01b0382166000908152600360205260408120805460019290611a77908490613269565b909155505060008181526002602052604080822080546001600160a01b0319166001600160a01b0386811691821790925591518493918716917fddf252ad1be2c89b69c2b068fc378daa952ba7f163c4a11628f55a4df523b3ef91a4505050565b6000611ae382610d64565b9050611af1816000846123e1565b611afc6000836117c8565b6001600160a01b0381166000908152600360205260408120805460019290611b259084906132d9565b909155505060008281526002602052604080822080546001600160a01b0319169055518391906001600160a01b038416907fddf252ad1be2c89b69c2b068fc378daa952ba7f163c4a11628f55a4df523b3ef908390a45050565b6000611b8a60085490565b611b95906001613269565b610672906fffffffffffffffffffffffffffffffff16608084901b613269565b610d60828260405180602001604052806000815250612499565b6000611bfb7f000000000000000000000000000000000000000000000000000000000000000083613269565b610bdd90846132f0565b805160009060018111611c475760405162461bcd60e51b815260206004820152600a6024820152695553455f554e4c4f434b60b01b604482015260640161077f565b60005b81811015610b1857611c7585858381518110611c6857611c686131d3565b6020026020010151612058565b611c7f9084613269565b9250611c8a816131ff565b9050611c4a565b60008315801590611cad5750600a546001600160581b03168411155b611cea5760405162461bcd60e51b815260206004820152600e60248201526d1253959053125117d05353d5539560921b604482015260640161077f565b60008381526010602052604090205460ff1680611d3c5760405162461bcd60e51b815260206004820152601060248201526f24a72b20a624a22fa22aa920aa24a7a760811b604482015260640161077f565b611d5a83611d52611d4d8888611bcf565b611b7f565b935083611bb5565b84600d6000828254611d6c9190613269565b90915550600090506064611d8360ff8416886132f0565b611d8d9190613325565b9050806001600160601b0316600e6000828254611daa9190613269565b90915550506040805160c0810182526001600160601b03831681526001600160581b0388166020820152908101611de18742613269565b63ffffffff1681526020014263ffffffff1681526020018360ff168152602001611e20836001600160601b0316600b54611e1b91906132f0565b6124cc565b611e29906133df565b90526000848152600f6020908152604091829020835181548584015186860151606088015160808901516001600160601b039095166001600160b81b031990941693909317600160601b6001600160581b03909316929092029190911767ffffffffffffffff60b81b1916600160b81b63ffffffff9283160263ffffffff60d81b191617600160d81b9190921602176001600160f81b0316600160f81b60ff9092169190910217815560a09093015160019093019290925580518881529182018790526001600160a01b0386169185917f90cb42f510ce5c0169b63666274740c2e6d975a476c3758664f3795699fc654e910160405180910390a350509392505050565b6040516001600160a01b0383166024820152604481018290526108b490849063a9059cbb60e01b906064015b60408051601f198184030181529190526020810180516001600160e01b03166001600160e01b0319909316929092179091526124e3565b600c54600d546040516370a0823160e01b81523060048201526000929183917f00000000000000000000000000000000000000000000000000000000000000006001600160a01b0316906370a0823190602401602060405180830381865afa158015612000573d6000803e3d6000fd5b505050506040513d601f19601f8201168201806040525081019061202491906133fb565b61202e91906132d9565b600c819055905061203e826124cc565b612047826124cc565b6120519190613414565b9250505090565b6000826001600160a01b031661206d83610d64565b6001600160a01b0316146120935760405162461bcd60e51b815260040161077f906131b0565b6000828152600f6020526040902080546001600160601b03811690600160601b81046001600160581b031690600160b81b900463ffffffff168061210e5760405162461bcd60e51b81526020600482015260126024820152712727afa627a1a5a2a22fa827a9a4aa24a7a760711b604482015260640161077f565b8063ffffffff1642106121535760405162461bcd60e51b815260206004820152600d60248201526c43414e4e4f545f554e4c4f434b60981b604482015260640161077f565b61216283838660010154612394565b9450816001600160581b0316600d600082825461217f91906132d9565b92505081905550826001600160601b0316600e60008282546121a191906132d9565b90915550506000868152600f60205260408120818155600101556121c486611ad8565b866001600160a01b0316867face2274efdcecc9282116630e8cb1c7f6156ca3cb8f3fde20c4c3d3fe64670428760405161220091815260200190565b60405180910390a35050505092915050565b60008082121561222457612224613453565b5090565b61223384848461192d565b61223f848484846125b5565b6109905760405162461bcd60e51b815260040161077f90613469565b6060816000036122825750506040805180820190915260018152600360fc1b602082015290565b8160005b81156122ac5780612296816131ff565b91506122a59050600a83613325565b9150612286565b60008167ffffffffffffffff8111156122c7576122c7612c2a565b6040519080825280601f01601f1916602001820160405280156122f1576020820181803683370190505b5090505b8415611925576123066001836132d9565b9150612313600a866134bb565b61231e906030613269565b60f81b818381518110612333576123336131d3565b60200101906001600160f81b031916908160001a905350612355600a86613325565b94506122f5565b6040516001600160a01b03808516602483015283166044820152606481018290526109909085906323b872dd60e01b90608401611f59565b6000826001600160581b0316600160801b6123cd846123c3886001600160601b0316600b54611e1b91906132f0565b61136c91906134cf565b6123d79190613325565b6119259190613269565b6001600160a01b03831661243c5761243781600880546000838152600960205260408120829055600182018355919091527ff3f7a9fe364faab93b216da50a3214154f22a0a2b415b23a84c8169e8b636ee30155565b61245f565b816001600160a01b0316836001600160a01b03161461245f5761245f83826126b6565b6001600160a01b038216612476576108b481612753565b826001600160a01b0316826001600160a01b0316146108b4576108b48282612802565b6124a38383612846565b6124b060008484846125b5565b6108b45760405162461bcd60e51b815260040161077f90613469565b8060008112156124de576124de613453565b919050565b6000612538826040518060400160405280602081526020017f5361666545524332303a206c6f772d6c6576656c2063616c6c206661696c6564815250856001600160a01b03166129949092919063ffffffff16565b8051909150156108b457808060200190518101906125569190613510565b6108b45760405162461bcd60e51b815260206004820152602a60248201527f5361666545524332303a204552433230206f7065726174696f6e20646964206e6044820152691bdd081cdd58d8d9595960b21b606482015260840161077f565b60006001600160a01b0384163b156126ab57604051630a85bd0160e11b81526001600160a01b0385169063150b7a02906125f990339089908890889060040161352d565b6020604051808303816000875af1925050508015612634575060408051601f3d908101601f191682019092526126319181019061356a565b60015b612691573d808015612662576040519150601f19603f3d011682016040523d82523d6000602084013e612667565b606091505b5080516000036126895760405162461bcd60e51b815260040161077f90613469565b805181602001fd5b6001600160e01b031916630a85bd0160e11b149050611925565b506001949350505050565b600060016126c384610e69565b6126cd91906132d9565b600083815260076020526040902054909150808214612720576001600160a01b03841660009081526006602090815260408083208584528252808320548484528184208190558352600790915290208190555b5060009182526007602090815260408084208490556001600160a01b039094168352600681528383209183525290812055565b600854600090612765906001906132d9565b6000838152600960205260408120546008805493945090928490811061278d5761278d6131d3565b9060005260206000200154905080600883815481106127ae576127ae6131d3565b60009182526020808320909101929092558281526009909152604080822084905585825281205560088054806127e6576127e6613587565b6001900381819060005260206000200160009055905550505050565b600061280d83610e69565b6001600160a01b039093166000908152600660209081526040808320868452825280832085905593825260079052919091209190915550565b6001600160a01b03821661289c5760405162461bcd60e51b815260206004820181905260248201527f4552433732313a206d696e7420746f20746865207a65726f2061646472657373604482015260640161077f565b6000818152600260205260409020546001600160a01b0316156129015760405162461bcd60e51b815260206004820152601c60248201527f4552433732313a20746f6b656e20616c7265616479206d696e74656400000000604482015260640161077f565b61290d600083836123e1565b6001600160a01b0382166000908152600360205260408120805460019290612936908490613269565b909155505060008181526002602052604080822080546001600160a01b0319166001600160a01b03861690811790915590518392907fddf252ad1be2c89b69c2b068fc378daa952ba7f163c4a11628f55a4df523b3ef908290a45050565b6060611925848460008585843b6129ed5760405162461bcd60e51b815260206004820152601d60248201527f416464726573733a2063616c6c20746f206e6f6e2d636f6e7472616374000000604482015260640161077f565b600080866001600160a01b03168587604051612a09919061329d565b60006040518083038185875af1925050503d8060008114612a46576040519150601f19603f3d011682016040523d82523d6000602084013e612a4b565b606091505b5091509150612a5b828286612a66565b979650505050505050565b60608315612a75575081610bdd565b825115612a855782518084602001fd5b8160405162461bcd60e51b815260040161077f9190612bbd565b828054612aab90613176565b90600052602060002090601f016020900481019282612acd5760008555612b13565b82601f10612ae657805160ff1916838001178555612b13565b82800160010185558215612b13579182015b82811115612b13578251825591602001919060010190612af8565b506122249291505b808211156122245760008155600101612b1b565b6001600160e01b031981168114612b4557600080fd5b50565b600060208284031215612b5a57600080fd5b8135610bdd81612b2f565b60005b83811015612b80578181015183820152602001612b68565b838111156109905750506000910152565b60008151808452612ba9816020860160208601612b65565b601f01601f19169290920160200192915050565b602081526000610bdd6020830184612b91565b600060208284031215612be257600080fd5b5035919050565b80356001600160a01b03811681146124de57600080fd5b60008060408385031215612c1357600080fd5b612c1c83612be9565b946020939093013593505050565b634e487b7160e01b600052604160045260246000fd5b604051601f8201601f1916810167ffffffffffffffff81118282101715612c6957612c69612c2a565b604052919050565b600067ffffffffffffffff821115612c8b57612c8b612c2a565b5060051b60200190565b600082601f830112612ca657600080fd5b81356020612cbb612cb683612c71565b612c40565b82815260059290921b84018101918181019086841115612cda57600080fd5b8286015b84811015612cf55780358352918301918301612cde565b509695505050505050565b803560ff811681146124de57600080fd5b60008060408385031215612d2457600080fd5b823567ffffffffffffffff80821115612d3c57600080fd5b612d4886838701612c95565b9350602091508185013581811115612d5f57600080fd5b85019050601f81018613612d7257600080fd5b8035612d80612cb682612c71565b81815260059190911b82018301908381019088831115612d9f57600080fd5b928401925b82841015612dc457612db584612d00565b82529284019290840190612da4565b80955050505050509250929050565b600080600060608486031215612de857600080fd5b612df184612be9565b9250612dff60208501612be9565b9150604084013590509250925092565b60008060408385031215612e2257600080fd5b823567ffffffffffffffff811115612e3957600080fd5b612e4585828601612c95565b925050612e5460208401612be9565b90509250929050565b60008060408385031215612e7057600080fd5b50508035926020909101359150565b600060208284031215612e9157600080fd5b610bdd82612be9565b600067ffffffffffffffff831115612eb457612eb4612c2a565b612ec7601f8401601f1916602001612c40565b9050828152838383011115612edb57600080fd5b828260208301376000602084830101529392505050565b600060208284031215612f0457600080fd5b813567ffffffffffffffff811115612f1b57600080fd5b8201601f81018413612f2c57600080fd5b61192584823560208401612e9a565b60008060008060808587031215612f5157600080fd5b843567ffffffffffffffff811115612f6857600080fd5b612f7487828801612c95565b9450506020850135925060408501359150612f9160608601612be9565b905092959194509250565b8015158114612b4557600080fd5b60008060408385031215612fbd57600080fd5b612fc683612be9565b91506020830135612fd681612f9c565b809150509250929050565b60008060008060808587031215612ff757600080fd5b843593506020850135925060408501359150612f9160608601612be9565b6000806000806080858703121561302b57600080fd5b61303485612be9565b935061304260208601612be9565b925060408501359150606085013567ffffffffffffffff81111561306557600080fd5b8501601f8101871361307657600080fd5b61308587823560208401612e9a565b91505092959194509250565b600080600080600080600060e0888a0312156130ac57600080fd5b87359650602088013595506130c360408901612be9565b9450606088013593506130d860808901612d00565b925060a0880135915060c0880135905092959891949750929550565b60008060006060848603121561310957600080fd5b833592506020840135915061312060408501612be9565b90509250925092565b6000806040838503121561313c57600080fd5b61314583612be9565b9150612e5460208401612be9565b6000806040838503121561316657600080fd5b82359150612e5460208401612be9565b600181811c9082168061318a57607f821691505b6020821081036131aa57634e487b7160e01b600052602260045260246000fd5b50919050565b6020808252600990820152682727aa2fa7aba722a960b91b604082015260600190565b634e487b7160e01b600052603260045260246000fd5b634e487b7160e01b600052601160045260246000fd5b600060018201613211576132116131e9565b5060010190565b60208082526031908201527f4552433732313a207472616e736665722063616c6c6572206973206e6f74206f6040820152701ddb995c881b9bdc88185c1c1c9bdd9959607a1b606082015260800190565b6000821982111561327c5761327c6131e9565b500190565b60008151613293818560208601612b65565b9290920192915050565b600082516132af818460208701612b65565b9190910192915050565b6020808252600690820152651313d0d2d15160d21b604082015260600190565b6000828210156132eb576132eb6131e9565b500390565b600081600019048311821515161561330a5761330a6131e9565b500290565b634e487b7160e01b600052601260045260246000fd5b6000826133345761333461330f565b500490565b600080845481600182811c91508083168061335557607f831692505b6020808410820361337457634e487b7160e01b86526022600452602486fd5b8180156133885760018114613399576133c6565b60ff198616895284890196506133c6565b60008b81526020902060005b868110156133be5781548b8201529085019083016133a5565b505084890196505b5050505050506133d68185613281565b95945050505050565b6000600160ff1b82016133f4576133f46131e9565b5060000390565b60006020828403121561340d57600080fd5b5051919050565b60008083128015600160ff1b850184121615613432576134326131e9565b6001600160ff1b038401831381161561344d5761344d6131e9565b50500390565b634e487b7160e01b600052600160045260246000fd5b60208082526032908201527f4552433732313a207472616e7366657220746f206e6f6e20455243373231526560408201527131b2b4bb32b91034b6b83632b6b2b73a32b960711b606082015260800190565b6000826134ca576134ca61330f565b500690565b600080821280156001600160ff1b03849003851316156134f1576134f16131e9565b600160ff1b839003841281161561350a5761350a6131e9565b50500190565b60006020828403121561352257600080fd5b8151610bdd81612f9c565b6001600160a01b038581168252841660208201526040810183905260806060820181905260009061356090830184612b91565b9695505050505050565b60006020828403121561357c57600080fd5b8151610bdd81612b2f565b634e487b7160e01b600052603160045260246000fdfea264697066735822122011db42017d8ac638374dab7ba64d96b8e92ff9fcd74c36c4ae02472ceeec92eb64736f6c634300080d0033",
  "bytecodeSha1": "30639b3519643143d2b99e44abea8b58a14329d1",
  "compiler": {
    "evm_version": "istanbul",
    "optimizer": {
      "enabled": true,
      "runs": 200
    },
    "version": "0.8.13+commit.abaa5c0e"
  },
  "contractName": "SUPERDEFIDistribution",
  "language": "Solidity",
  "natspec": {
    "kind": "dev",
    "methods": {
      "approve(address,uint256)": {
        "details": "See {IERC721-approve}."
      },
      "balanceOf(address)": {
        "details": "See {IERC721-balanceOf}."
      },
      "getApproved(uint256)": {
        "details": "See {IERC721-getApproved}."
      },
      "isApprovedForAll(address,address)": {
        "details": "See {IERC721-isApprovedForAll}."
      },
      "name()": {
        "details": "See {IERC721Metadata-name}."
      },
      "ownerOf(uint256)": {
        "details": "See {IERC721-ownerOf}."
      },
      "safeTransferFrom(address,address,uint256)": {
        "details": "See {IERC721-safeTransferFrom}."
      },
      "safeTransferFrom(address,address,uint256,bytes)": {
        "details": "See {IERC721-safeTransferFrom}."
      },
      "setApprovalForAll(address,bool)": {
        "details": "See {IERC721-setApprovalForAll}."
      },
      "supportsInterface(bytes4)": {
        "details": "See {IERC165-supportsInterface}."
      },
      "symbol()": {
        "details": "See {IERC721Metadata-symbol}."
      },
      "tokenByIndex(uint256)": {
        "details": "See {IERC721Enumerable-tokenByIndex}."
      },
      "tokenOfOwnerByIndex(address,uint256)": {
        "details": "See {IERC721Enumerable-tokenOfOwnerByIndex}."
      },
      "totalSupply()": {
        "details": "See {IERC721Enumerable-totalSupply}."
      },
      "transferFrom(address,address,uint256)": {
        "details": "See {IERC721-transferFrom}."
      }
    },
    "version": 1
  },
  "opcodes": "PUSH1 0x80 PUSH1 0x40 MSTORE CALLVALUE DUP1 ISZERO PUSH2 0x10 JUMPI PUSH1 0x0 DUP1 REVERT JUMPDEST POP PUSH1 0x4 CALLDATASIZE LT PUSH2 0x248 JUMPI PUSH1 0x0 CALLDATALOAD PUSH1 0xE0 SHR DUP1 PUSH4 0x710BF322 GT PUSH2 0x13B JUMPI DUP1 PUSH4 0xB88D4FDE GT PUSH2 0xB8 JUMPI DUP1 PUSH4 0xD35CF790 GT PUSH2 0x7C JUMPI DUP1 PUSH4 0xD35CF790 EQ PUSH2 0x5B1 JUMPI DUP1 PUSH4 0xE30C3978 EQ PUSH2 0x5C4 JUMPI DUP1 PUSH4 0xE985E9C5 EQ PUSH2 0x5D7 JUMPI DUP1 PUSH4 0xF1D2EC1D EQ PUSH2 0x613 JUMPI DUP1 PUSH4 0xFB800717 EQ PUSH2 0x626 JUMPI PUSH1 0x0 DUP1 REVERT JUMPDEST DUP1 PUSH4 0xB88D4FDE EQ PUSH2 0x55C JUMPI DUP1 PUSH4 0xC87B56DD EQ PUSH2 0x56F JUMPI DUP1 PUSH4 0xCC1168F2 EQ PUSH2 0x582 JUMPI DUP1 PUSH4 0xD01969DE EQ PUSH2 0x595 JUMPI DUP1 PUSH4 0xD1FDB3E8 EQ PUSH2 0x59E JUMPI PUSH1 0x0 DUP1 REVERT JUMPDEST DUP1 PUSH4 0xA22CB465 GT PUSH2 0xFF JUMPI DUP1 PUSH4 0xA22CB465 EQ PUSH2 0x4E6 JUMPI DUP1 PUSH4 0xA372E771 EQ PUSH2 0x4F9 JUMPI DUP1 PUSH4 0xA54DA070 EQ PUSH2 0x50C JUMPI DUP1 PUSH4 0xA6A5AC22 EQ PUSH2 0x541 JUMPI DUP1 PUSH4 0xAA8BADC1 EQ PUSH2 0x554 JUMPI PUSH1 0x0 DUP1 REVERT JUMPDEST DUP1 PUSH4 0x710BF322 EQ PUSH2 0x47D JUMPI DUP1 PUSH4 0x82411358 EQ PUSH2 0x490 JUMPI DUP1 PUSH4 0x8DA5CB5B EQ PUSH2 0x4A3 JUMPI DUP1 PUSH4 0x913B1F8C EQ PUSH2 0x4B6 JUMPI DUP1 PUSH4 0x95D89B41 EQ PUSH2 0x4DE JUMPI PUSH1 0x0 DUP1 REVERT JUMPDEST DUP1 PUSH4 0x42842E0E GT PUSH2 0x1C9 JUMPI DUP1 PUSH4 0x55F804B3 GT PUSH2 0x18D JUMPI DUP1 PUSH4 0x55F804B3 EQ PUSH2 0x433 JUMPI DUP1 PUSH4 0x6352211E EQ PUSH2 0x446 JUMPI DUP1 PUSH4 0x6C0360EB EQ PUSH2 0x459 JUMPI DUP1 PUSH4 0x6D86ACC4 EQ PUSH2 0x461 JUMPI DUP1 PUSH4 0x70A08231 EQ PUSH2 0x46A JUMPI PUSH1 0x0 DUP1 REVERT JUMPDEST DUP1 PUSH4 0x42842E0E EQ PUSH2 0x331 JUMPI DUP1 PUSH4 0x46F96023 EQ PUSH2 0x344 JUMPI DUP1 PUSH4 0x4D4C71A3 EQ PUSH2 0x3FA JUMPI DUP1 PUSH4 0x4F6CCCE7 EQ PUSH2 0x40D JUMPI DUP1 PUSH4 0x51710E45 EQ PUSH2 0x420 JUMPI PUSH1 0x0 DUP1 REVERT JUMPDEST DUP1 PUSH4 0x18160DDD GT PUSH2 0x210 JUMPI DUP1 PUSH4 0x18160DDD EQ PUSH2 0x2DD JUMPI DUP1 PUSH4 0x23B872DD EQ PUSH2 0x2EF JUMPI DUP1 PUSH4 0x2B580629 EQ PUSH2 0x302 JUMPI DUP1 PUSH4 0x2F745C59 EQ PUSH2 0x315 JUMPI DUP1 PUSH4 0x316D82DE EQ PUSH2 0x328 JUMPI PUSH1 0x0 DUP1 REVERT JUMPDEST DUP1 PUSH4 0x1FFC9A7 EQ PUSH2 0x24D JUMPI DUP1 PUSH4 0x6FDDE03 EQ PUSH2 0x275 JUMPI DUP1 PUSH4 0x81812FC EQ PUSH2 0x28A JUMPI DUP1 PUSH4 0x95EA7B3 EQ PUSH2 0x2B5 JUMPI DUP1 PUSH4 0x159D97FC EQ PUSH2 0x2CA JUMPI JUMPDEST PUSH1 0x0 DUP1 REVERT JUMPDEST PUSH2 0x260 PUSH2 0x25B CALLDATASIZE PUSH1 0x4 PUSH2 0x2B48 JUMP JUMPDEST PUSH2 0x64D JUMP JUMPDEST PUSH1 0x40 MLOAD SWAP1 ISZERO ISZERO DUP2 MSTORE PUSH1 0x20 ADD JUMPDEST PUSH1 0x40 MLOAD DUP1 SWAP2 SUB SWAP1 RETURN JUMPDEST PUSH2 0x27D PUSH2 0x678 JUMP JUMPDEST PUSH1 0x40 MLOAD PUSH2 0x26C SWAP2 SWAP1 PUSH2 0x2BBD JUMP JUMPDEST PUSH2 0x29D PUSH2 0x298 CALLDATASIZE PUSH1 0x4 PUSH2 0x2BD0 JUMP JUMPDEST PUSH2 0x70A JUMP JUMPDEST PUSH1 0x40 MLOAD PUSH1 0x1 PUSH1 0x1 PUSH1 0xA0 SHL SUB SWAP1 SWAP2 AND DUP2 MSTORE PUSH1 0x20 ADD PUSH2 0x26C JUMP JUMPDEST PUSH2 0x2C8 PUSH2 0x2C3 CALLDATASIZE PUSH1 0x4 PUSH2 0x2C00 JUMP JUMPDEST PUSH2 0x7A4 JUMP JUMPDEST STOP JUMPDEST PUSH2 0x2C8 PUSH2 0x2D8 CALLDATASIZE PUSH1 0x4 PUSH2 0x2D11 JUMP JUMPDEST PUSH2 0x8B9 JUMP JUMPDEST PUSH1 0x8 SLOAD JUMPDEST PUSH1 0x40 MLOAD SWAP1 DUP2 MSTORE PUSH1 0x20 ADD PUSH2 0x26C JUMP JUMPDEST PUSH2 0x2C8 PUSH2 0x2FD CALLDATASIZE PUSH1 0x4 PUSH2 0x2DD3 JUMP JUMPDEST PUSH2 0x996 JUMP JUMPDEST PUSH2 0x2E1 PUSH2 0x310 CALLDATASIZE PUSH1 0x4 PUSH2 0x2E0F JUMP JUMPDEST PUSH2 0x9C7 JUMP JUMPDEST PUSH2 0x2E1 PUSH2 0x323 CALLDATASIZE PUSH1 0x4 PUSH2 0x2C00 JUMP JUMPDEST PUSH2 0xB20 JUMP JUMPDEST PUSH2 0x2E1 PUSH1 0xD SLOAD DUP2 JUMP JUMPDEST PUSH2 0x2C8 PUSH2 0x33F CALLDATASIZE PUSH1 0x4 PUSH2 0x2DD3 JUMP JUMPDEST PUSH2 0xBB6 JUMP JUMPDEST PUSH2 0x3AE PUSH2 0x352 CALLDATASIZE PUSH1 0x4 PUSH2 0x2BD0 JUMP JUMPDEST PUSH1 0xF PUSH1 0x20 MSTORE PUSH1 0x0 SWAP1 DUP2 MSTORE PUSH1 0x40 SWAP1 KECCAK256 DUP1 SLOAD PUSH1 0x1 SWAP1 SWAP2 ADD SLOAD PUSH1 0x1 PUSH1 0x1 PUSH1 0x60 SHL SUB DUP3 AND SWAP2 PUSH1 0x1 PUSH1 0x60 SHL DUP2 DIV PUSH1 0x1 PUSH1 0x1 PUSH1 0x58 SHL SUB AND SWAP2 PUSH1 0x1 PUSH1 0xB8 SHL DUP3 DIV PUSH4 0xFFFFFFFF SWAP1 DUP2 AND SWAP3 PUSH1 0x1 PUSH1 0xD8 SHL DUP2 DIV SWAP1 SWAP2 AND SWAP2 PUSH1 0x1 PUSH1 0xF8 SHL SWAP1 SWAP2 DIV PUSH1 0xFF AND SWAP1 DUP7 JUMP JUMPDEST PUSH1 0x40 DUP1 MLOAD PUSH1 0x1 PUSH1 0x1 PUSH1 0x60 SHL SUB SWAP1 SWAP8 AND DUP8 MSTORE PUSH1 0x1 PUSH1 0x1 PUSH1 0x58 SHL SUB SWAP1 SWAP6 AND PUSH1 0x20 DUP8 ADD MSTORE PUSH4 0xFFFFFFFF SWAP4 DUP5 AND SWAP5 DUP7 ADD SWAP5 SWAP1 SWAP5 MSTORE SWAP2 AND PUSH1 0x60 DUP5 ADD MSTORE PUSH1 0xFF AND PUSH1 0x80 DUP4 ADD MSTORE PUSH1 0xA0 DUP3 ADD MSTORE PUSH1 0xC0 ADD PUSH2 0x26C JUMP JUMPDEST PUSH2 0x2E1 PUSH2 0x408 CALLDATASIZE PUSH1 0x4 PUSH2 0x2E5D JUMP JUMPDEST PUSH2 0xBD1 JUMP JUMPDEST PUSH2 0x2E1 PUSH2 0x41B CALLDATASIZE PUSH1 0x4 PUSH2 0x2BD0 JUMP JUMPDEST PUSH2 0xBE4 JUMP JUMPDEST PUSH2 0x2C8 PUSH2 0x42E CALLDATASIZE PUSH1 0x4 PUSH2 0x2E7F JUMP JUMPDEST PUSH2 0xC77 JUMP JUMPDEST PUSH2 0x2C8 PUSH2 0x441 CALLDATASIZE PUSH1 0x4 PUSH2 0x2EF2 JUMP JUMPDEST PUSH2 0xD23 JUMP JUMPDEST PUSH2 0x29D PUSH2 0x454 CALLDATASIZE PUSH1 0x4 PUSH2 0x2BD0 JUMP JUMPDEST PUSH2 0xD64 JUMP JUMPDEST PUSH2 0x27D PUSH2 0xDDB JUMP JUMPDEST PUSH2 0x2E1 PUSH1 0xE SLOAD DUP2 JUMP JUMPDEST PUSH2 0x2E1 PUSH2 0x478 CALLDATASIZE PUSH1 0x4 PUSH2 0x2E7F JUMP JUMPDEST PUSH2 0xE69 JUMP JUMPDEST PUSH2 0x2C8 PUSH2 0x48B CALLDATASIZE PUSH1 0x4 PUSH2 0x2E7F JUMP JUMPDEST PUSH2 0xEF0 JUMP JUMPDEST PUSH2 0x2E1 PUSH2 0x49E CALLDATASIZE PUSH1 0x4 PUSH2 0x2BD0 JUMP JUMPDEST PUSH2 0xF6C JUMP JUMPDEST PUSH1 0x12 SLOAD PUSH2 0x29D SWAP1 PUSH1 0x1 PUSH1 0x1 PUSH1 0xA0 SHL SUB AND DUP2 JUMP JUMPDEST PUSH2 0x4C9 PUSH2 0x4C4 CALLDATASIZE PUSH1 0x4 PUSH2 0x2F3B JUMP JUMPDEST PUSH2 0xFC5 JUMP JUMPDEST PUSH1 0x40 DUP1 MLOAD SWAP3 DUP4 MSTORE PUSH1 0x20 DUP4 ADD SWAP2 SWAP1 SWAP2 MSTORE ADD PUSH2 0x26C JUMP JUMPDEST PUSH2 0x27D PUSH2 0x1104 JUMP JUMPDEST PUSH2 0x2C8 PUSH2 0x4F4 CALLDATASIZE PUSH1 0x4 PUSH2 0x2FAA JUMP JUMPDEST PUSH2 0x1113 JUMP JUMPDEST PUSH2 0x4C9 PUSH2 0x507 CALLDATASIZE PUSH1 0x4 PUSH2 0x2FE1 JUMP JUMPDEST PUSH2 0x11D7 JUMP JUMPDEST PUSH2 0x52F PUSH2 0x51A CALLDATASIZE PUSH1 0x4 PUSH2 0x2BD0 JUMP JUMPDEST PUSH1 0x10 PUSH1 0x20 MSTORE PUSH1 0x0 SWAP1 DUP2 MSTORE PUSH1 0x40 SWAP1 KECCAK256 SLOAD PUSH1 0xFF AND DUP2 JUMP JUMPDEST PUSH1 0x40 MLOAD PUSH1 0xFF SWAP1 SWAP2 AND DUP2 MSTORE PUSH1 0x20 ADD PUSH2 0x26C JUMP JUMPDEST PUSH2 0x2E1 PUSH2 0x54F CALLDATASIZE PUSH1 0x4 PUSH2 0x2E0F JUMP JUMPDEST PUSH2 0x1257 JUMP JUMPDEST PUSH2 0x2C8 PUSH2 0x131E JUMP JUMPDEST PUSH2 0x2C8 PUSH2 0x56A CALLDATASIZE PUSH1 0x4 PUSH2 0x3015 JUMP JUMPDEST PUSH2 0x13E4 JUMP JUMPDEST PUSH2 0x27D PUSH2 0x57D CALLDATASIZE PUSH1 0x4 PUSH2 0x2BD0 JUMP JUMPDEST PUSH2 0x1416 JUMP JUMPDEST PUSH2 0x2E1 PUSH2 0x590 CALLDATASIZE PUSH1 0x4 PUSH2 0x3091 JUMP JUMPDEST PUSH2 0x149A JUMP JUMPDEST PUSH2 0x2E1 PUSH1 0xC SLOAD DUP2 JUMP JUMPDEST PUSH2 0x2E1 PUSH2 0x5AC CALLDATASIZE PUSH1 0x4 PUSH2 0x2BD0 JUMP JUMPDEST PUSH2 0x1605 JUMP JUMPDEST PUSH2 0x2E1 PUSH2 0x5BF CALLDATASIZE PUSH1 0x4 PUSH2 0x30F4 JUMP JUMPDEST PUSH2 0x1640 JUMP JUMPDEST PUSH1 0x13 SLOAD PUSH2 0x29D SWAP1 PUSH1 0x1 PUSH1 0x1 PUSH1 0xA0 SHL SUB AND DUP2 JUMP JUMPDEST PUSH2 0x260 PUSH2 0x5E5 CALLDATASIZE PUSH1 0x4 PUSH2 0x3129 JUMP JUMPDEST PUSH1 0x1 PUSH1 0x1 PUSH1 0xA0 SHL SUB SWAP2 DUP3 AND PUSH1 0x0 SWAP1 DUP2 MSTORE PUSH1 0x5 PUSH1 0x20 SWAP1 DUP2 MSTORE PUSH1 0x40 DUP1 DUP4 KECCAK256 SWAP4 SWAP1 SWAP5 AND DUP3 MSTORE SWAP2 SWAP1 SWAP2 MSTORE KECCAK256 SLOAD PUSH1 0xFF AND SWAP1 JUMP JUMPDEST PUSH2 0x2E1 PUSH2 0x621 CALLDATASIZE PUSH1 0x4 PUSH2 0x3153 JUMP JUMPDEST PUSH2 0x16F9 JUMP JUMPDEST PUSH2 0x29D PUSH32 0x0 DUP2 JUMP JUMPDEST PUSH1 0x0 PUSH1 0x1 PUSH1 0x1 PUSH1 0xE0 SHL SUB NOT DUP3 AND PUSH4 0x780E9D63 PUSH1 0xE0 SHL EQ DUP1 PUSH2 0x672 JUMPI POP PUSH2 0x672 DUP3 PUSH2 0x1778 JUMP JUMPDEST SWAP3 SWAP2 POP POP JUMP JUMPDEST PUSH1 0x60 PUSH1 0x0 DUP1 SLOAD PUSH2 0x687 SWAP1 PUSH2 0x3176 JUMP JUMPDEST DUP1 PUSH1 0x1F ADD PUSH1 0x20 DUP1 SWAP2 DIV MUL PUSH1 0x20 ADD PUSH1 0x40 MLOAD SWAP1 DUP2 ADD PUSH1 0x40 MSTORE DUP1 SWAP3 SWAP2 SWAP1 DUP2 DUP2 MSTORE PUSH1 0x20 ADD DUP3 DUP1 SLOAD PUSH2 0x6B3 SWAP1 PUSH2 0x3176 JUMP JUMPDEST DUP1 ISZERO PUSH2 0x700 JUMPI DUP1 PUSH1 0x1F LT PUSH2 0x6D5 JUMPI PUSH2 0x100 DUP1 DUP4 SLOAD DIV MUL DUP4 MSTORE SWAP2 PUSH1 0x20 ADD SWAP2 PUSH2 0x700 JUMP JUMPDEST DUP3 ADD SWAP2 SWAP1 PUSH1 0x0 MSTORE PUSH1 0x20 PUSH1 0x0 KECCAK256 SWAP1 JUMPDEST DUP2 SLOAD DUP2 MSTORE SWAP1 PUSH1 0x1 ADD SWAP1 PUSH1 0x20 ADD DUP1 DUP4 GT PUSH2 0x6E3 JUMPI DUP3 SWAP1 SUB PUSH1 0x1F AND DUP3 ADD SWAP2 JUMPDEST POP POP POP POP POP SWAP1 POP SWAP1 JUMP JUMPDEST PUSH1 0x0 DUP2 DUP2 MSTORE PUSH1 0x2 PUSH1 0x20 MSTORE PUSH1 0x40 DUP2 KECCAK256 SLOAD PUSH1 0x1 PUSH1 0x1 PUSH1 0xA0 SHL SUB AND PUSH2 0x788 JUMPI PUSH1 0x40 MLOAD PUSH3 0x461BCD PUSH1 0xE5 SHL DUP2 MSTORE PUSH1 0x20 PUSH1 0x4 DUP3 ADD MSTORE PUSH1 0x2C PUSH1 0x24 DUP3 ADD MSTORE PUSH32 0x4552433732313A20617070726F76656420717565727920666F72206E6F6E6578 PUSH1 0x44 DUP3 ADD MSTORE PUSH12 0x34B9BA32B73A103A37B5B2B7 PUSH1 0xA1 SHL PUSH1 0x64 DUP3 ADD MSTORE PUSH1 0x84 ADD JUMPDEST PUSH1 0x40 MLOAD DUP1 SWAP2 SUB SWAP1 REVERT JUMPDEST POP PUSH1 0x0 SWAP1 DUP2 MSTORE PUSH1 0x4 PUSH1 0x20 MSTORE PUSH1 0x40 SWAP1 KECCAK256 SLOAD PUSH1 0x1 PUSH1 0x1 PUSH1 0xA0 SHL SUB AND SWAP1 JUMP JUMPDEST PUSH1 0x0 PUSH2 0x7AF DUP3 PUSH2 0xD64 JUMP JUMPDEST SWAP1 POP DUP1 PUSH1 0x1 PUSH1 0x1 PUSH1 0xA0 SHL SUB AND DUP4 PUSH1 0x1 PUSH1 0x1 PUSH1 0xA0 SHL SUB AND SUB PUSH2 0x81C JUMPI PUSH1 0x40 MLOAD PUSH3 0x461BCD PUSH1 0xE5 SHL DUP2 MSTORE PUSH1 0x20 PUSH1 0x4 DUP3 ADD MSTORE PUSH1 0x21 PUSH1 0x24 DUP3 ADD MSTORE PUSH32 0x4552433732313A20617070726F76616C20746F2063757272656E74206F776E65 PUSH1 0x44 DUP3 ADD MSTORE PUSH1 0x39 PUSH1 0xF9 SHL PUSH1 0x64 DUP3 ADD MSTORE PUSH1 0x84 ADD PUSH2 0x77F JUMP JUMPDEST CALLER PUSH1 0x1 PUSH1 0x1 PUSH1 0xA0 SHL SUB DUP3 AND EQ DUP1 PUSH2 0x838 JUMPI POP PUSH2 0x838 DUP2 CALLER PUSH2 0x5E5 JUMP JUMPDEST PUSH2 0x8AA JUMPI PUSH1 0x40 MLOAD PUSH3 0x461BCD PUSH1 0xE5 SHL DUP2 MSTORE PUSH1 0x20 PUSH1 0x4 DUP3 ADD MSTORE PUSH1 0x38 PUSH1 0x24 DUP3 ADD MSTORE PUSH32 0x4552433732313A20617070726F76652063616C6C6572206973206E6F74206F77 PUSH1 0x44 DUP3 ADD MSTORE PUSH32 0x6E6572206E6F7220617070726F76656420666F7220616C6C0000000000000000 PUSH1 0x64 DUP3 ADD MSTORE PUSH1 0x84 ADD PUSH2 0x77F JUMP JUMPDEST PUSH2 0x8B4 DUP4 DUP4 PUSH2 0x17C8 JUMP JUMPDEST POP POP POP JUMP JUMPDEST PUSH1 0x12 SLOAD PUSH1 0x1 PUSH1 0x1 PUSH1 0xA0 SHL SUB AND CALLER EQ PUSH2 0x8E3 JUMPI PUSH1 0x40 MLOAD PUSH3 0x461BCD PUSH1 0xE5 SHL DUP2 MSTORE PUSH1 0x4 ADD PUSH2 0x77F SWAP1 PUSH2 0x31B0 JUMP JUMPDEST DUP2 MLOAD PUSH1 0x0 JUMPDEST DUP2 DUP2 LT ISZERO PUSH2 0x990 JUMPI PUSH1 0x0 DUP5 DUP3 DUP2 MLOAD DUP2 LT PUSH2 0x904 JUMPI PUSH2 0x904 PUSH2 0x31D3 JUMP JUMPDEST PUSH1 0x20 MUL PUSH1 0x20 ADD ADD MLOAD SWAP1 POP PUSH32 0xFC13ABAB9EEF7FA87C9BE4BC9806ADA68A2C7A8E79A26B1B3D3204014AEDAA1F DUP2 DUP6 DUP5 DUP2 MLOAD DUP2 LT PUSH2 0x942 JUMPI PUSH2 0x942 PUSH2 0x31D3 JUMP JUMPDEST PUSH1 0x20 SWAP1 DUP2 MUL SWAP2 SWAP1 SWAP2 ADD DUP2 ADD MLOAD PUSH1 0x0 DUP6 DUP2 MSTORE PUSH1 0x10 DUP4 MSTORE PUSH1 0x40 SWAP1 DUP2 SWAP1 KECCAK256 DUP1 SLOAD PUSH1 0xFF NOT AND PUSH1 0xFF SWAP1 SWAP4 AND SWAP3 DUP4 OR SWAP1 SSTORE DUP1 MLOAD SWAP4 DUP5 MSTORE SWAP2 DUP4 ADD MSTORE ADD PUSH1 0x40 MLOAD DUP1 SWAP2 SUB SWAP1 LOG1 POP PUSH2 0x989 DUP2 PUSH2 0x31FF JUMP JUMPDEST SWAP1 POP PUSH2 0x8E8 JUMP JUMPDEST POP POP POP POP JUMP JUMPDEST PUSH2 0x9A0 CALLER DUP3 PUSH2 0x1836 JUMP JUMPDEST PUSH2 0x9BC JUMPI PUSH1 0x40 MLOAD PUSH3 0x461BCD PUSH1 0xE5 SHL DUP2 MSTORE PUSH1 0x4 ADD PUSH2 0x77F SWAP1 PUSH2 0x3218 JUMP JUMPDEST PUSH2 0x8B4 DUP4 DUP4 DUP4 PUSH2 0x192D JUMP JUMPDEST DUP2 MLOAD PUSH1 0x0 SWAP1 PUSH1 0x1 DUP2 GT PUSH2 0xA0D JUMPI PUSH1 0x40 MLOAD PUSH3 0x461BCD PUSH1 0xE5 SHL DUP2 MSTORE PUSH1 0x20 PUSH1 0x4 DUP3 ADD MSTORE PUSH1 0xE PUSH1 0x24 DUP3 ADD MSTORE PUSH14 0x4D494E5F325F544F5F4D45524745 PUSH1 0x90 SHL PUSH1 0x44 DUP3 ADD MSTORE PUSH1 0x64 ADD PUSH2 0x77F JUMP JUMPDEST PUSH1 0x0 DUP1 JUMPDEST DUP3 DUP2 LT ISZERO PUSH2 0xB02 JUMPI PUSH1 0x0 DUP7 DUP3 DUP2 MLOAD DUP2 LT PUSH2 0xA2D JUMPI PUSH2 0xA2D PUSH2 0x31D3 JUMP JUMPDEST PUSH1 0x20 MUL PUSH1 0x20 ADD ADD MLOAD SWAP1 POP CALLER PUSH1 0x1 PUSH1 0x1 PUSH1 0xA0 SHL SUB AND PUSH2 0xA4A DUP3 PUSH2 0xD64 JUMP JUMPDEST PUSH1 0x1 PUSH1 0x1 PUSH1 0xA0 SHL SUB AND EQ PUSH2 0xA70 JUMPI PUSH1 0x40 MLOAD PUSH3 0x461BCD PUSH1 0xE5 SHL DUP2 MSTORE PUSH1 0x4 ADD PUSH2 0x77F SWAP1 PUSH2 0x31B0 JUMP JUMPDEST PUSH1 0x0 DUP2 DUP2 MSTORE PUSH1 0xF PUSH1 0x20 MSTORE PUSH1 0x40 SWAP1 KECCAK256 SLOAD PUSH1 0x1 PUSH1 0xB8 SHL SWAP1 DIV PUSH4 0xFFFFFFFF AND ISZERO PUSH2 0xAD1 JUMPI PUSH1 0x40 MLOAD PUSH3 0x461BCD PUSH1 0xE5 SHL DUP2 MSTORE PUSH1 0x20 PUSH1 0x4 DUP3 ADD MSTORE PUSH1 0x15 PUSH1 0x24 DUP3 ADD MSTORE PUSH21 0x1413D4D2551253D397D393D517D5539313D0D2D151 PUSH1 0x5A SHL PUSH1 0x44 DUP3 ADD MSTORE PUSH1 0x64 ADD PUSH2 0x77F JUMP JUMPDEST PUSH2 0xADA DUP2 PUSH2 0x1AD8 JUMP JUMPDEST PUSH2 0xAE4 DUP2 PUSH1 0x80 SHR SWAP1 JUMP JUMPDEST PUSH2 0xAEE SWAP1 DUP5 PUSH2 0x3269 JUMP JUMPDEST SWAP3 POP POP DUP1 PUSH2 0xAFB SWAP1 PUSH2 0x31FF JUMP JUMPDEST SWAP1 POP PUSH2 0xA11 JUMP JUMPDEST POP PUSH2 0xB18 DUP5 PUSH2 0xB10 DUP4 PUSH2 0x1B7F JUMP JUMPDEST SWAP5 POP DUP5 PUSH2 0x1BB5 JUMP JUMPDEST POP POP SWAP3 SWAP2 POP POP JUMP JUMPDEST PUSH1 0x0 PUSH2 0xB2B DUP4 PUSH2 0xE69 JUMP JUMPDEST DUP3 LT PUSH2 0xB8D JUMPI PUSH1 0x40 MLOAD PUSH3 0x461BCD PUSH1 0xE5 SHL DUP2 MSTORE PUSH1 0x20 PUSH1 0x4 DUP3 ADD MSTORE PUSH1 0x2B PUSH1 0x24 DUP3 ADD MSTORE PUSH32 0x455243373231456E756D657261626C653A206F776E657220696E646578206F75 PUSH1 0x44 DUP3 ADD MSTORE PUSH11 0x74206F6620626F756E6473 PUSH1 0xA8 SHL PUSH1 0x64 DUP3 ADD MSTORE PUSH1 0x84 ADD PUSH2 0x77F JUMP JUMPDEST POP PUSH1 0x1 PUSH1 0x1 PUSH1 0xA0 SHL SUB SWAP2 SWAP1 SWAP2 AND PUSH1 0x0 SWAP1 DUP2 MSTORE PUSH1 0x6 PUSH1 0x20 SWAP1 DUP2 MSTORE PUSH1 0x40 DUP1 DUP4 KECCAK256 SWAP4 DUP4 MSTORE SWAP3 SWAP1 MSTORE KECCAK256 SLOAD SWAP1 JUMP JUMPDEST PUSH2 0x8B4 DUP4 DUP4 DUP4 PUSH1 0x40 MLOAD DUP1 PUSH1 0x20 ADD PUSH1 0x40 MSTORE DUP1 PUSH1 0x0 DUP2 MSTORE POP PUSH2 0x13E4 JUMP JUMPDEST PUSH1 0x0 PUSH2 0xBDD DUP4 DUP4 PUSH2 0x1BCF JUMP JUMPDEST SWAP4 SWAP3 POP POP POP JUMP JUMPDEST PUSH1 0x0 PUSH2 0xBEF PUSH1 0x8 SLOAD SWAP1 JUMP JUMPDEST DUP3 LT PUSH2 0xC52 JUMPI PUSH1 0x40 MLOAD PUSH3 0x461BCD PUSH1 0xE5 SHL DUP2 MSTORE PUSH1 0x20 PUSH1 0x4 DUP3 ADD MSTORE PUSH1 0x2C PUSH1 0x24 DUP3 ADD MSTORE PUSH32 0x455243373231456E756D657261626C653A20676C6F62616C20696E646578206F PUSH1 0x44 DUP3 ADD MSTORE PUSH12 0x7574206F6620626F756E6473 PUSH1 0xA0 SHL PUSH1 0x64 DUP3 ADD MSTORE PUSH1 0x84 ADD PUSH2 0x77F JUMP JUMPDEST PUSH1 0x8 DUP3 DUP2 SLOAD DUP2 LT PUSH2 0xC65 JUMPI PUSH2 0xC65 PUSH2 0x31D3 JUMP JUMPDEST SWAP1 PUSH1 0x0 MSTORE PUSH1 0x20 PUSH1 0x0 KECCAK256 ADD SLOAD SWAP1 POP SWAP2 SWAP1 POP JUMP JUMPDEST PUSH1 0x13 SLOAD PUSH1 0x1 PUSH1 0x1 PUSH1 0xA0 SHL SUB DUP3 DUP2 AND SWAP2 AND EQ PUSH2 0xCC8 JUMPI PUSH1 0x40 MLOAD PUSH3 0x461BCD PUSH1 0xE5 SHL DUP2 MSTORE PUSH1 0x20 PUSH1 0x4 DUP3 ADD MSTORE PUSH1 0x11 PUSH1 0x24 DUP3 ADD MSTORE PUSH17 0x2727AA2FA822A72224A723AFA7ABA722A9 PUSH1 0x79 SHL PUSH1 0x44 DUP3 ADD MSTORE PUSH1 0x64 ADD PUSH2 0x77F JUMP JUMPDEST PUSH1 0x12 SLOAD PUSH1 0x40 MLOAD PUSH1 0x1 PUSH1 0x1 PUSH1 0xA0 SHL SUB DUP1 DUP5 AND SWAP3 AND SWAP1 PUSH32 0x357BDEB5828FA83945F38A88510CE5CD7D628DAFB346D767EFBC693149FDD97C SWAP1 PUSH1 0x0 SWAP1 LOG3 POP PUSH1 0x12 DUP1 SLOAD PUSH1 0x1 PUSH1 0x1 PUSH1 0xA0 SHL SUB NOT SWAP1 DUP2 AND CALLER OR SWAP1 SWAP2 SSTORE PUSH1 0x13 DUP1 SLOAD SWAP1 SWAP2 AND SWAP1 SSTORE JUMP JUMPDEST PUSH1 0x12 SLOAD PUSH1 0x1 PUSH1 0x1 PUSH1 0xA0 SHL SUB AND CALLER EQ PUSH2 0xD4D JUMPI PUSH1 0x40 MLOAD PUSH3 0x461BCD PUSH1 0xE5 SHL DUP2 MSTORE PUSH1 0x4 ADD PUSH2 0x77F SWAP1 PUSH2 0x31B0 JUMP JUMPDEST DUP1 MLOAD PUSH2 0xD60 SWAP1 PUSH1 0x11 SWAP1 PUSH1 0x20 DUP5 ADD SWAP1 PUSH2 0x2A9F JUMP JUMPDEST POP POP JUMP JUMPDEST PUSH1 0x0 DUP2 DUP2 MSTORE PUSH1 0x2 PUSH1 0x20 MSTORE PUSH1 0x40 DUP2 KECCAK256 SLOAD PUSH1 0x1 PUSH1 0x1 PUSH1 0xA0 SHL SUB AND DUP1 PUSH2 0x672 JUMPI PUSH1 0x40 MLOAD PUSH3 0x461BCD PUSH1 0xE5 SHL DUP2 MSTORE PUSH1 0x20 PUSH1 0x4 DUP3 ADD MSTORE PUSH1 0x29 PUSH1 0x24 DUP3 ADD MSTORE PUSH32 0x4552433732313A206F776E657220717565727920666F72206E6F6E6578697374 PUSH1 0x44 DUP3 ADD MSTORE PUSH9 0x32B73A103A37B5B2B7 PUSH1 0xB9 SHL PUSH1 0x64 DUP3 ADD MSTORE PUSH1 0x84 ADD PUSH2 0x77F JUMP JUMPDEST PUSH1 0x11 DUP1 SLOAD PUSH2 0xDE8 SWAP1 PUSH2 0x3176 JUMP JUMPDEST DUP1 PUSH1 0x1F ADD PUSH1 0x20 DUP1 SWAP2 DIV MUL PUSH1 0x20 ADD PUSH1 0x40 MLOAD SWAP1 DUP2 ADD PUSH1 0x40 MSTORE DUP1 SWAP3 SWAP2 SWAP1 DUP2 DUP2 MSTORE PUSH1 0x20 ADD DUP3 DUP1 SLOAD PUSH2 0xE14 SWAP1 PUSH2 0x3176 JUMP JUMPDEST DUP1 ISZERO PUSH2 0xE61 JUMPI DUP1 PUSH1 0x1F LT PUSH2 0xE36 JUMPI PUSH2 0x100 DUP1 DUP4 SLOAD DIV MUL DUP4 MSTORE SWAP2 PUSH1 0x20 ADD SWAP2 PUSH2 0xE61 JUMP JUMPDEST DUP3 ADD SWAP2 SWAP1 PUSH1 0x0 MSTORE PUSH1 0x20 PUSH1 0x0 KECCAK256 SWAP1 JUMPDEST DUP2 SLOAD DUP2 MSTORE SWAP1 PUSH1 0x1 ADD SWAP1 PUSH1 0x20 ADD DUP1 DUP4 GT PUSH2 0xE44 JUMPI DUP3 SWAP1 SUB PUSH1 0x1F AND DUP3 ADD SWAP2 JUMPDEST POP POP POP POP POP DUP2 JUMP JUMPDEST PUSH1 0x0 PUSH1 0x1 PUSH1 0x1 PUSH1 0xA0 SHL SUB DUP3 AND PUSH2 0xED4 JUMPI PUSH1 0x40 MLOAD PUSH3 0x461BCD PUSH1 0xE5 SHL DUP2 MSTORE PUSH1 0x20 PUSH1 0x4 DUP3 ADD MSTORE PUSH1 0x2A PUSH1 0x24 DUP3 ADD MSTORE PUSH32 0x4552433732313A2062616C616E636520717565727920666F7220746865207A65 PUSH1 0x44 DUP3 ADD MSTORE PUSH10 0x726F2061646472657373 PUSH1 0xB0 SHL PUSH1 0x64 DUP3 ADD MSTORE PUSH1 0x84 ADD PUSH2 0x77F JUMP JUMPDEST POP PUSH1 0x1 PUSH1 0x1 PUSH1 0xA0 SHL SUB AND PUSH1 0x0 SWAP1 DUP2 MSTORE PUSH1 0x3 PUSH1 0x20 MSTORE PUSH1 0x40 SWAP1 KECCAK256 SLOAD SWAP1 JUMP JUMPDEST PUSH1 0x12 SLOAD PUSH1 0x1 PUSH1 0x1 PUSH1 0xA0 SHL SUB AND CALLER EQ PUSH2 0xF1A JUMPI PUSH1 0x40 MLOAD PUSH3 0x461BCD PUSH1 0xE5 SHL DUP2 MSTORE PUSH1 0x4 ADD PUSH2 0x77F SWAP1 PUSH2 0x31B0 JUMP JUMPDEST PUSH1 0x13 DUP1 SLOAD PUSH1 0x1 PUSH1 0x1 PUSH1 0xA0 SHL SUB NOT AND PUSH1 0x1 PUSH1 0x1 PUSH1 0xA0 SHL SUB DUP4 DUP2 AND SWAP2 DUP3 OR SWAP1 SWAP3 SSTORE PUSH1 0x12 SLOAD PUSH1 0x40 MLOAD SWAP2 SWAP3 AND SWAP1 PUSH32 0xB51454CE8C7F26BECD312A46C4815553887F2EC876A0B8DC813B87F62EDF6F80 SWAP1 PUSH1 0x0 SWAP1 LOG3 POP JUMP JUMPDEST PUSH1 0x0 DUP2 DUP2 MSTORE PUSH1 0x2 PUSH1 0x20 MSTORE PUSH1 0x40 DUP2 KECCAK256 SLOAD PUSH1 0x1 PUSH1 0x1 PUSH1 0xA0 SHL SUB AND PUSH2 0xFBB JUMPI PUSH1 0x40 MLOAD PUSH3 0x461BCD PUSH1 0xE5 SHL DUP2 MSTORE PUSH1 0x20 PUSH1 0x4 DUP3 ADD MSTORE PUSH1 0x8 PUSH1 0x24 DUP3 ADD MSTORE PUSH8 0x2727AFAA27A5A2A7 PUSH1 0xC1 SHL PUSH1 0x44 DUP3 ADD MSTORE PUSH1 0x64 ADD PUSH2 0x77F JUMP JUMPDEST PUSH2 0x672 DUP3 PUSH1 0x80 SHR SWAP1 JUMP JUMPDEST PUSH1 0x0 DUP1 PUSH1 0x40 MLOAD DUP1 PUSH1 0x40 ADD PUSH1 0x40 MSTORE DUP1 PUSH1 0xB DUP2 MSTORE PUSH1 0x20 ADD PUSH11 0x626174636852656C6F636B PUSH1 0xA8 SHL DUP2 MSTORE POP PUSH1 0x0 DUP2 PUSH1 0x40 MLOAD PUSH1 0x20 ADD PUSH2 0xFFF SWAP2 SWAP1 PUSH2 0x329D JUMP JUMPDEST PUSH1 0x40 MLOAD PUSH1 0x20 DUP2 DUP4 SUB SUB DUP2 MSTORE SWAP1 PUSH1 0x40 MSTORE DUP1 MLOAD SWAP1 PUSH1 0x20 ADD KECCAK256 PUSH1 0x0 SHR SWAP1 POP DUP1 PUSH1 0x14 SLOAD SUB PUSH2 0x103B JUMPI PUSH1 0x40 MLOAD PUSH3 0x461BCD PUSH1 0xE5 SHL DUP2 MSTORE PUSH1 0x4 ADD PUSH2 0x77F SWAP1 PUSH2 0x32B9 JUMP JUMPDEST PUSH1 0x14 DUP2 SWAP1 SSTORE PUSH2 0x104A CALLER DUP10 PUSH2 0x1C05 JUMP JUMPDEST SWAP4 POP DUP4 DUP8 GT ISZERO PUSH2 0x109C JUMPI PUSH1 0x40 MLOAD PUSH3 0x461BCD PUSH1 0xE5 SHL DUP2 MSTORE PUSH1 0x20 PUSH1 0x4 DUP3 ADD MSTORE PUSH1 0x1C PUSH1 0x24 DUP3 ADD MSTORE PUSH32 0x494E53554646494349454E545F414D4F554E545F554E4C4F434B454400000000 PUSH1 0x44 DUP3 ADD MSTORE PUSH1 0x64 ADD PUSH2 0x77F JUMP JUMPDEST PUSH2 0x10A7 DUP8 DUP8 DUP8 PUSH2 0x1C91 JUMP JUMPDEST SWAP3 POP PUSH1 0x0 PUSH2 0x10B5 DUP9 DUP7 PUSH2 0x32D9 JUMP JUMPDEST SWAP1 POP DUP1 ISZERO PUSH2 0x10E8 JUMPI PUSH2 0x10E8 PUSH32 0x0 DUP8 DUP4 PUSH2 0x1F2D JUMP JUMPDEST PUSH2 0x10F0 PUSH2 0x1F90 JUMP JUMPDEST POP POP PUSH1 0x0 PUSH1 0x14 SSTORE POP SWAP2 SWAP7 SWAP1 SWAP6 POP SWAP4 POP POP POP POP JUMP JUMPDEST PUSH1 0x60 PUSH1 0x1 DUP1 SLOAD PUSH2 0x687 SWAP1 PUSH2 0x3176 JUMP JUMPDEST CALLER PUSH1 0x1 PUSH1 0x1 PUSH1 0xA0 SHL SUB DUP4 AND SUB PUSH2 0x116B JUMPI PUSH1 0x40 MLOAD PUSH3 0x461BCD PUSH1 0xE5 SHL DUP2 MSTORE PUSH1 0x20 PUSH1 0x4 DUP3 ADD MSTORE PUSH1 0x19 PUSH1 0x24 DUP3 ADD MSTORE PUSH32 0x4552433732313A20617070726F766520746F2063616C6C657200000000000000 PUSH1 0x44 DUP3 ADD MSTORE PUSH1 0x64 ADD PUSH2 0x77F JUMP JUMPDEST CALLER PUSH1 0x0 DUP2 DUP2 MSTORE PUSH1 0x5 PUSH1 0x20 SWAP1 DUP2 MSTORE PUSH1 0x40 DUP1 DUP4 KECCAK256 PUSH1 0x1 PUSH1 0x1 PUSH1 0xA0 SHL SUB DUP8 AND DUP1 DUP6 MSTORE SWAP1 DUP4 MSTORE SWAP3 DUP2 SWAP1 KECCAK256 DUP1 SLOAD PUSH1 0xFF NOT AND DUP7 ISZERO ISZERO SWAP1 DUP2 OR SWAP1 SWAP2 SSTORE SWAP1 MLOAD SWAP1 DUP2 MSTORE SWAP2 SWAP3 SWAP2 PUSH32 0x17307EAB39AB6107E8899845AD3D59BD9653F200F220920489CA2B5937696C31 SWAP2 ADD PUSH1 0x40 MLOAD DUP1 SWAP2 SUB SWAP1 LOG3 POP POP JUMP JUMPDEST PUSH1 0x0 DUP1 PUSH1 0x40 MLOAD DUP1 PUSH1 0x40 ADD PUSH1 0x40 MSTORE DUP1 PUSH1 0x6 DUP2 MSTORE PUSH1 0x20 ADD PUSH6 0x72656C6F636B PUSH1 0xD0 SHL DUP2 MSTORE POP PUSH1 0x0 DUP2 PUSH1 0x40 MLOAD PUSH1 0x20 ADD PUSH2 0x120C SWAP2 SWAP1 PUSH2 0x329D JUMP JUMPDEST PUSH1 0x40 MLOAD PUSH1 0x20 DUP2 DUP4 SUB SUB DUP2 MSTORE SWAP1 PUSH1 0x40 MSTORE DUP1 MLOAD SWAP1 PUSH1 0x20 ADD KECCAK256 PUSH1 0x0 SHR SWAP1 POP DUP1 PUSH1 0x14 SLOAD SUB PUSH2 0x1248 JUMPI PUSH1 0x40 MLOAD PUSH3 0x461BCD PUSH1 0xE5 SHL DUP2 MSTORE PUSH1 0x4 ADD PUSH2 0x77F SWAP1 PUSH2 0x32B9 JUMP JUMPDEST PUSH1 0x14 DUP2 SWAP1 SSTORE PUSH2 0x104A CALLER DUP10 PUSH2 0x2058 JUMP JUMPDEST PUSH1 0x0 PUSH1 0x40 MLOAD DUP1 PUSH1 0x40 ADD PUSH1 0x40 MSTORE DUP1 PUSH1 0xB DUP2 MSTORE PUSH1 0x20 ADD PUSH11 0x6261746368556E6C6F636B PUSH1 0xA8 SHL DUP2 MSTORE POP PUSH1 0x0 DUP2 PUSH1 0x40 MLOAD PUSH1 0x20 ADD PUSH2 0x1290 SWAP2 SWAP1 PUSH2 0x329D JUMP JUMPDEST PUSH1 0x40 MLOAD PUSH1 0x20 DUP2 DUP4 SUB SUB DUP2 MSTORE SWAP1 PUSH1 0x40 MSTORE DUP1 MLOAD SWAP1 PUSH1 0x20 ADD KECCAK256 PUSH1 0x0 SHR SWAP1 POP DUP1 PUSH1 0x14 SLOAD SUB PUSH2 0x12CC JUMPI PUSH1 0x40 MLOAD PUSH3 0x461BCD PUSH1 0xE5 SHL DUP2 MSTORE PUSH1 0x4 ADD PUSH2 0x77F SWAP1 PUSH2 0x32B9 JUMP JUMPDEST PUSH1 0x14 DUP2 SWAP1 SSTORE PUSH2 0x12DB CALLER DUP7 PUSH2 0x1C05 JUMP JUMPDEST SWAP3 POP PUSH2 0x1308 PUSH32 0x0 DUP6 DUP6 PUSH2 0x1F2D JUMP JUMPDEST PUSH2 0x1310 PUSH2 0x1F90 JUMP JUMPDEST POP POP PUSH1 0x0 PUSH1 0x14 SSTORE POP SWAP3 SWAP2 POP POP JUMP JUMPDEST PUSH1 0xE SLOAD DUP1 PUSH2 0x135F JUMPI PUSH1 0x40 MLOAD PUSH3 0x461BCD PUSH1 0xE5 SHL DUP2 MSTORE PUSH1 0x20 PUSH1 0x4 DUP3 ADD MSTORE PUSH1 0xE PUSH1 0x24 DUP3 ADD MSTORE PUSH14 0x4E4F5F554E49545F535550504C59 PUSH1 0x90 SHL PUSH1 0x44 DUP3 ADD MSTORE PUSH1 0x64 ADD PUSH2 0x77F JUMP JUMPDEST PUSH1 0x0 PUSH2 0x1371 PUSH2 0x136C PUSH2 0x1F90 JUMP JUMPDEST PUSH2 0x2212 JUMP JUMPDEST SWAP1 POP DUP1 PUSH2 0x137C JUMPI POP POP JUMP JUMPDEST DUP2 PUSH2 0x138B PUSH1 0x1 PUSH1 0x80 SHL DUP4 PUSH2 0x32F0 JUMP JUMPDEST PUSH2 0x1395 SWAP2 SWAP1 PUSH2 0x3325 JUMP JUMPDEST PUSH1 0xB PUSH1 0x0 DUP3 DUP3 SLOAD PUSH2 0x13A6 SWAP2 SWAP1 PUSH2 0x3269 JUMP JUMPDEST SWAP1 SWAP2 SSTORE POP POP PUSH1 0x40 MLOAD DUP2 DUP2 MSTORE CALLER SWAP1 PUSH32 0x46749F2362413A5F0F53F7F11249E02052D810C56EAD7BEA2544C4A93A0828EE SWAP1 PUSH1 0x20 ADD PUSH1 0x40 MLOAD DUP1 SWAP2 SUB SWAP1 LOG2 POP POP JUMP JUMPDEST PUSH2 0x13EE CALLER DUP4 PUSH2 0x1836 JUMP JUMPDEST PUSH2 0x140A JUMPI PUSH1 0x40 MLOAD PUSH3 0x461BCD PUSH1 0xE5 SHL DUP2 MSTORE PUSH1 0x4 ADD PUSH2 0x77F SWAP1 PUSH2 0x3218 JUMP JUMPDEST PUSH2 0x990 DUP5 DUP5 DUP5 DUP5 PUSH2 0x2228 JUMP JUMPDEST PUSH1 0x0 DUP2 DUP2 MSTORE PUSH1 0x2 PUSH1 0x20 MSTORE PUSH1 0x40 SWAP1 KECCAK256 SLOAD PUSH1 0x60 SWAP1 PUSH1 0x1 PUSH1 0x1 PUSH1 0xA0 SHL SUB AND PUSH2 0x1468 JUMPI PUSH1 0x40 MLOAD PUSH3 0x461BCD PUSH1 0xE5 SHL DUP2 MSTORE PUSH1 0x20 PUSH1 0x4 DUP3 ADD MSTORE PUSH1 0x8 PUSH1 0x24 DUP3 ADD MSTORE PUSH8 0x2727AFAA27A5A2A7 PUSH1 0xC1 SHL PUSH1 0x44 DUP3 ADD MSTORE PUSH1 0x64 ADD PUSH2 0x77F JUMP JUMPDEST PUSH1 0x11 PUSH2 0x1473 DUP4 PUSH2 0x225B JUMP JUMPDEST PUSH1 0x40 MLOAD PUSH1 0x20 ADD PUSH2 0x1484 SWAP3 SWAP2 SWAP1 PUSH2 0x3339 JUMP JUMPDEST PUSH1 0x40 MLOAD PUSH1 0x20 DUP2 DUP4 SUB SUB DUP2 MSTORE SWAP1 PUSH1 0x40 MSTORE SWAP1 POP SWAP2 SWAP1 POP JUMP JUMPDEST PUSH1 0x0 PUSH1 0x40 MLOAD DUP1 PUSH1 0x40 ADD PUSH1 0x40 MSTORE DUP1 PUSH1 0xE DUP2 MSTORE PUSH1 0x20 ADD PUSH14 0x1B1BD8DAD5DA5D1A14195C9B5A5D PUSH1 0x92 SHL DUP2 MSTORE POP PUSH1 0x0 DUP2 PUSH1 0x40 MLOAD PUSH1 0x20 ADD PUSH2 0x14D6 SWAP2 SWAP1 PUSH2 0x329D JUMP JUMPDEST PUSH1 0x40 MLOAD PUSH1 0x20 DUP2 DUP4 SUB SUB DUP2 MSTORE SWAP1 PUSH1 0x40 MSTORE DUP1 MLOAD SWAP1 PUSH1 0x20 ADD KECCAK256 PUSH1 0x0 SHR SWAP1 POP DUP1 PUSH1 0x14 SLOAD SUB PUSH2 0x1512 JUMPI PUSH1 0x40 MLOAD PUSH3 0x461BCD PUSH1 0xE5 SHL DUP2 MSTORE PUSH1 0x4 ADD PUSH2 0x77F SWAP1 PUSH2 0x32B9 JUMP JUMPDEST PUSH1 0x14 DUP2 SWAP1 SSTORE PUSH1 0x40 MLOAD PUSH4 0xD505ACCF PUSH1 0xE0 SHL DUP2 MSTORE CALLER PUSH1 0x4 DUP3 ADD MSTORE ADDRESS PUSH1 0x24 DUP3 ADD MSTORE PUSH1 0x44 DUP2 ADD DUP12 SWAP1 MSTORE PUSH1 0x64 DUP2 ADD DUP9 SWAP1 MSTORE PUSH1 0xFF DUP8 AND PUSH1 0x84 DUP3 ADD MSTORE PUSH1 0xA4 DUP2 ADD DUP7 SWAP1 MSTORE PUSH1 0xC4 DUP2 ADD DUP6 SWAP1 MSTORE PUSH32 0x0 PUSH1 0x1 PUSH1 0x1 PUSH1 0xA0 SHL SUB AND SWAP1 PUSH4 0xD505ACCF SWAP1 PUSH1 0xE4 ADD PUSH1 0x0 PUSH1 0x40 MLOAD DUP1 DUP4 SUB DUP2 PUSH1 0x0 DUP8 DUP1 EXTCODESIZE ISZERO DUP1 ISZERO PUSH2 0x15A3 JUMPI PUSH1 0x0 DUP1 REVERT JUMPDEST POP GAS CALL ISZERO DUP1 ISZERO PUSH2 0x15B7 JUMPI RETURNDATASIZE PUSH1 0x0 DUP1 RETURNDATACOPY RETURNDATASIZE PUSH1 0x0 REVERT JUMPDEST POP POP POP POP PUSH2 0x15E7 PUSH32 0x0 CALLER ADDRESS DUP14 PUSH2 0x235C JUMP JUMPDEST PUSH2 0x15F2 DUP11 DUP11 DUP11 PUSH2 0x1C91 JUMP JUMPDEST PUSH1 0x0 PUSH1 0x14 SSTORE SWAP11 SWAP10 POP POP POP POP POP POP POP POP POP POP JUMP JUMPDEST PUSH1 0x0 DUP2 DUP2 MSTORE PUSH1 0xF PUSH1 0x20 MSTORE PUSH1 0x40 DUP2 KECCAK256 DUP1 SLOAD PUSH1 0x1 DUP3 ADD SLOAD PUSH2 0xBDD SWAP2 PUSH1 0x1 PUSH1 0x1 PUSH1 0x60 SHL SUB DUP2 AND SWAP2 PUSH1 0x1 PUSH1 0x60 SHL SWAP1 SWAP2 DIV PUSH1 0x1 PUSH1 0x1 PUSH1 0x58 SHL SUB AND SWAP1 PUSH2 0x2394 JUMP JUMPDEST PUSH1 0x0 PUSH1 0x40 MLOAD DUP1 PUSH1 0x40 ADD PUSH1 0x40 MSTORE DUP1 PUSH1 0x4 DUP2 MSTORE PUSH1 0x20 ADD PUSH4 0x6C6F636B PUSH1 0xE0 SHL DUP2 MSTORE POP PUSH1 0x0 DUP2 PUSH1 0x40 MLOAD PUSH1 0x20 ADD PUSH2 0x1672 SWAP2 SWAP1 PUSH2 0x329D JUMP JUMPDEST PUSH1 0x40 MLOAD PUSH1 0x20 DUP2 DUP4 SUB SUB DUP2 MSTORE SWAP1 PUSH1 0x40 MSTORE DUP1 MLOAD SWAP1 PUSH1 0x20 ADD KECCAK256 PUSH1 0x0 SHR SWAP1 POP DUP1 PUSH1 0x14 SLOAD SUB PUSH2 0x16AE JUMPI PUSH1 0x40 MLOAD PUSH3 0x461BCD PUSH1 0xE5 SHL DUP2 MSTORE PUSH1 0x4 ADD PUSH2 0x77F SWAP1 PUSH2 0x32B9 JUMP JUMPDEST PUSH1 0x14 DUP2 SWAP1 SSTORE PUSH2 0x16DF PUSH32 0x0 CALLER ADDRESS DUP10 PUSH2 0x235C JUMP JUMPDEST PUSH2 0x16EA DUP7 DUP7 DUP7 PUSH2 0x1C91 JUMP JUMPDEST PUSH1 0x0 PUSH1 0x14 SSTORE SWAP7 SWAP6 POP POP POP POP POP POP JUMP JUMPDEST PUSH1 0x0 PUSH1 0x40 MLOAD DUP1 PUSH1 0x40 ADD PUSH1 0x40 MSTORE DUP1 PUSH1 0x6 DUP2 MSTORE PUSH1 0x20 ADD PUSH6 0x756E6C6F636B PUSH1 0xD0 SHL DUP2 MSTORE POP PUSH1 0x0 DUP2 PUSH1 0x40 MLOAD PUSH1 0x20 ADD PUSH2 0x172D SWAP2 SWAP1 PUSH2 0x329D JUMP JUMPDEST PUSH1 0x40 MLOAD PUSH1 0x20 DUP2 DUP4 SUB SUB DUP2 MSTORE SWAP1 PUSH1 0x40 MSTORE DUP1 MLOAD SWAP1 PUSH1 0x20 ADD KECCAK256 PUSH1 0x0 SHR SWAP1 POP DUP1 PUSH1 0x14 SLOAD SUB PUSH2 0x1769 JUMPI PUSH1 0x40 MLOAD PUSH3 0x461BCD PUSH1 0xE5 SHL DUP2 MSTORE PUSH1 0x4 ADD PUSH2 0x77F SWAP1 PUSH2 0x32B9 JUMP JUMPDEST PUSH1 0x14 DUP2 SWAP1 SSTORE PUSH2 0x12DB CALLER DUP7 PUSH2 0x2058 JUMP JUMPDEST PUSH1 0x0 PUSH1 0x1 PUSH1 0x1 PUSH1 0xE0 SHL SUB NOT DUP3 AND PUSH4 0x80AC58CD PUSH1 0xE0 SHL EQ DUP1 PUSH2 0x17A9 JUMPI POP PUSH1 0x1 PUSH1 0x1 PUSH1 0xE0 SHL SUB NOT DUP3 AND PUSH4 0x5B5E139F PUSH1 0xE0 SHL EQ JUMPDEST DUP1 PUSH2 0x672 JUMPI POP PUSH4 0x1FFC9A7 PUSH1 0xE0 SHL PUSH1 0x1 PUSH1 0x1 PUSH1 0xE0 SHL SUB NOT DUP4 AND EQ PUSH2 0x672 JUMP JUMPDEST PUSH1 0x0 DUP2 DUP2 MSTORE PUSH1 0x4 PUSH1 0x20 MSTORE PUSH1 0x40 SWAP1 KECCAK256 DUP1 SLOAD PUSH1 0x1 PUSH1 0x1 PUSH1 0xA0 SHL SUB NOT AND PUSH1 0x1 PUSH1 0x1 PUSH1 0xA0 SHL SUB DUP5 AND SWAP1 DUP2 OR SWAP1 SWAP2 SSTORE DUP2 SWAP1 PUSH2 0x17FD DUP3 PUSH2 0xD64 JUMP JUMPDEST PUSH1 0x1 PUSH1 0x1 PUSH1 0xA0 SHL SUB AND PUSH32 0x8C5BE1E5EBEC7D5BD14F71427D1E84F3DD0314C0F7B2291E5B200AC8C7C3B925 PUSH1 0x40 MLOAD PUSH1 0x40 MLOAD DUP1 SWAP2 SUB SWAP1 LOG4 POP POP JUMP JUMPDEST PUSH1 0x0 DUP2 DUP2 MSTORE PUSH1 0x2 PUSH1 0x20 MSTORE PUSH1 0x40 DUP2 KECCAK256 SLOAD PUSH1 0x1 PUSH1 0x1 PUSH1 0xA0 SHL SUB AND PUSH2 0x18AF JUMPI PUSH1 0x40 MLOAD PUSH3 0x461BCD PUSH1 0xE5 SHL DUP2 MSTORE PUSH1 0x20 PUSH1 0x4 DUP3 ADD MSTORE PUSH1 0x2C PUSH1 0x24 DUP3 ADD MSTORE PUSH32 0x4552433732313A206F70657261746F7220717565727920666F72206E6F6E6578 PUSH1 0x44 DUP3 ADD MSTORE PUSH12 0x34B9BA32B73A103A37B5B2B7 PUSH1 0xA1 SHL PUSH1 0x64 DUP3 ADD MSTORE PUSH1 0x84 ADD PUSH2 0x77F JUMP JUMPDEST PUSH1 0x0 PUSH2 0x18BA DUP4 PUSH2 0xD64 JUMP JUMPDEST SWAP1 POP DUP1 PUSH1 0x1 PUSH1 0x1 PUSH1 0xA0 SHL SUB AND DUP5 PUSH1 0x1 PUSH1 0x1 PUSH1 0xA0 SHL SUB AND EQ DUP1 PUSH2 0x18F5 JUMPI POP DUP4 PUSH1 0x1 PUSH1 0x1 PUSH1 0xA0 SHL SUB AND PUSH2 0x18EA DUP5 PUSH2 0x70A JUMP JUMPDEST PUSH1 0x1 PUSH1 0x1 PUSH1 0xA0 SHL SUB AND EQ JUMPDEST DUP1 PUSH2 0x1925 JUMPI POP PUSH1 0x1 PUSH1 0x1 PUSH1 0xA0 SHL SUB DUP1 DUP3 AND PUSH1 0x0 SWAP1 DUP2 MSTORE PUSH1 0x5 PUSH1 0x20 SWAP1 DUP2 MSTORE PUSH1 0x40 DUP1 DUP4 KECCAK256 SWAP4 DUP9 AND DUP4 MSTORE SWAP3 SWAP1 MSTORE KECCAK256 SLOAD PUSH1 0xFF AND JUMPDEST SWAP5 SWAP4 POP POP POP POP JUMP JUMPDEST DUP3 PUSH1 0x1 PUSH1 0x1 PUSH1 0xA0 SHL SUB AND PUSH2 0x1940 DUP3 PUSH2 0xD64 JUMP JUMPDEST PUSH1 0x1 PUSH1 0x1 PUSH1 0xA0 SHL SUB AND EQ PUSH2 0x19A8 JUMPI PUSH1 0x40 MLOAD PUSH3 0x461BCD PUSH1 0xE5 SHL DUP2 MSTORE PUSH1 0x20 PUSH1 0x4 DUP3 ADD MSTORE PUSH1 0x29 PUSH1 0x24 DUP3 ADD MSTORE PUSH32 0x4552433732313A207472616E73666572206F6620746F6B656E20746861742069 PUSH1 0x44 DUP3 ADD MSTORE PUSH9 0x39903737BA1037BBB7 PUSH1 0xB9 SHL PUSH1 0x64 DUP3 ADD MSTORE PUSH1 0x84 ADD PUSH2 0x77F JUMP JUMPDEST PUSH1 0x1 PUSH1 0x1 PUSH1 0xA0 SHL SUB DUP3 AND PUSH2 0x1A0A JUMPI PUSH1 0x40 MLOAD PUSH3 0x461BCD PUSH1 0xE5 SHL DUP2 MSTORE PUSH1 0x20 PUSH1 0x4 DUP3 ADD MSTORE PUSH1 0x24 DUP1 DUP3 ADD MSTORE PUSH32 0x4552433732313A207472616E7366657220746F20746865207A65726F20616464 PUSH1 0x44 DUP3 ADD MSTORE PUSH4 0x72657373 PUSH1 0xE0 SHL PUSH1 0x64 DUP3 ADD MSTORE PUSH1 0x84 ADD PUSH2 0x77F JUMP JUMPDEST PUSH2 0x1A15 DUP4 DUP4 DUP4 PUSH2 0x23E1 JUMP JUMPDEST PUSH2 0x1A20 PUSH1 0x0 DUP3 PUSH2 0x17C8 JUMP JUMPDEST PUSH1 0x1 PUSH1 0x1 PUSH1 0xA0 SHL SUB DUP4 AND PUSH1 0x0 SWAP1 DUP2 MSTORE PUSH1 0x3 PUSH1 0x20 MSTORE PUSH1 0x40 DUP2 KECCAK256 DUP1 SLOAD PUSH1 0x1 SWAP3 SWAP1 PUSH2 0x1A49 SWAP1 DUP5 SWAP1 PUSH2 0x32D9 JUMP JUMPDEST SWAP1 SWAP2 SSTORE POP POP PUSH1 0x1 PUSH1 0x1 PUSH1 0xA0 SHL SUB DUP3 AND PUSH1 0x0 SWAP1 DUP2 MSTORE PUSH1 0x3 PUSH1 0x20 MSTORE PUSH1 0x40 DUP2 KECCAK256 DUP1 SLOAD PUSH1 0x1 SWAP3 SWAP1 PUSH2 0x1A77 SWAP1 DUP5 SWAP1 PUSH2 0x3269 JUMP JUMPDEST SWAP1 SWAP2 SSTORE POP POP PUSH1 0x0 DUP2 DUP2 MSTORE PUSH1 0x2 PUSH1 0x20 MSTORE PUSH1 0x40 DUP1 DUP3 KECCAK256 DUP1 SLOAD PUSH1 0x1 PUSH1 0x1 PUSH1 0xA0 SHL SUB NOT AND PUSH1 0x1 PUSH1 0x1 PUSH1 0xA0 SHL SUB DUP7 DUP2 AND SWAP2 DUP3 OR SWAP1 SWAP3 SSTORE SWAP2 MLOAD DUP5 SWAP4 SWAP2 DUP8 AND SWAP2 PUSH32 0xDDF252AD1BE2C89B69C2B068FC378DAA952BA7F163C4A11628F55A4DF523B3EF SWAP2 LOG4 POP POP POP JUMP JUMPDEST PUSH1 0x0 PUSH2 0x1AE3 DUP3 PUSH2 0xD64 JUMP JUMPDEST SWAP1 POP PUSH2 0x1AF1 DUP2 PUSH1 0x0 DUP5 PUSH2 0x23E1 JUMP JUMPDEST PUSH2 0x1AFC PUSH1 0x0 DUP4 PUSH2 0x17C8 JUMP JUMPDEST PUSH1 0x1 PUSH1 0x1 PUSH1 0xA0 SHL SUB DUP2 AND PUSH1 0x0 SWAP1 DUP2 MSTORE PUSH1 0x3 PUSH1 0x20 MSTORE PUSH1 0x40 DUP2 KECCAK256 DUP1 SLOAD PUSH1 0x1 SWAP3 SWAP1 PUSH2 0x1B25 SWAP1 DUP5 SWAP1 PUSH2 0x32D9 JUMP JUMPDEST SWAP1 SWAP2 SSTORE POP POP PUSH1 0x0 DUP3 DUP2 MSTORE PUSH1 0x2 PUSH1 0x20 MSTORE PUSH1 0x40 DUP1 DUP3 KECCAK256 DUP1 SLOAD PUSH1 0x1 PUSH1 0x1 PUSH1 0xA0 SHL SUB NOT AND SWAP1 SSTORE MLOAD DUP4 SWAP2 SWAP1 PUSH1 0x1 PUSH1 0x1 PUSH1 0xA0 SHL SUB DUP5 AND SWAP1 PUSH32 0xDDF252AD1BE2C89B69C2B068FC378DAA952BA7F163C4A11628F55A4DF523B3EF SWAP1 DUP4 SWAP1 LOG4 POP POP JUMP JUMPDEST PUSH1 0x0 PUSH2 0x1B8A PUSH1 0x8 SLOAD SWAP1 JUMP JUMPDEST PUSH2 0x1B95 SWAP1 PUSH1 0x1 PUSH2 0x3269 JUMP JUMPDEST PUSH2 0x672 SWAP1 PUSH16 0xFFFFFFFFFFFFFFFFFFFFFFFFFFFFFFFF AND PUSH1 0x80 DUP5 SWAP1 SHL PUSH2 0x3269 JUMP JUMPDEST PUSH2 0xD60 DUP3 DUP3 PUSH1 0x40 MLOAD DUP1 PUSH1 0x20 ADD PUSH1 0x40 MSTORE DUP1 PUSH1 0x0 DUP2 MSTORE POP PUSH2 0x2499 JUMP JUMPDEST PUSH1 0x0 PUSH2 0x1BFB PUSH32 0x0 DUP4 PUSH2 0x3269 JUMP JUMPDEST PUSH2 0xBDD SWAP1 DUP5 PUSH2 0x32F0 JUMP JUMPDEST DUP1 MLOAD PUSH1 0x0 SWAP1 PUSH1 0x1 DUP2 GT PUSH2 0x1C47 JUMPI PUSH1 0x40 MLOAD PUSH3 0x461BCD PUSH1 0xE5 SHL DUP2 MSTORE PUSH1 0x20 PUSH1 0x4 DUP3 ADD MSTORE PUSH1 0xA PUSH1 0x24 DUP3 ADD MSTORE PUSH10 0x5553455F554E4C4F434B PUSH1 0xB0 SHL PUSH1 0x44 DUP3 ADD MSTORE PUSH1 0x64 ADD PUSH2 0x77F JUMP JUMPDEST PUSH1 0x0 JUMPDEST DUP2 DUP2 LT ISZERO PUSH2 0xB18 JUMPI PUSH2 0x1C75 DUP6 DUP6 DUP4 DUP2 MLOAD DUP2 LT PUSH2 0x1C68 JUMPI PUSH2 0x1C68 PUSH2 0x31D3 JUMP JUMPDEST PUSH1 0x20 MUL PUSH1 0x20 ADD ADD MLOAD PUSH2 0x2058 JUMP JUMPDEST PUSH2 0x1C7F SWAP1 DUP5 PUSH2 0x3269 JUMP JUMPDEST SWAP3 POP PUSH2 0x1C8A DUP2 PUSH2 0x31FF JUMP JUMPDEST SWAP1 POP PUSH2 0x1C4A JUMP JUMPDEST PUSH1 0x0 DUP4 ISZERO DUP1 ISZERO SWAP1 PUSH2 0x1CAD JUMPI POP PUSH1 0xA SLOAD PUSH1 0x1 PUSH1 0x1 PUSH1 0x58 SHL SUB AND DUP5 GT ISZERO JUMPDEST PUSH2 0x1CEA JUMPI PUSH1 0x40 MLOAD PUSH3 0x461BCD PUSH1 0xE5 SHL DUP2 MSTORE PUSH1 0x20 PUSH1 0x4 DUP3 ADD MSTORE PUSH1 0xE PUSH1 0x24 DUP3 ADD MSTORE PUSH14 0x1253959053125117D05353D55395 PUSH1 0x92 SHL PUSH1 0x44 DUP3 ADD MSTORE PUSH1 0x64 ADD PUSH2 0x77F JUMP JUMPDEST PUSH1 0x0 DUP4 DUP2 MSTORE PUSH1 0x10 PUSH1 0x20 MSTORE PUSH1 0x40 SWAP1 KECCAK256 SLOAD PUSH1 0xFF AND DUP1 PUSH2 0x1D3C JUMPI PUSH1 0x40 MLOAD PUSH3 0x461BCD PUSH1 0xE5 SHL DUP2 MSTORE PUSH1 0x20 PUSH1 0x4 DUP3 ADD MSTORE PUSH1 0x10 PUSH1 0x24 DUP3 ADD MSTORE PUSH16 0x24A72B20A624A22FA22AA920AA24A7A7 PUSH1 0x81 SHL PUSH1 0x44 DUP3 ADD MSTORE PUSH1 0x64 ADD PUSH2 0x77F JUMP JUMPDEST PUSH2 0x1D5A DUP4 PUSH2 0x1D52 PUSH2 0x1D4D DUP9 DUP9 PUSH2 0x1BCF JUMP JUMPDEST PUSH2 0x1B7F JUMP JUMPDEST SWAP4 POP DUP4 PUSH2 0x1BB5 JUMP JUMPDEST DUP5 PUSH1 0xD PUSH1 0x0 DUP3 DUP3 SLOAD PUSH2 0x1D6C SWAP2 SWAP1 PUSH2 0x3269 JUMP JUMPDEST SWAP1 SWAP2 SSTORE POP PUSH1 0x0 SWAP1 POP PUSH1 0x64 PUSH2 0x1D83 PUSH1 0xFF DUP5 AND DUP9 PUSH2 0x32F0 JUMP JUMPDEST PUSH2 0x1D8D SWAP2 SWAP1 PUSH2 0x3325 JUMP JUMPDEST SWAP1 POP DUP1 PUSH1 0x1 PUSH1 0x1 PUSH1 0x60 SHL SUB AND PUSH1 0xE PUSH1 0x0 DUP3 DUP3 SLOAD PUSH2 0x1DAA SWAP2 SWAP1 PUSH2 0x3269 JUMP JUMPDEST SWAP1 SWAP2 SSTORE POP POP PUSH1 0x40 DUP1 MLOAD PUSH1 0xC0 DUP2 ADD DUP3 MSTORE PUSH1 0x1 PUSH1 0x1 PUSH1 0x60 SHL SUB DUP4 AND DUP2 MSTORE PUSH1 0x1 PUSH1 0x1 PUSH1 0x58 SHL SUB DUP9 AND PUSH1 0x20 DUP3 ADD MSTORE SWAP1 DUP2 ADD PUSH2 0x1DE1 DUP8 TIMESTAMP PUSH2 0x3269 JUMP JUMPDEST PUSH4 0xFFFFFFFF AND DUP2 MSTORE PUSH1 0x20 ADD TIMESTAMP PUSH4 0xFFFFFFFF AND DUP2 MSTORE PUSH1 0x20 ADD DUP4 PUSH1 0xFF AND DUP2 MSTORE PUSH1 0x20 ADD PUSH2 0x1E20 DUP4 PUSH1 0x1 PUSH1 0x1 PUSH1 0x60 SHL SUB AND PUSH1 0xB SLOAD PUSH2 0x1E1B SWAP2 SWAP1 PUSH2 0x32F0 JUMP JUMPDEST PUSH2 0x24CC JUMP JUMPDEST PUSH2 0x1E29 SWAP1 PUSH2 0x33DF JUMP JUMPDEST SWAP1 MSTORE PUSH1 0x0 DUP5 DUP2 MSTORE PUSH1 0xF PUSH1 0x20 SWAP1 DUP2 MSTORE PUSH1 0x40 SWAP2 DUP3 SWAP1 KECCAK256 DUP4 MLOAD DUP2 SLOAD DUP6 DUP5 ADD MLOAD DUP7 DUP7 ADD MLOAD PUSH1 0x60 DUP9 ADD MLOAD PUSH1 0x80 DUP10 ADD MLOAD PUSH1 0x1 PUSH1 0x1 PUSH1 0x60 SHL SUB SWAP1 SWAP6 AND PUSH1 0x1 PUSH1 0x1 PUSH1 0xB8 SHL SUB NOT SWAP1 SWAP5 AND SWAP4 SWAP1 SWAP4 OR PUSH1 0x1 PUSH1 0x60 SHL PUSH1 0x1 PUSH1 0x1 PUSH1 0x58 SHL SUB SWAP1 SWAP4 AND SWAP3 SWAP1 SWAP3 MUL SWAP2 SWAP1 SWAP2 OR PUSH8 0xFFFFFFFFFFFFFFFF PUSH1 0xB8 SHL NOT AND PUSH1 0x1 PUSH1 0xB8 SHL PUSH4 0xFFFFFFFF SWAP3 DUP4 AND MUL PUSH4 0xFFFFFFFF PUSH1 0xD8 SHL NOT AND OR PUSH1 0x1 PUSH1 0xD8 SHL SWAP2 SWAP1 SWAP3 AND MUL OR PUSH1 0x1 PUSH1 0x1 PUSH1 0xF8 SHL SUB AND PUSH1 0x1 PUSH1 0xF8 SHL PUSH1 0xFF SWAP1 SWAP3 AND SWAP2 SWAP1 SWAP2 MUL OR DUP2 SSTORE PUSH1 0xA0 SWAP1 SWAP4 ADD MLOAD PUSH1 0x1 SWAP1 SWAP4 ADD SWAP3 SWAP1 SWAP3 SSTORE DUP1 MLOAD DUP9 DUP2 MSTORE SWAP2 DUP3 ADD DUP8 SWAP1 MSTORE PUSH1 0x1 PUSH1 0x1 PUSH1 0xA0 SHL SUB DUP7 AND SWAP2 DUP6 SWAP2 PUSH32 0x90CB42F510CE5C0169B63666274740C2E6D975A476C3758664F3795699FC654E SWAP2 ADD PUSH1 0x40 MLOAD DUP1 SWAP2 SUB SWAP1 LOG3 POP POP SWAP4 SWAP3 POP POP POP JUMP JUMPDEST PUSH1 0x40 MLOAD PUSH1 0x1 PUSH1 0x1 PUSH1 0xA0 SHL SUB DUP4 AND PUSH1 0x24 DUP3 ADD MSTORE PUSH1 0x44 DUP2 ADD DUP3 SWAP1 MSTORE PUSH2 0x8B4 SWAP1 DUP5 SWAP1 PUSH4 0xA9059CBB PUSH1 0xE0 SHL SWAP1 PUSH1 0x64 ADD JUMPDEST PUSH1 0x40 DUP1 MLOAD PUSH1 0x1F NOT DUP2 DUP5 SUB ADD DUP2 MSTORE SWAP2 SWAP1 MSTORE PUSH1 0x20 DUP2 ADD DUP1 MLOAD PUSH1 0x1 PUSH1 0x1 PUSH1 0xE0 SHL SUB AND PUSH1 0x1 PUSH1 0x1 PUSH1 0xE0 SHL SUB NOT SWAP1 SWAP4 AND SWAP3 SWAP1 SWAP3 OR SWAP1 SWAP2 MSTORE PUSH2 0x24E3 JUMP JUMPDEST PUSH1 0xC SLOAD PUSH1 0xD SLOAD PUSH1 0x40 MLOAD PUSH4 0x70A08231 PUSH1 0xE0 SHL DUP2 MSTORE ADDRESS PUSH1 0x4 DUP3 ADD MSTORE PUSH1 0x0 SWAP3 SWAP2 DUP4 SWAP2 PUSH32 0x0 PUSH1 0x1 PUSH1 0x1 PUSH1 0xA0 SHL SUB AND SWAP1 PUSH4 0x70A08231 SWAP1 PUSH1 0x24 ADD PUSH1 0x20 PUSH1 0x40 MLOAD DUP1 DUP4 SUB DUP2 DUP7 GAS STATICCALL ISZERO DUP1 ISZERO PUSH2 0x2000 JUMPI RETURNDATASIZE PUSH1 0x0 DUP1 RETURNDATACOPY RETURNDATASIZE PUSH1 0x0 REVERT JUMPDEST POP POP POP POP PUSH1 0x40 MLOAD RETURNDATASIZE PUSH1 0x1F NOT PUSH1 0x1F DUP3 ADD AND DUP3 ADD DUP1 PUSH1 0x40 MSTORE POP DUP2 ADD SWAP1 PUSH2 0x2024 SWAP2 SWAP1 PUSH2 0x33FB JUMP JUMPDEST PUSH2 0x202E SWAP2 SWAP1 PUSH2 0x32D9 JUMP JUMPDEST PUSH1 0xC DUP2 SWAP1 SSTORE SWAP1 POP PUSH2 0x203E DUP3 PUSH2 0x24CC JUMP JUMPDEST PUSH2 0x2047 DUP3 PUSH2 0x24CC JUMP JUMPDEST PUSH2 0x2051 SWAP2 SWAP1 PUSH2 0x3414 JUMP JUMPDEST SWAP3 POP POP POP SWAP1 JUMP JUMPDEST PUSH1 0x0 DUP3 PUSH1 0x1 PUSH1 0x1 PUSH1 0xA0 SHL SUB AND PUSH2 0x206D DUP4 PUSH2 0xD64 JUMP JUMPDEST PUSH1 0x1 PUSH1 0x1 PUSH1 0xA0 SHL SUB AND EQ PUSH2 0x2093 JUMPI PUSH1 0x40 MLOAD PUSH3 0x461BCD PUSH1 0xE5 SHL DUP2 MSTORE PUSH1 0x4 ADD PUSH2 0x77F SWAP1 PUSH2 0x31B0 JUMP JUMPDEST PUSH1 0x0 DUP3 DUP2 MSTORE PUSH1 0xF PUSH1 0x20 MSTORE PUSH1 0x40 SWAP1 KECCAK256 DUP1 SLOAD PUSH1 0x1 PUSH1 0x1 PUSH1 0x60 SHL SUB DUP2 AND SWAP1 PUSH1 0x1 PUSH1 0x60 SHL DUP2 DIV PUSH1 0x1 PUSH1 0x1 PUSH1 0x58 SHL SUB AND SWAP1 PUSH1 0x1 PUSH1 0xB8 SHL SWAP1 DIV PUSH4 0xFFFFFFFF AND DUP1 PUSH2 0x210E JUMPI PUSH1 0x40 MLOAD PUSH3 0x461BCD PUSH1 0xE5 SHL DUP2 MSTORE PUSH1 0x20 PUSH1 0x4 DUP3 ADD MSTORE PUSH1 0x12 PUSH1 0x24 DUP3 ADD MSTORE PUSH18 0x2727AFA627A1A5A2A22FA827A9A4AA24A7A7 PUSH1 0x71 SHL PUSH1 0x44 DUP3 ADD MSTORE PUSH1 0x64 ADD PUSH2 0x77F JUMP JUMPDEST DUP1 PUSH4 0xFFFFFFFF AND TIMESTAMP LT PUSH2 0x2153 JUMPI PUSH1 0x40 MLOAD PUSH3 0x461BCD PUSH1 0xE5 SHL DUP2 MSTORE PUSH1 0x20 PUSH1 0x4 DUP3 ADD MSTORE PUSH1 0xD PUSH1 0x24 DUP3 ADD MSTORE PUSH13 0x43414E4E4F545F554E4C4F434B PUSH1 0x98 SHL PUSH1 0x44 DUP3 ADD MSTORE PUSH1 0x64 ADD PUSH2 0x77F JUMP JUMPDEST PUSH2 0x2162 DUP4 DUP4 DUP7 PUSH1 0x1 ADD SLOAD PUSH2 0x2394 JUMP JUMPDEST SWAP5 POP DUP2 PUSH1 0x1 PUSH1 0x1 PUSH1 0x58 SHL SUB AND PUSH1 0xD PUSH1 0x0 DUP3 DUP3 SLOAD PUSH2 0x217F SWAP2 SWAP1 PUSH2 0x32D9 JUMP JUMPDEST SWAP3 POP POP DUP2 SWAP1 SSTORE POP DUP3 PUSH1 0x1 PUSH1 0x1 PUSH1 0x60 SHL SUB AND PUSH1 0xE PUSH1 0x0 DUP3 DUP3 SLOAD PUSH2 0x21A1 SWAP2 SWAP1 PUSH2 0x32D9 JUMP JUMPDEST SWAP1 SWAP2 SSTORE POP POP PUSH1 0x0 DUP7 DUP2 MSTORE PUSH1 0xF PUSH1 0x20 MSTORE PUSH1 0x40 DUP2 KECCAK256 DUP2 DUP2 SSTORE PUSH1 0x1 ADD SSTORE PUSH2 0x21C4 DUP7 PUSH2 0x1AD8 JUMP JUMPDEST DUP7 PUSH1 0x1 PUSH1 0x1 PUSH1 0xA0 SHL SUB AND DUP7 PUSH32 0xACE2274EFDCECC9282116630E8CB1C7F6156CA3CB8F3FDE20C4C3D3FE6467042 DUP8 PUSH1 0x40 MLOAD PUSH2 0x2200 SWAP2 DUP2 MSTORE PUSH1 0x20 ADD SWAP1 JUMP JUMPDEST PUSH1 0x40 MLOAD DUP1 SWAP2 SUB SWAP1 LOG3 POP POP POP POP SWAP3 SWAP2 POP POP JUMP JUMPDEST PUSH1 0x0 DUP1 DUP3 SLT ISZERO PUSH2 0x2224 JUMPI PUSH2 0x2224 PUSH2 0x3453 JUMP JUMPDEST POP SWAP1 JUMP JUMPDEST PUSH2 0x2233 DUP5 DUP5 DUP5 PUSH2 0x192D JUMP JUMPDEST PUSH2 0x223F DUP5 DUP5 DUP5 DUP5 PUSH2 0x25B5 JUMP JUMPDEST PUSH2 0x990 JUMPI PUSH1 0x40 MLOAD PUSH3 0x461BCD PUSH1 0xE5 SHL DUP2 MSTORE PUSH1 0x4 ADD PUSH2 0x77F SWAP1 PUSH2 0x3469 JUMP JUMPDEST PUSH1 0x60 DUP2 PUSH1 0x0 SUB PUSH2 0x2282 JUMPI POP POP PUSH1 0x40 DUP1 MLOAD DUP1 DUP3 ADD SWAP1 SWAP2 MSTORE PUSH1 0x1 DUP2 MSTORE PUSH1 0x3 PUSH1 0xFC SHL PUSH1 0x20 DUP3 ADD MSTORE SWAP1 JUMP JUMPDEST DUP2 PUSH1 0x0 JUMPDEST DUP2 ISZERO PUSH2 0x22AC JUMPI DUP1 PUSH2 0x2296 DUP2 PUSH2 0x31FF JUMP JUMPDEST SWAP2 POP PUSH2 0x22A5 SWAP1 POP PUSH1 0xA DUP4 PUSH2 0x3325 JUMP JUMPDEST SWAP2 POP PUSH2 0x2286 JUMP JUMPDEST PUSH1 0x0 DUP2 PUSH8 0xFFFFFFFFFFFFFFFF DUP2 GT ISZERO PUSH2 0x22C7 JUMPI PUSH2 0x22C7 PUSH2 0x2C2A JUMP JUMPDEST PUSH1 0x40 MLOAD SWAP1 DUP1 DUP3 MSTORE DUP1 PUSH1 0x1F ADD PUSH1 0x1F NOT AND PUSH1 0x20 ADD DUP3 ADD PUSH1 0x40 MSTORE DUP1 ISZERO PUSH2 0x22F1 JUMPI PUSH1 0x20 DUP3 ADD DUP2 DUP1 CALLDATASIZE DUP4 CALLDATACOPY ADD SWAP1 POP JUMPDEST POP SWAP1 POP JUMPDEST DUP5 ISZERO PUSH2 0x1925 JUMPI PUSH2 0x2306 PUSH1 0x1 DUP4 PUSH2 0x32D9 JUMP JUMPDEST SWAP2 POP PUSH2 0x2313 PUSH1 0xA DUP7 PUSH2 0x34BB JUMP JUMPDEST PUSH2 0x231E SWAP1 PUSH1 0x30 PUSH2 0x3269 JUMP JUMPDEST PUSH1 0xF8 SHL DUP2 DUP4 DUP2 MLOAD DUP2 LT PUSH2 0x2333 JUMPI PUSH2 0x2333 PUSH2 0x31D3 JUMP JUMPDEST PUSH1 0x20 ADD ADD SWAP1 PUSH1 0x1 PUSH1 0x1 PUSH1 0xF8 SHL SUB NOT AND SWAP1 DUP2 PUSH1 0x0 BYTE SWAP1 MSTORE8 POP PUSH2 0x2355 PUSH1 0xA DUP7 PUSH2 0x3325 JUMP JUMPDEST SWAP5 POP PUSH2 0x22F5 JUMP JUMPDEST PUSH1 0x40 MLOAD PUSH1 0x1 PUSH1 0x1 PUSH1 0xA0 SHL SUB DUP1 DUP6 AND PUSH1 0x24 DUP4 ADD MSTORE DUP4 AND PUSH1 0x44 DUP3 ADD MSTORE PUSH1 0x64 DUP2 ADD DUP3 SWAP1 MSTORE PUSH2 0x990 SWAP1 DUP6 SWAP1 PUSH4 0x23B872DD PUSH1 0xE0 SHL SWAP1 PUSH1 0x84 ADD PUSH2 0x1F59 JUMP JUMPDEST PUSH1 0x0 DUP3 PUSH1 0x1 PUSH1 0x1 PUSH1 0x58 SHL SUB AND PUSH1 0x1 PUSH1 0x80 SHL PUSH2 0x23CD DUP5 PUSH2 0x23C3 DUP9 PUSH1 0x1 PUSH1 0x1 PUSH1 0x60 SHL SUB AND PUSH1 0xB SLOAD PUSH2 0x1E1B SWAP2 SWAP1 PUSH2 0x32F0 JUMP JUMPDEST PUSH2 0x136C SWAP2 SWAP1 PUSH2 0x34CF JUMP JUMPDEST PUSH2 0x23D7 SWAP2 SWAP1 PUSH2 0x3325 JUMP JUMPDEST PUSH2 0x1925 SWAP2 SWAP1 PUSH2 0x3269 JUMP JUMPDEST PUSH1 0x1 PUSH1 0x1 PUSH1 0xA0 SHL SUB DUP4 AND PUSH2 0x243C JUMPI PUSH2 0x2437 DUP2 PUSH1 0x8 DUP1 SLOAD PUSH1 0x0 DUP4 DUP2 MSTORE PUSH1 0x9 PUSH1 0x20 MSTORE PUSH1 0x40 DUP2 KECCAK256 DUP3 SWAP1 SSTORE PUSH1 0x1 DUP3 ADD DUP4 SSTORE SWAP2 SWAP1 SWAP2 MSTORE PUSH32 0xF3F7A9FE364FAAB93B216DA50A3214154F22A0A2B415B23A84C8169E8B636EE3 ADD SSTORE JUMP JUMPDEST PUSH2 0x245F JUMP JUMPDEST DUP2 PUSH1 0x1 PUSH1 0x1 PUSH1 0xA0 SHL SUB AND DUP4 PUSH1 0x1 PUSH1 0x1 PUSH1 0xA0 SHL SUB AND EQ PUSH2 0x245F JUMPI PUSH2 0x245F DUP4 DUP3 PUSH2 0x26B6 JUMP JUMPDEST PUSH1 0x1 PUSH1 0x1 PUSH1 0xA0 SHL SUB DUP3 AND PUSH2 0x2476 JUMPI PUSH2 0x8B4 DUP2 PUSH2 0x2753 JUMP JUMPDEST DUP3 PUSH1 0x1 PUSH1 0x1 PUSH1 0xA0 SHL SUB AND DUP3 PUSH1 0x1 PUSH1 0x1 PUSH1 0xA0 SHL SUB AND EQ PUSH2 0x8B4 JUMPI PUSH2 0x8B4 DUP3 DUP3 PUSH2 0x2802 JUMP JUMPDEST PUSH2 0x24A3 DUP4 DUP4 PUSH2 0x2846 JUMP JUMPDEST PUSH2 0x24B0 PUSH1 0x0 DUP5 DUP5 DUP5 PUSH2 0x25B5 JUMP JUMPDEST PUSH2 0x8B4 JUMPI PUSH1 0x40 MLOAD PUSH3 0x461BCD PUSH1 0xE5 SHL DUP2 MSTORE PUSH1 0x4 ADD PUSH2 0x77F SWAP1 PUSH2 0x3469 JUMP JUMPDEST DUP1 PUSH1 0x0 DUP2 SLT ISZERO PUSH2 0x24DE JUMPI PUSH2 0x24DE PUSH2 0x3453 JUMP JUMPDEST SWAP2 SWAP1 POP JUMP JUMPDEST PUSH1 0x0 PUSH2 0x2538 DUP3 PUSH1 0x40 MLOAD DUP1 PUSH1 0x40 ADD PUSH1 0x40 MSTORE DUP1 PUSH1 0x20 DUP2 MSTORE PUSH1 0x20 ADD PUSH32 0x5361666545524332303A206C6F772D6C6576656C2063616C6C206661696C6564 DUP2 MSTORE POP DUP6 PUSH1 0x1 PUSH1 0x1 PUSH1 0xA0 SHL SUB AND PUSH2 0x2994 SWAP1 SWAP3 SWAP2 SWAP1 PUSH4 0xFFFFFFFF AND JUMP JUMPDEST DUP1 MLOAD SWAP1 SWAP2 POP ISZERO PUSH2 0x8B4 JUMPI DUP1 DUP1 PUSH1 0x20 ADD SWAP1 MLOAD DUP2 ADD SWAP1 PUSH2 0x2556 SWAP2 SWAP1 PUSH2 0x3510 JUMP JUMPDEST PUSH2 0x8B4 JUMPI PUSH1 0x40 MLOAD PUSH3 0x461BCD PUSH1 0xE5 SHL DUP2 MSTORE PUSH1 0x20 PUSH1 0x4 DUP3 ADD MSTORE PUSH1 0x2A PUSH1 0x24 DUP3 ADD MSTORE PUSH32 0x5361666545524332303A204552433230206F7065726174696F6E20646964206E PUSH1 0x44 DUP3 ADD MSTORE PUSH10 0x1BDD081CDD58D8D95959 PUSH1 0xB2 SHL PUSH1 0x64 DUP3 ADD MSTORE PUSH1 0x84 ADD PUSH2 0x77F JUMP JUMPDEST PUSH1 0x0 PUSH1 0x1 PUSH1 0x1 PUSH1 0xA0 SHL SUB DUP5 AND EXTCODESIZE ISZERO PUSH2 0x26AB JUMPI PUSH1 0x40 MLOAD PUSH4 0xA85BD01 PUSH1 0xE1 SHL DUP2 MSTORE PUSH1 0x1 PUSH1 0x1 PUSH1 0xA0 SHL SUB DUP6 AND SWAP1 PUSH4 0x150B7A02 SWAP1 PUSH2 0x25F9 SWAP1 CALLER SWAP1 DUP10 SWAP1 DUP9 SWAP1 DUP9 SWAP1 PUSH1 0x4 ADD PUSH2 0x352D JUMP JUMPDEST PUSH1 0x20 PUSH1 0x40 MLOAD DUP1 DUP4 SUB DUP2 PUSH1 0x0 DUP8 GAS CALL SWAP3 POP POP POP DUP1 ISZERO PUSH2 0x2634 JUMPI POP PUSH1 0x40 DUP1 MLOAD PUSH1 0x1F RETURNDATASIZE SWAP1 DUP2 ADD PUSH1 0x1F NOT AND DUP3 ADD SWAP1 SWAP3 MSTORE PUSH2 0x2631 SWAP2 DUP2 ADD SWAP1 PUSH2 0x356A JUMP JUMPDEST PUSH1 0x1 JUMPDEST PUSH2 0x2691 JUMPI RETURNDATASIZE DUP1 DUP1 ISZERO PUSH2 0x2662 JUMPI PUSH1 0x40 MLOAD SWAP2 POP PUSH1 0x1F NOT PUSH1 0x3F RETURNDATASIZE ADD AND DUP3 ADD PUSH1 0x40 MSTORE RETURNDATASIZE DUP3 MSTORE RETURNDATASIZE PUSH1 0x0 PUSH1 0x20 DUP5 ADD RETURNDATACOPY PUSH2 0x2667 JUMP JUMPDEST PUSH1 0x60 SWAP2 POP JUMPDEST POP DUP1 MLOAD PUSH1 0x0 SUB PUSH2 0x2689 JUMPI PUSH1 0x40 MLOAD PUSH3 0x461BCD PUSH1 0xE5 SHL DUP2 MSTORE PUSH1 0x4 ADD PUSH2 0x77F SWAP1 PUSH2 0x3469 JUMP JUMPDEST DUP1 MLOAD DUP2 PUSH1 0x20 ADD REVERT JUMPDEST PUSH1 0x1 PUSH1 0x1 PUSH1 0xE0 SHL SUB NOT AND PUSH4 0xA85BD01 PUSH1 0xE1 SHL EQ SWAP1 POP PUSH2 0x1925 JUMP JUMPDEST POP PUSH1 0x1 SWAP5 SWAP4 POP POP POP POP JUMP JUMPDEST PUSH1 0x0 PUSH1 0x1 PUSH2 0x26C3 DUP5 PUSH2 0xE69 JUMP JUMPDEST PUSH2 0x26CD SWAP2 SWAP1 PUSH2 0x32D9 JUMP JUMPDEST PUSH1 0x0 DUP4 DUP2 MSTORE PUSH1 0x7 PUSH1 0x20 MSTORE PUSH1 0x40 SWAP1 KECCAK256 SLOAD SWAP1 SWAP2 POP DUP1 DUP3 EQ PUSH2 0x2720 JUMPI PUSH1 0x1 PUSH1 0x1 PUSH1 0xA0 SHL SUB DUP5 AND PUSH1 0x0 SWAP1 DUP2 MSTORE PUSH1 0x6 PUSH1 0x20 SWAP1 DUP2 MSTORE PUSH1 0x40 DUP1 DUP4 KECCAK256 DUP6 DUP5 MSTORE DUP3 MSTORE DUP1 DUP4 KECCAK256 SLOAD DUP5 DUP5 MSTORE DUP2 DUP5 KECCAK256 DUP2 SWAP1 SSTORE DUP4 MSTORE PUSH1 0x7 SWAP1 SWAP2 MSTORE SWAP1 KECCAK256 DUP2 SWAP1 SSTORE JUMPDEST POP PUSH1 0x0 SWAP2 DUP3 MSTORE PUSH1 0x7 PUSH1 0x20 SWAP1 DUP2 MSTORE PUSH1 0x40 DUP1 DUP5 KECCAK256 DUP5 SWAP1 SSTORE PUSH1 0x1 PUSH1 0x1 PUSH1 0xA0 SHL SUB SWAP1 SWAP5 AND DUP4 MSTORE PUSH1 0x6 DUP2 MSTORE DUP4 DUP4 KECCAK256 SWAP2 DUP4 MSTORE MSTORE SWAP1 DUP2 KECCAK256 SSTORE JUMP JUMPDEST PUSH1 0x8 SLOAD PUSH1 0x0 SWAP1 PUSH2 0x2765 SWAP1 PUSH1 0x1 SWAP1 PUSH2 0x32D9 JUMP JUMPDEST PUSH1 0x0 DUP4 DUP2 MSTORE PUSH1 0x9 PUSH1 0x20 MSTORE PUSH1 0x40 DUP2 KECCAK256 SLOAD PUSH1 0x8 DUP1 SLOAD SWAP4 SWAP5 POP SWAP1 SWAP3 DUP5 SWAP1 DUP2 LT PUSH2 0x278D JUMPI PUSH2 0x278D PUSH2 0x31D3 JUMP JUMPDEST SWAP1 PUSH1 0x0 MSTORE PUSH1 0x20 PUSH1 0x0 KECCAK256 ADD SLOAD SWAP1 POP DUP1 PUSH1 0x8 DUP4 DUP2 SLOAD DUP2 LT PUSH2 0x27AE JUMPI PUSH2 0x27AE PUSH2 0x31D3 JUMP JUMPDEST PUSH1 0x0 SWAP2 DUP3 MSTORE PUSH1 0x20 DUP1 DUP4 KECCAK256 SWAP1 SWAP2 ADD SWAP3 SWAP1 SWAP3 SSTORE DUP3 DUP2 MSTORE PUSH1 0x9 SWAP1 SWAP2 MSTORE PUSH1 0x40 DUP1 DUP3 KECCAK256 DUP5 SWAP1 SSTORE DUP6 DUP3 MSTORE DUP2 KECCAK256 SSTORE PUSH1 0x8 DUP1 SLOAD DUP1 PUSH2 0x27E6 JUMPI PUSH2 0x27E6 PUSH2 0x3587 JUMP JUMPDEST PUSH1 0x1 SWAP1 SUB DUP2 DUP2 SWAP1 PUSH1 0x0 MSTORE PUSH1 0x20 PUSH1 0x0 KECCAK256 ADD PUSH1 0x0 SWAP1 SSTORE SWAP1 SSTORE POP POP POP POP JUMP JUMPDEST PUSH1 0x0 PUSH2 0x280D DUP4 PUSH2 0xE69 JUMP JUMPDEST PUSH1 0x1 PUSH1 0x1 PUSH1 0xA0 SHL SUB SWAP1 SWAP4 AND PUSH1 0x0 SWAP1 DUP2 MSTORE PUSH1 0x6 PUSH1 0x20 SWAP1 DUP2 MSTORE PUSH1 0x40 DUP1 DUP4 KECCAK256 DUP7 DUP5 MSTORE DUP3 MSTORE DUP1 DUP4 KECCAK256 DUP6 SWAP1 SSTORE SWAP4 DUP3 MSTORE PUSH1 0x7 SWAP1 MSTORE SWAP2 SWAP1 SWAP2 KECCAK256 SWAP2 SWAP1 SWAP2 SSTORE POP JUMP JUMPDEST PUSH1 0x1 PUSH1 0x1 PUSH1 0xA0 SHL SUB DUP3 AND PUSH2 0x289C JUMPI PUSH1 0x40 MLOAD PUSH3 0x461BCD PUSH1 0xE5 SHL DUP2 MSTORE PUSH1 0x20 PUSH1 0x4 DUP3 ADD DUP2 SWAP1 MSTORE PUSH1 0x24 DUP3 ADD MSTORE PUSH32 0x4552433732313A206D696E7420746F20746865207A65726F2061646472657373 PUSH1 0x44 DUP3 ADD MSTORE PUSH1 0x64 ADD PUSH2 0x77F JUMP JUMPDEST PUSH1 0x0 DUP2 DUP2 MSTORE PUSH1 0x2 PUSH1 0x20 MSTORE PUSH1 0x40 SWAP1 KECCAK256 SLOAD PUSH1 0x1 PUSH1 0x1 PUSH1 0xA0 SHL SUB AND ISZERO PUSH2 0x2901 JUMPI PUSH1 0x40 MLOAD PUSH3 0x461BCD PUSH1 0xE5 SHL DUP2 MSTORE PUSH1 0x20 PUSH1 0x4 DUP3 ADD MSTORE PUSH1 0x1C PUSH1 0x24 DUP3 ADD MSTORE PUSH32 0x4552433732313A20746F6B656E20616C7265616479206D696E74656400000000 PUSH1 0x44 DUP3 ADD MSTORE PUSH1 0x64 ADD PUSH2 0x77F JUMP JUMPDEST PUSH2 0x290D PUSH1 0x0 DUP4 DUP4 PUSH2 0x23E1 JUMP JUMPDEST PUSH1 0x1 PUSH1 0x1 PUSH1 0xA0 SHL SUB DUP3 AND PUSH1 0x0 SWAP1 DUP2 MSTORE PUSH1 0x3 PUSH1 0x20 MSTORE PUSH1 0x40 DUP2 KECCAK256 DUP1 SLOAD PUSH1 0x1 SWAP3 SWAP1 PUSH2 0x2936 SWAP1 DUP5 SWAP1 PUSH2 0x3269 JUMP JUMPDEST SWAP1 SWAP2 SSTORE POP POP PUSH1 0x0 DUP2 DUP2 MSTORE PUSH1 0x2 PUSH1 0x20 MSTORE PUSH1 0x40 DUP1 DUP3 KECCAK256 DUP1 SLOAD PUSH1 0x1 PUSH1 0x1 PUSH1 0xA0 SHL SUB NOT AND PUSH1 0x1 PUSH1 0x1 PUSH1 0xA0 SHL SUB DUP7 AND SWAP1 DUP2 OR SWAP1 SWAP2 SSTORE SWAP1 MLOAD DUP4 SWAP3 SWAP1 PUSH32 0xDDF252AD1BE2C89B69C2B068FC378DAA952BA7F163C4A11628F55A4DF523B3EF SWAP1 DUP3 SWAP1 LOG4 POP POP JUMP JUMPDEST PUSH1 0x60 PUSH2 0x1925 DUP5 DUP5 PUSH1 0x0 DUP6 DUP6 DUP5 EXTCODESIZE PUSH2 0x29ED JUMPI PUSH1 0x40 MLOAD PUSH3 0x461BCD PUSH1 0xE5 SHL DUP2 MSTORE PUSH1 0x20 PUSH1 0x4 DUP3 ADD MSTORE PUSH1 0x1D PUSH1 0x24 DUP3 ADD MSTORE PUSH32 0x416464726573733A2063616C6C20746F206E6F6E2D636F6E7472616374000000 PUSH1 0x44 DUP3 ADD MSTORE PUSH1 0x64 ADD PUSH2 0x77F JUMP JUMPDEST PUSH1 0x0 DUP1 DUP7 PUSH1 0x1 PUSH1 0x1 PUSH1 0xA0 SHL SUB AND DUP6 DUP8 PUSH1 0x40 MLOAD PUSH2 0x2A09 SWAP2 SWAP1 PUSH2 0x329D JUMP JUMPDEST PUSH1 0x0 PUSH1 0x40 MLOAD DUP1 DUP4 SUB DUP2 DUP6 DUP8 GAS CALL SWAP3 POP POP POP RETURNDATASIZE DUP1 PUSH1 0x0 DUP2 EQ PUSH2 0x2A46 JUMPI PUSH1 0x40 MLOAD SWAP2 POP PUSH1 0x1F NOT PUSH1 0x3F RETURNDATASIZE ADD AND DUP3 ADD PUSH1 0x40 MSTORE RETURNDATASIZE DUP3 MSTORE RETURNDATASIZE PUSH1 0x0 PUSH1 0x20 DUP5 ADD RETURNDATACOPY PUSH2 0x2A4B JUMP JUMPDEST PUSH1 0x60 SWAP2 POP JUMPDEST POP SWAP2 POP SWAP2 POP PUSH2 0x2A5B DUP3 DUP3 DUP7 PUSH2 0x2A66 JUMP JUMPDEST SWAP8 SWAP7 POP POP POP POP POP POP POP JUMP JUMPDEST PUSH1 0x60 DUP4 ISZERO PUSH2 0x2A75 JUMPI POP DUP2 PUSH2 0xBDD JUMP JUMPDEST DUP3 MLOAD ISZERO PUSH2 0x2A85 JUMPI DUP3 MLOAD DUP1 DUP5 PUSH1 0x20 ADD REVERT JUMPDEST DUP2 PUSH1 0x40 MLOAD PUSH3 0x461BCD PUSH1 0xE5 SHL DUP2 MSTORE PUSH1 0x4 ADD PUSH2 0x77F SWAP2 SWAP1 PUSH2 0x2BBD JUMP JUMPDEST DUP3 DUP1 SLOAD PUSH2 0x2AAB SWAP1 PUSH2 0x3176 JUMP JUMPDEST SWAP1 PUSH1 0x0 MSTORE PUSH1 0x20 PUSH1 0x0 KECCAK256 SWAP1 PUSH1 0x1F ADD PUSH1 0x20 SWAP1 DIV DUP2 ADD SWAP3 DUP3 PUSH2 0x2ACD JUMPI PUSH1 0x0 DUP6 SSTORE PUSH2 0x2B13 JUMP JUMPDEST DUP3 PUSH1 0x1F LT PUSH2 0x2AE6 JUMPI DUP1 MLOAD PUSH1 0xFF NOT AND DUP4 DUP1 ADD OR DUP6 SSTORE PUSH2 0x2B13 JUMP JUMPDEST DUP3 DUP1 ADD PUSH1 0x1 ADD DUP6 SSTORE DUP3 ISZERO PUSH2 0x2B13 JUMPI SWAP2 DUP3 ADD JUMPDEST DUP3 DUP2 GT ISZERO PUSH2 0x2B13 JUMPI DUP3 MLOAD DUP3 SSTORE SWAP2 PUSH1 0x20 ADD SWAP2 SWAP1 PUSH1 0x1 ADD SWAP1 PUSH2 0x2AF8 JUMP JUMPDEST POP PUSH2 0x2224 SWAP3 SWAP2 POP JUMPDEST DUP1 DUP3 GT ISZERO PUSH2 0x2224 JUMPI PUSH1 0x0 DUP2 SSTORE PUSH1 0x1 ADD PUSH2 0x2B1B JUMP JUMPDEST PUSH1 0x1 PUSH1 0x1 PUSH1 0xE0 SHL SUB NOT DUP2 AND DUP2 EQ PUSH2 0x2B45 JUMPI PUSH1 0x0 DUP1 REVERT JUMPDEST POP JUMP JUMPDEST PUSH1 0x0 PUSH1 0x20 DUP3 DUP5 SUB SLT ISZERO PUSH2 0x2B5A JUMPI PUSH1 0x0 DUP1 REVERT JUMPDEST DUP2 CALLDATALOAD PUSH2 0xBDD DUP2 PUSH2 0x2B2F JUMP JUMPDEST PUSH1 0x0 JUMPDEST DUP4 DUP2 LT ISZERO PUSH2 0x2B80 JUMPI DUP2 DUP2 ADD MLOAD DUP4 DUP3 ADD MSTORE PUSH1 0x20 ADD PUSH2 0x2B68 JUMP JUMPDEST DUP4 DUP2 GT ISZERO PUSH2 0x990 JUMPI POP POP PUSH1 0x0 SWAP2 ADD MSTORE JUMP JUMPDEST PUSH1 0x0 DUP2 MLOAD DUP1 DUP5 MSTORE PUSH2 0x2BA9 DUP2 PUSH1 0x20 DUP7 ADD PUSH1 0x20 DUP7 ADD PUSH2 0x2B65 JUMP JUMPDEST PUSH1 0x1F ADD PUSH1 0x1F NOT AND SWAP3 SWAP1 SWAP3 ADD PUSH1 0x20 ADD SWAP3 SWAP2 POP POP JUMP JUMPDEST PUSH1 0x20 DUP2 MSTORE PUSH1 0x0 PUSH2 0xBDD PUSH1 0x20 DUP4 ADD DUP5 PUSH2 0x2B91 JUMP JUMPDEST PUSH1 0x0 PUSH1 0x20 DUP3 DUP5 SUB SLT ISZERO PUSH2 0x2BE2 JUMPI PUSH1 0x0 DUP1 REVERT JUMPDEST POP CALLDATALOAD SWAP2 SWAP1 POP JUMP JUMPDEST DUP1 CALLDATALOAD PUSH1 0x1 PUSH1 0x1 PUSH1 0xA0 SHL SUB DUP2 AND DUP2 EQ PUSH2 0x24DE JUMPI PUSH1 0x0 DUP1 REVERT JUMPDEST PUSH1 0x0 DUP1 PUSH1 0x40 DUP4 DUP6 SUB SLT ISZERO PUSH2 0x2C13 JUMPI PUSH1 0x0 DUP1 REVERT JUMPDEST PUSH2 0x2C1C DUP4 PUSH2 0x2BE9 JUMP JUMPDEST SWAP5 PUSH1 0x20 SWAP4 SWAP1 SWAP4 ADD CALLDATALOAD SWAP4 POP POP POP JUMP JUMPDEST PUSH4 0x4E487B71 PUSH1 0xE0 SHL PUSH1 0x0 MSTORE PUSH1 0x41 PUSH1 0x4 MSTORE PUSH1 0x24 PUSH1 0x0 REVERT JUMPDEST PUSH1 0x40 MLOAD PUSH1 0x1F DUP3 ADD PUSH1 0x1F NOT AND DUP2 ADD PUSH8 0xFFFFFFFFFFFFFFFF DUP2 GT DUP3 DUP3 LT OR ISZERO PUSH2 0x2C69 JUMPI PUSH2 0x2C69 PUSH2 0x2C2A JUMP JUMPDEST PUSH1 0x40 MSTORE SWAP2 SWAP1 POP JUMP JUMPDEST PUSH1 0x0 PUSH8 0xFFFFFFFFFFFFFFFF DUP3 GT ISZERO PUSH2 0x2C8B JUMPI PUSH2 0x2C8B PUSH2 0x2C2A JUMP JUMPDEST POP PUSH1 0x5 SHL PUSH1 0x20 ADD SWAP1 JUMP JUMPDEST PUSH1 0x0 DUP3 PUSH1 0x1F DUP4 ADD SLT PUSH2 0x2CA6 JUMPI PUSH1 0x0 DUP1 REVERT JUMPDEST DUP2 CALLDATALOAD PUSH1 0x20 PUSH2 0x2CBB PUSH2 0x2CB6 DUP4 PUSH2 0x2C71 JUMP JUMPDEST PUSH2 0x2C40 JUMP JUMPDEST DUP3 DUP2 MSTORE PUSH1 0x5 SWAP3 SWAP1 SWAP3 SHL DUP5 ADD DUP2 ADD SWAP2 DUP2 DUP2 ADD SWAP1 DUP7 DUP5 GT ISZERO PUSH2 0x2CDA JUMPI PUSH1 0x0 DUP1 REVERT JUMPDEST DUP3 DUP7 ADD JUMPDEST DUP5 DUP2 LT ISZERO PUSH2 0x2CF5 JUMPI DUP1 CALLDATALOAD DUP4 MSTORE SWAP2 DUP4 ADD SWAP2 DUP4 ADD PUSH2 0x2CDE JUMP JUMPDEST POP SWAP7 SWAP6 POP POP POP POP POP POP JUMP JUMPDEST DUP1 CALLDATALOAD PUSH1 0xFF DUP2 AND DUP2 EQ PUSH2 0x24DE JUMPI PUSH1 0x0 DUP1 REVERT JUMPDEST PUSH1 0x0 DUP1 PUSH1 0x40 DUP4 DUP6 SUB SLT ISZERO PUSH2 0x2D24 JUMPI PUSH1 0x0 DUP1 REVERT JUMPDEST DUP3 CALLDATALOAD PUSH8 0xFFFFFFFFFFFFFFFF DUP1 DUP3 GT ISZERO PUSH2 0x2D3C JUMPI PUSH1 0x0 DUP1 REVERT JUMPDEST PUSH2 0x2D48 DUP7 DUP4 DUP8 ADD PUSH2 0x2C95 JUMP JUMPDEST SWAP4 POP PUSH1 0x20 SWAP2 POP DUP2 DUP6 ADD CALLDATALOAD DUP2 DUP2 GT ISZERO PUSH2 0x2D5F JUMPI PUSH1 0x0 DUP1 REVERT JUMPDEST DUP6 ADD SWAP1 POP PUSH1 0x1F DUP2 ADD DUP7 SGT PUSH2 0x2D72 JUMPI PUSH1 0x0 DUP1 REVERT JUMPDEST DUP1 CALLDATALOAD PUSH2 0x2D80 PUSH2 0x2CB6 DUP3 PUSH2 0x2C71 JUMP JUMPDEST DUP2 DUP2 MSTORE PUSH1 0x5 SWAP2 SWAP1 SWAP2 SHL DUP3 ADD DUP4 ADD SWAP1 DUP4 DUP2 ADD SWAP1 DUP9 DUP4 GT ISZERO PUSH2 0x2D9F JUMPI PUSH1 0x0 DUP1 REVERT JUMPDEST SWAP3 DUP5 ADD SWAP3 JUMPDEST DUP3 DUP5 LT ISZERO PUSH2 0x2DC4 JUMPI PUSH2 0x2DB5 DUP5 PUSH2 0x2D00 JUMP JUMPDEST DUP3 MSTORE SWAP3 DUP5 ADD SWAP3 SWAP1 DUP5 ADD SWAP1 PUSH2 0x2DA4 JUMP JUMPDEST DUP1 SWAP6 POP POP POP POP POP POP SWAP3 POP SWAP3 SWAP1 POP JUMP JUMPDEST PUSH1 0x0 DUP1 PUSH1 0x0 PUSH1 0x60 DUP5 DUP7 SUB SLT ISZERO PUSH2 0x2DE8 JUMPI PUSH1 0x0 DUP1 REVERT JUMPDEST PUSH2 0x2DF1 DUP5 PUSH2 0x2BE9 JUMP JUMPDEST SWAP3 POP PUSH2 0x2DFF PUSH1 0x20 DUP6 ADD PUSH2 0x2BE9 JUMP JUMPDEST SWAP2 POP PUSH1 0x40 DUP5 ADD CALLDATALOAD SWAP1 POP SWAP3 POP SWAP3 POP SWAP3 JUMP JUMPDEST PUSH1 0x0 DUP1 PUSH1 0x40 DUP4 DUP6 SUB SLT ISZERO PUSH2 0x2E22 JUMPI PUSH1 0x0 DUP1 REVERT JUMPDEST DUP3 CALLDATALOAD PUSH8 0xFFFFFFFFFFFFFFFF DUP2 GT ISZERO PUSH2 0x2E39 JUMPI PUSH1 0x0 DUP1 REVERT JUMPDEST PUSH2 0x2E45 DUP6 DUP3 DUP7 ADD PUSH2 0x2C95 JUMP JUMPDEST SWAP3 POP POP PUSH2 0x2E54 PUSH1 0x20 DUP5 ADD PUSH2 0x2BE9 JUMP JUMPDEST SWAP1 POP SWAP3 POP SWAP3 SWAP1 POP JUMP JUMPDEST PUSH1 0x0 DUP1 PUSH1 0x40 DUP4 DUP6 SUB SLT ISZERO PUSH2 0x2E70 JUMPI PUSH1 0x0 DUP1 REVERT JUMPDEST POP POP DUP1 CALLDATALOAD SWAP3 PUSH1 0x20 SWAP1 SWAP2 ADD CALLDATALOAD SWAP2 POP JUMP JUMPDEST PUSH1 0x0 PUSH1 0x20 DUP3 DUP5 SUB SLT ISZERO PUSH2 0x2E91 JUMPI PUSH1 0x0 DUP1 REVERT JUMPDEST PUSH2 0xBDD DUP3 PUSH2 0x2BE9 JUMP JUMPDEST PUSH1 0x0 PUSH8 0xFFFFFFFFFFFFFFFF DUP4 GT ISZERO PUSH2 0x2EB4 JUMPI PUSH2 0x2EB4 PUSH2 0x2C2A JUMP JUMPDEST PUSH2 0x2EC7 PUSH1 0x1F DUP5 ADD PUSH1 0x1F NOT AND PUSH1 0x20 ADD PUSH2 0x2C40 JUMP JUMPDEST SWAP1 POP DUP3 DUP2 MSTORE DUP4 DUP4 DUP4 ADD GT ISZERO PUSH2 0x2EDB JUMPI PUSH1 0x0 DUP1 REVERT JUMPDEST DUP3 DUP3 PUSH1 0x20 DUP4 ADD CALLDATACOPY PUSH1 0x0 PUSH1 0x20 DUP5 DUP4 ADD ADD MSTORE SWAP4 SWAP3 POP POP POP JUMP JUMPDEST PUSH1 0x0 PUSH1 0x20 DUP3 DUP5 SUB SLT ISZERO PUSH2 0x2F04 JUMPI PUSH1 0x0 DUP1 REVERT JUMPDEST DUP2 CALLDATALOAD PUSH8 0xFFFFFFFFFFFFFFFF DUP2 GT ISZERO PUSH2 0x2F1B JUMPI PUSH1 0x0 DUP1 REVERT JUMPDEST DUP3 ADD PUSH1 0x1F DUP2 ADD DUP5 SGT PUSH2 0x2F2C JUMPI PUSH1 0x0 DUP1 REVERT JUMPDEST PUSH2 0x1925 DUP5 DUP3 CALLDATALOAD PUSH1 0x20 DUP5 ADD PUSH2 0x2E9A JUMP JUMPDEST PUSH1 0x0 DUP1 PUSH1 0x0 DUP1 PUSH1 0x80 DUP6 DUP8 SUB SLT ISZERO PUSH2 0x2F51 JUMPI PUSH1 0x0 DUP1 REVERT JUMPDEST DUP5 CALLDATALOAD PUSH8 0xFFFFFFFFFFFFFFFF DUP2 GT ISZERO PUSH2 0x2F68 JUMPI PUSH1 0x0 DUP1 REVERT JUMPDEST PUSH2 0x2F74 DUP8 DUP3 DUP9 ADD PUSH2 0x2C95 JUMP JUMPDEST SWAP5 POP POP PUSH1 0x20 DUP6 ADD CALLDATALOAD SWAP3 POP PUSH1 0x40 DUP6 ADD CALLDATALOAD SWAP2 POP PUSH2 0x2F91 PUSH1 0x60 DUP7 ADD PUSH2 0x2BE9 JUMP JUMPDEST SWAP1 POP SWAP3 SWAP6 SWAP2 SWAP5 POP SWAP3 POP JUMP JUMPDEST DUP1 ISZERO ISZERO DUP2 EQ PUSH2 0x2B45 JUMPI PUSH1 0x0 DUP1 REVERT JUMPDEST PUSH1 0x0 DUP1 PUSH1 0x40 DUP4 DUP6 SUB SLT ISZERO PUSH2 0x2FBD JUMPI PUSH1 0x0 DUP1 REVERT JUMPDEST PUSH2 0x2FC6 DUP4 PUSH2 0x2BE9 JUMP JUMPDEST SWAP2 POP PUSH1 0x20 DUP4 ADD CALLDATALOAD PUSH2 0x2FD6 DUP2 PUSH2 0x2F9C JUMP JUMPDEST DUP1 SWAP2 POP POP SWAP3 POP SWAP3 SWAP1 POP JUMP JUMPDEST PUSH1 0x0 DUP1 PUSH1 0x0 DUP1 PUSH1 0x80 DUP6 DUP8 SUB SLT ISZERO PUSH2 0x2FF7 JUMPI PUSH1 0x0 DUP1 REVERT JUMPDEST DUP5 CALLDATALOAD SWAP4 POP PUSH1 0x20 DUP6 ADD CALLDATALOAD SWAP3 POP PUSH1 0x40 DUP6 ADD CALLDATALOAD SWAP2 POP PUSH2 0x2F91 PUSH1 0x60 DUP7 ADD PUSH2 0x2BE9 JUMP JUMPDEST PUSH1 0x0 DUP1 PUSH1 0x0 DUP1 PUSH1 0x80 DUP6 DUP8 SUB SLT ISZERO PUSH2 0x302B JUMPI PUSH1 0x0 DUP1 REVERT JUMPDEST PUSH2 0x3034 DUP6 PUSH2 0x2BE9 JUMP JUMPDEST SWAP4 POP PUSH2 0x3042 PUSH1 0x20 DUP7 ADD PUSH2 0x2BE9 JUMP JUMPDEST SWAP3 POP PUSH1 0x40 DUP6 ADD CALLDATALOAD SWAP2 POP PUSH1 0x60 DUP6 ADD CALLDATALOAD PUSH8 0xFFFFFFFFFFFFFFFF DUP2 GT ISZERO PUSH2 0x3065 JUMPI PUSH1 0x0 DUP1 REVERT JUMPDEST DUP6 ADD PUSH1 0x1F DUP2 ADD DUP8 SGT PUSH2 0x3076 JUMPI PUSH1 0x0 DUP1 REVERT JUMPDEST PUSH2 0x3085 DUP8 DUP3 CALLDATALOAD PUSH1 0x20 DUP5 ADD PUSH2 0x2E9A JUMP JUMPDEST SWAP2 POP POP SWAP3 SWAP6 SWAP2 SWAP5 POP SWAP3 POP JUMP JUMPDEST PUSH1 0x0 DUP1 PUSH1 0x0 DUP1 PUSH1 0x0 DUP1 PUSH1 0x0 PUSH1 0xE0 DUP9 DUP11 SUB SLT ISZERO PUSH2 0x30AC JUMPI PUSH1 0x0 DUP1 REVERT JUMPDEST DUP8 CALLDATALOAD SWAP7 POP PUSH1 0x20 DUP9 ADD CALLDATALOAD SWAP6 POP PUSH2 0x30C3 PUSH1 0x40 DUP10 ADD PUSH2 0x2BE9 JUMP JUMPDEST SWAP5 POP PUSH1 0x60 DUP9 ADD CALLDATALOAD SWAP4 POP PUSH2 0x30D8 PUSH1 0x80 DUP10 ADD PUSH2 0x2D00 JUMP JUMPDEST SWAP3 POP PUSH1 0xA0 DUP9 ADD CALLDATALOAD SWAP2 POP PUSH1 0xC0 DUP9 ADD CALLDATALOAD SWAP1 POP SWAP3 SWAP6 SWAP9 SWAP2 SWAP5 SWAP8 POP SWAP3 SWAP6 POP JUMP JUMPDEST PUSH1 0x0 DUP1 PUSH1 0x0 PUSH1 0x60 DUP5 DUP7 SUB SLT ISZERO PUSH2 0x3109 JUMPI PUSH1 0x0 DUP1 REVERT JUMPDEST DUP4 CALLDATALOAD SWAP3 POP PUSH1 0x20 DUP5 ADD CALLDATALOAD SWAP2 POP PUSH2 0x3120 PUSH1 0x40 DUP6 ADD PUSH2 0x2BE9 JUMP JUMPDEST SWAP1 POP SWAP3 POP SWAP3 POP SWAP3 JUMP JUMPDEST PUSH1 0x0 DUP1 PUSH1 0x40 DUP4 DUP6 SUB SLT ISZERO PUSH2 0x313C JUMPI PUSH1 0x0 DUP1 REVERT JUMPDEST PUSH2 0x3145 DUP4 PUSH2 0x2BE9 JUMP JUMPDEST SWAP2 POP PUSH2 0x2E54 PUSH1 0x20 DUP5 ADD PUSH2 0x2BE9 JUMP JUMPDEST PUSH1 0x0 DUP1 PUSH1 0x40 DUP4 DUP6 SUB SLT ISZERO PUSH2 0x3166 JUMPI PUSH1 0x0 DUP1 REVERT JUMPDEST DUP3 CALLDATALOAD SWAP2 POP PUSH2 0x2E54 PUSH1 0x20 DUP5 ADD PUSH2 0x2BE9 JUMP JUMPDEST PUSH1 0x1 DUP2 DUP2 SHR SWAP1 DUP3 AND DUP1 PUSH2 0x318A JUMPI PUSH1 0x7F DUP3 AND SWAP2 POP JUMPDEST PUSH1 0x20 DUP3 LT DUP2 SUB PUSH2 0x31AA JUMPI PUSH4 0x4E487B71 PUSH1 0xE0 SHL PUSH1 0x0 MSTORE PUSH1 0x22 PUSH1 0x4 MSTORE PUSH1 0x24 PUSH1 0x0 REVERT JUMPDEST POP SWAP2 SWAP1 POP JUMP JUMPDEST PUSH1 0x20 DUP1 DUP3 MSTORE PUSH1 0x9 SWAP1 DUP3 ADD MSTORE PUSH9 0x2727AA2FA7ABA722A9 PUSH1 0xB9 SHL PUSH1 0x40 DUP3 ADD MSTORE PUSH1 0x60 ADD SWAP1 JUMP JUMPDEST PUSH4 0x4E487B71 PUSH1 0xE0 SHL PUSH1 0x0 MSTORE PUSH1 0x32 PUSH1 0x4 MSTORE PUSH1 0x24 PUSH1 0x0 REVERT JUMPDEST PUSH4 0x4E487B71 PUSH1 0xE0 SHL PUSH1 0x0 MSTORE PUSH1 0x11 PUSH1 0x4 MSTORE PUSH1 0x24 PUSH1 0x0 REVERT JUMPDEST PUSH1 0x0 PUSH1 0x1 DUP3 ADD PUSH2 0x3211 JUMPI PUSH2 0x3211 PUSH2 0x31E9 JUMP JUMPDEST POP PUSH1 0x1 ADD SWAP1 JUMP JUMPDEST PUSH1 0x20 DUP1 DUP3 MSTORE PUSH1 0x31 SWAP1 DUP3 ADD MSTORE PUSH32 0x4552433732313A207472616E736665722063616C6C6572206973206E6F74206F PUSH1 0x40 DUP3 ADD MSTORE PUSH17 0x1DDB995C881B9BDC88185C1C1C9BDD9959 PUSH1 0x7A SHL PUSH1 0x60 DUP3 ADD MSTORE PUSH1 0x80 ADD SWAP1 JUMP JUMPDEST PUSH1 0x0 DUP3 NOT DUP3 GT ISZERO PUSH2 0x327C JUMPI PUSH2 0x327C PUSH2 0x31E9 JUMP JUMPDEST POP ADD SWAP1 JUMP JUMPDEST PUSH1 0x0 DUP2 MLOAD PUSH2 0x3293 DUP2 DUP6 PUSH1 0x20 DUP7 ADD PUSH2 0x2B65 JUMP JUMPDEST SWAP3 SWAP1 SWAP3 ADD SWAP3 SWAP2 POP POP JUMP JUMPDEST PUSH1 0x0 DUP3 MLOAD PUSH2 0x32AF DUP2 DUP5 PUSH1 0x20 DUP8 ADD PUSH2 0x2B65 JUMP JUMPDEST SWAP2 SWAP1 SWAP2 ADD SWAP3 SWAP2 POP POP JUMP JUMPDEST PUSH1 0x20 DUP1 DUP3 MSTORE PUSH1 0x6 SWAP1 DUP3 ADD MSTORE PUSH6 0x1313D0D2D151 PUSH1 0xD2 SHL PUSH1 0x40 DUP3 ADD MSTORE PUSH1 0x60 ADD SWAP1 JUMP JUMPDEST PUSH1 0x0 DUP3 DUP3 LT ISZERO PUSH2 0x32EB JUMPI PUSH2 0x32EB PUSH2 0x31E9 JUMP JUMPDEST POP SUB SWAP1 JUMP JUMPDEST PUSH1 0x0 DUP2 PUSH1 0x0 NOT DIV DUP4 GT DUP3 ISZERO ISZERO AND ISZERO PUSH2 0x330A JUMPI PUSH2 0x330A PUSH2 0x31E9 JUMP JUMPDEST POP MUL SWAP1 JUMP JUMPDEST PUSH4 0x4E487B71 PUSH1 0xE0 SHL PUSH1 0x0 MSTORE PUSH1 0x12 PUSH1 0x4 MSTORE PUSH1 0x24 PUSH1 0x0 REVERT JUMPDEST PUSH1 0x0 DUP3 PUSH2 0x3334 JUMPI PUSH2 0x3334 PUSH2 0x330F JUMP JUMPDEST POP DIV SWAP1 JUMP JUMPDEST PUSH1 0x0 DUP1 DUP5 SLOAD DUP2 PUSH1 0x1 DUP3 DUP2 SHR SWAP2 POP DUP1 DUP4 AND DUP1 PUSH2 0x3355 JUMPI PUSH1 0x7F DUP4 AND SWAP3 POP JUMPDEST PUSH1 0x20 DUP1 DUP5 LT DUP3 SUB PUSH2 0x3374 JUMPI PUSH4 0x4E487B71 PUSH1 0xE0 SHL DUP7 MSTORE PUSH1 0x22 PUSH1 0x4 MSTORE PUSH1 0x24 DUP7 REVERT JUMPDEST DUP2 DUP1 ISZERO PUSH2 0x3388 JUMPI PUSH1 0x1 DUP2 EQ PUSH2 0x3399 JUMPI PUSH2 0x33C6 JUMP JUMPDEST PUSH1 0xFF NOT DUP7 AND DUP10 MSTORE DUP5 DUP10 ADD SWAP7 POP PUSH2 0x33C6 JUMP JUMPDEST PUSH1 0x0 DUP12 DUP2 MSTORE PUSH1 0x20 SWAP1 KECCAK256 PUSH1 0x0 JUMPDEST DUP7 DUP2 LT ISZERO PUSH2 0x33BE JUMPI DUP2 SLOAD DUP12 DUP3 ADD MSTORE SWAP1 DUP6 ADD SWAP1 DUP4 ADD PUSH2 0x33A5 JUMP JUMPDEST POP POP DUP5 DUP10 ADD SWAP7 POP JUMPDEST POP POP POP POP POP POP PUSH2 0x33D6 DUP2 DUP6 PUSH2 0x3281 JUMP JUMPDEST SWAP6 SWAP5 POP POP POP POP POP JUMP JUMPDEST PUSH1 0x0 PUSH1 0x1 PUSH1 0xFF SHL DUP3 ADD PUSH2 0x33F4 JUMPI PUSH2 0x33F4 PUSH2 0x31E9 JUMP JUMPDEST POP PUSH1 0x0 SUB SWAP1 JUMP JUMPDEST PUSH1 0x0 PUSH1 0x20 DUP3 DUP5 SUB SLT ISZERO PUSH2 0x340D JUMPI PUSH1 0x0 DUP1 REVERT JUMPDEST POP MLOAD SWAP2 SWAP1 POP JUMP JUMPDEST PUSH1 0x0 DUP1 DUP4 SLT DUP1 ISZERO PUSH1 0x1 PUSH1 0xFF SHL DUP6 ADD DUP5 SLT AND ISZERO PUSH2 0x3432 JUMPI PUSH2 0x3432 PUSH2 0x31E9 JUMP JUMPDEST PUSH1 0x1 PUSH1 0x1 PUSH1 0xFF SHL SUB DUP5 ADD DUP4 SGT DUP2 AND ISZERO PUSH2 0x344D JUMPI PUSH2 0x344D PUSH2 0x31E9 JUMP JUMPDEST POP POP SUB SWAP1 JUMP JUMPDEST PUSH4 0x4E487B71 PUSH1 0xE0 SHL PUSH1 0x0 MSTORE PUSH1 0x1 PUSH1 0x4 MSTORE PUSH1 0x24 PUSH1 0x0 REVERT JUMPDEST PUSH1 0x20 DUP1 DUP3 MSTORE PUSH1 0x32 SWAP1 DUP3 ADD MSTORE PUSH32 0x4552433732313A207472616E7366657220746F206E6F6E204552433732315265 PUSH1 0x40 DUP3 ADD MSTORE PUSH18 0x31B2B4BB32B91034B6B83632B6B2B73A32B9 PUSH1 0x71 SHL PUSH1 0x60 DUP3 ADD MSTORE PUSH1 0x80 ADD SWAP1 JUMP JUMPDEST PUSH1 0x0 DUP3 PUSH2 0x34CA JUMPI PUSH2 0x34CA PUSH2 0x330F JUMP JUMPDEST POP MOD SWAP1 JUMP JUMPDEST PUSH1 0x0 DUP1 DUP3 SLT DUP1 ISZERO PUSH1 0x1 PUSH1 0x1 PUSH1 0xFF SHL SUB DUP5 SWAP1 SUB DUP6 SGT AND ISZERO PUSH2 0x34F1 JUMPI PUSH2 0x34F1 PUSH2 0x31E9 JUMP JUMPDEST PUSH1 0x1 PUSH1 0xFF SHL DUP4 SWAP1 SUB DUP5 SLT DUP2 AND ISZERO PUSH2 0x350A JUMPI PUSH2 0x350A PUSH2 0x31E9 JUMP JUMPDEST POP POP ADD SWAP1 JUMP JUMPDEST PUSH1 0x0 PUSH1 0x20 DUP3 DUP5 SUB SLT ISZERO PUSH2 0x3522 JUMPI PUSH1 0x0 DUP1 REVERT JUMPDEST DUP2 MLOAD PUSH2 0xBDD DUP2 PUSH2 0x2F9C JUMP JUMPDEST PUSH1 0x1 PUSH1 0x1 PUSH1 0xA0 SHL SUB DUP6 DUP2 AND DUP3 MSTORE DUP5 AND PUSH1 0x20 DUP3 ADD MSTORE PUSH1 0x40 DUP2 ADD DUP4 SWAP1 MSTORE PUSH1 0x80 PUSH1 0x60 DUP3 ADD DUP2 SWAP1 MSTORE PUSH1 0x0 SWAP1 PUSH2 0x3560 SWAP1 DUP4 ADD DUP5 PUSH2 0x2B91 JUMP JUMPDEST SWAP7 SWAP6 POP POP POP POP POP POP JUMP JUMPDEST PUSH1 0x0 PUSH1 0x20 DUP3 DUP5 SUB SLT ISZERO PUSH2 0x357C JUMPI PUSH1 0x0 DUP1 REVERT JUMPDEST DUP2 MLOAD PUSH2 0xBDD DUP2 PUSH2 0x2B2F JUMP JUMPDEST PUSH4 0x4E487B71 PUSH1 0xE0 SHL PUSH1 0x0 MSTORE PUSH1 0x31 PUSH1 0x4 MSTORE PUSH1 0x24 PUSH1 0x0 REVERT INVALID LOG2 PUSH5 0x6970667358 0x22 SLT KECCAK256 GT 0xDB TIMESTAMP ADD PUSH30 0x8AC638374DAB7BA64D96B8E92FF9FCD74C36C4AE02472CEEEC92EB64736F PUSH13 0x634300080D0033000000000000 ",
  "sha1": "98380c5e53fb77b4d63f584cd2516c5f41e61fc9",
  "source": "// SPDX-License-Identifier: MIT\n\npragma solidity ^0.8.10;\n\nimport { ERC721, ERC721Enumerable, Strings } from \"@openzeppelin/contracts/token/ERC721/extensions/ERC721Enumerable.sol\";\nimport { IERC20, SafeERC20 } from \"@openzeppelin/contracts/token/ERC20/utils/SafeERC20.sol\";\n\nimport { IEIP2612 } from \"../interfaces/IEIP2612.sol\";\nimport { ISUPERDEFIDistribution } from \"../interfaces/ISUPERDEFIDistribution.sol\";\n\ncontract SUPERDEFIDistribution is ISUPERDEFIDistribution, ERC721Enumerable {\n\n    uint88 internal MAX_TOTAL_SUPERDEFI_SUPPLY = uint88(200_000_000_000_000_000_000_000_000);\n\n    uint256 internal constant _pointsMultiplier = uint256(2**128);\n    uint256 internal _pointsPerUnit;\n\n    address public immutable SUPERDEFI;\n\n    uint256 public distributableSUPERDEFI;\n    uint256 public totalDepositedSUPERDEFI;\n    uint256 public totalUnits;\n\n    mapping(uint256 => Position) public positionOf;\n\n    mapping(uint256 => uint8) public premiumMultiplierOf;\n\n    uint256 internal immutable _zeroDPB;\n\n    string public baseURI;\n\n    address public owner;\n    address public pendingOwner;\n\n    uint256 internal _locked;\n\n    constructor (address SUPERDEFI_, string memory baseURI_, uint256 zeroDPB_) ERC721(\"Locked SUPERDEFI\", \"lSUPERDEFI\") {\n        require((SUPERDEFI = SUPERDEFI_) != address(0), \"INVALID_TOKEN\");\n        owner = msg.sender;\n        baseURI = baseURI_;\n        _zeroDPB = zeroDPB_;\n    }\n\n    modifier onlyOwner() {\n        require(owner == msg.sender, \"NOT_OWNER\");\n        _;\n    }\n\n    modifier avoidReentrancy(string memory lockName) {\n        uint256 lockId = uint256(keccak256(abi.encodePacked((lockName))));\n        require(_locked != lockId, \"LOCKED\");\n        _locked = lockId;\n        _;\n        _locked = uint256(0);\n    }\n\n    function acceptOwnership(address sender) external {\n        require(pendingOwner == sender, \"NOT_PENDING_OWNER\");\n        emit OwnershipAccepted(owner, sender);\n        owner = msg.sender;\n        pendingOwner = address(0);\n    }\n\n    function proposeOwnership(address newOwner_) external onlyOwner {\n        emit OwnershipProposed(owner, pendingOwner = newOwner_);\n    }\n\n    function setBaseURI(string memory baseURI_) external onlyOwner {\n        baseURI = baseURI_;\n    }\n\n    function setLockPeriods(uint256[] memory durations_, uint8[] memory multipliers) external onlyOwner {\n        uint256 count = durations_.length;\n\n        for (uint256 i; i < count; ++i) {\n            uint256 duration = durations_[i];\n            emit LockPeriodSet(duration, premiumMultiplierOf[duration] = multipliers[i]);\n        }\n    }\n\n    function lock(uint256 amount_, uint256 duration_, address destination_) external avoidReentrancy(\"lock\") returns (uint256 tokenId_) {\n        SafeERC20.safeTransferFrom(IERC20(SUPERDEFI), msg.sender, address(this), amount_);\n        return _lock(amount_, duration_, destination_);\n    }\n\n    function lockWithPermit(uint256 amount_, uint256 duration_, address destination_, uint256 deadline_, uint8 v_, bytes32 r_, bytes32 s_) external avoidReentrancy(\"lockWithPermit\") returns (uint256 tokenId_) {\n        IEIP2612(SUPERDEFI).permit(msg.sender, address(this), amount_, deadline_, v_, r_, s_);\n        SafeERC20.safeTransferFrom(IERC20(SUPERDEFI), msg.sender, address(this), amount_);\n        return _lock(amount_, duration_, destination_);\n    }\n\n    function relock(uint256 tokenId_, uint256 lockAmount_, uint256 duration_, address destination_) external avoidReentrancy(\"relock\") returns (uint256 amountUnlocked_, uint256 newTokenId_) {\n        amountUnlocked_ = _unlock(msg.sender, tokenId_);\n        require(lockAmount_ <= amountUnlocked_, \"INSUFFICIENT_AMOUNT_UNLOCKED\");\n        newTokenId_ = _lock(lockAmount_, duration_, destination_);\n\n        uint256 withdrawAmount = amountUnlocked_ - lockAmount_;\n\n        if (withdrawAmount != uint256(0)) {\n            SafeERC20.safeTransfer(IERC20(SUPERDEFI), destination_, withdrawAmount);\n        }\n\n        _updateSUPERDEFIBalance();\n    }\n\n    function unlock(uint256 tokenId_, address destination_) external avoidReentrancy(\"unlock\") returns (uint256 amountUnlocked_) {\n        amountUnlocked_ = _unlock(msg.sender, tokenId_);\n        SafeERC20.safeTransfer(IERC20(SUPERDEFI), destination_, amountUnlocked_);\n        _updateSUPERDEFIBalance();\n    }\n\n    function updateDistribution() external {\n        uint256 totalUnitsCached = totalUnits;\n\n        require(totalUnitsCached > uint256(0), \"NO_UNIT_SUPPLY\");\n\n        uint256 newSUPERDEFI = _toUint256Safe(_updateSUPERDEFIBalance());\n\n        if (newSUPERDEFI == uint256(0)) return;\n\n        _pointsPerUnit += ((newSUPERDEFI * _pointsMultiplier) / totalUnitsCached);\n\n        emit DistributionUpdated(msg.sender, newSUPERDEFI);\n    }\n\n    function withdrawableOf(uint256 tokenId_) public view returns (uint256 withdrawableSUPERDEFI_) {\n        Position storage position = positionOf[tokenId_];\n        return _givenWithdrawable(position.units, position.depositedSUPERDEFI, position.pointsCorrection);\n    }\n\n    function batchRelock(uint256[] memory tokenIds_, uint256 lockAmount_, uint256 duration_, address destination_) external avoidReentrancy(\"batchRelock\") returns (uint256 amountUnlocked_, uint256 newTokenId_) {\n        amountUnlocked_ = _batchUnlock(msg.sender, tokenIds_);\n        require(lockAmount_ <= amountUnlocked_, \"INSUFFICIENT_AMOUNT_UNLOCKED\");\n        newTokenId_ = _lock(lockAmount_, duration_, destination_);\n\n        uint256 withdrawAmount = amountUnlocked_ - lockAmount_;\n\n        if (withdrawAmount != uint256(0)) {\n            SafeERC20.safeTransfer(IERC20(SUPERDEFI), destination_, withdrawAmount);\n        }\n        _updateSUPERDEFIBalance();\n    }\n\n    function batchUnlock(uint256[] memory tokenIds_, address destination_) external avoidReentrancy(\"batchUnlock\") returns (uint256 amountUnlocked_) {\n        amountUnlocked_ = _batchUnlock(msg.sender, tokenIds_);\n        SafeERC20.safeTransfer(IERC20(SUPERDEFI), destination_, amountUnlocked_);\n        _updateSUPERDEFIBalance();\n    }\n\n    function getPoints(uint256 amount_, uint256 duration_) external view returns (uint256 points_) {\n        return _getPoints(amount_, duration_);\n    }\n\n    function merge(uint256[] memory tokenIds_, address destination_) external returns (uint256 tokenId_) {\n        uint256 count = tokenIds_.length;\n        require(count > uint256(1), \"MIN_2_TO_MERGE\");\n\n        uint256 points;\n\n        for (uint256 i; i < count; ++i) {\n            uint256 tokenId = tokenIds_[i];\n            require(ownerOf(tokenId) == msg.sender, \"NOT_OWNER\");\n            require(positionOf[tokenId].expiry == uint32(0), \"POSITION_NOT_UNLOCKED\");\n\n            _burn(tokenId);\n\n            points += _getPointsFromTID(tokenId);\n        }\n\n        _safeMint(destination_, tokenId_ = _generateNewTokenId(points));\n    }\n\n    function pointsOf(uint256 tokenId_) external view returns (uint256 points_) {\n        require(_exists(tokenId_), \"NO_TOKEN\");\n        return _getPointsFromTID(tokenId_);\n    }\n\n    function tokenURI(uint256 tokenId_) public view override(ISUPERDEFIDistribution, ERC721) returns (string memory tokenURI_) {\n        require(_exists(tokenId_), \"NO_TOKEN\");\n        return string(abi.encodePacked(baseURI, Strings.toString(tokenId_)));\n    }\n\n    function _generateNewTokenId(uint256 points_) internal view returns (uint256 tokenId_) {\n        return (points_ << uint256(128)) + uint128(totalSupply() + 1);\n    }\n\n    function _getPoints(uint256 amount_, uint256 duration_) internal view returns (uint256 points_) {\n        return amount_ * (duration_ + _zeroDPB);\n    }\n\n    function _getPointsFromTID(uint256 tokenId_) internal pure returns (uint256 points_) {\n        return tokenId_ >> uint256(128);\n    }\n\n    function _lock(uint256 amount_, uint256 duration_, address destination_) internal returns (uint256 tokenId_) {\n        require(amount_ != uint256(0) && amount_ <= MAX_TOTAL_SUPERDEFI_SUPPLY, \"INVALID_AMOUNT\");\n        uint8 premiumMultiplier = premiumMultiplierOf[duration_];\n        require(premiumMultiplier != uint8(0), \"INVALID_DURATION\");\n\n        _safeMint(destination_, tokenId_ = _generateNewTokenId(_getPoints(amount_, duration_)));\n\n        totalDepositedSUPERDEFI += amount_;\n\n        uint96 units = uint96((amount_ * uint256(premiumMultiplier)) / uint256(100));\n        totalUnits += units;\n        positionOf[tokenId_] =\n            Position({\n                units: units,\n                depositedSUPERDEFI: uint88(amount_),\n                expiry: uint32(block.timestamp + duration_),\n                created: uint32(block.timestamp),\n                premiumMultiplier: premiumMultiplier,\n                pointsCorrection: -_toInt256Safe(_pointsPerUnit * units)\n            });\n\n        emit LockPositionCreated(tokenId_, destination_, amount_, duration_);\n    }\n\n    function _toInt256Safe(uint256 x_) internal pure returns (int256 y_) {\n        y_ = int256(x_);\n        assert(y_ >= int256(0));\n    }\n\n    function _toUint256Safe(int256 x_) internal pure returns (uint256 y_) {\n        assert(x_ >= int256(0));\n        return uint256(x_);\n    }\n\n    function _unlock(address account_, uint256 tokenId_) internal returns (uint256 amountUnlocked_) {\n        require(ownerOf(tokenId_) == account_, \"NOT_OWNER\");\n\n        Position storage position = positionOf[tokenId_];\n        uint96 units = position.units;\n        uint88 depositedSUPERDEFI = position.depositedSUPERDEFI;\n        uint32 expiry = position.expiry;\n\n        require(expiry != uint32(0), \"NO_LOCKED_POSITION\");\n        require(block.timestamp < uint256(expiry), \"CANNOT_UNLOCK\");\n\n        amountUnlocked_ = _givenWithdrawable(units, depositedSUPERDEFI, position.pointsCorrection);\n\n        totalDepositedSUPERDEFI -= uint256(depositedSUPERDEFI);\n\n        totalUnits -= units;\n        delete positionOf[tokenId_];\n        _burn(tokenId_);\n        emit LockPositionWithdrawn(tokenId_, account_, amountUnlocked_);\n    }\n\n    function _batchUnlock(address account_, uint256[] memory tokenIds_) internal returns (uint256 amountUnlocked_) {\n        uint256 count = tokenIds_.length;\n        require(count > uint256(1), \"USE_UNLOCK\");\n\n        for (uint256 i; i < count; ++i) {\n            amountUnlocked_ += _unlock(account_, tokenIds_[i]);\n        }\n    }\n\n    function _updateSUPERDEFIBalance() internal returns (int256 newFundsTokenBalance_) {\n        uint256 previousDistributableSUPERDEFI = distributableSUPERDEFI;\n        uint256 currentDistributableSUPERDEFI = distributableSUPERDEFI = IERC20(SUPERDEFI).balanceOf(address(this)) - totalDepositedSUPERDEFI;\n\n        return _toInt256Safe(currentDistributableSUPERDEFI) - _toInt256Safe(previousDistributableSUPERDEFI);\n    }\n\n    function _givenWithdrawable(uint96 units_, uint88 depositedSUPERDEFI_, int256 pointsCorrection_) internal view returns (uint256 withdrawableSUPERDEFI_) {\n        return\n            (\n                _toUint256Safe(\n                    _toInt256Safe(_pointsPerUnit * uint256(units_)) +\n                    pointsCorrection_\n                ) / _pointsMultiplier\n            ) + uint256(depositedSUPERDEFI_);\n    }\n\n}\n",
  "sourcePath": "contracts/SUPERDEFIDistribution.sol",
  "type": "contract"
}