{
  "abi": [
    {
      "inputs": [
        {
          "internalType": "address",
          "name": "SUPERDEFIDistribution_",
          "type": "address"
        },
        {
          "internalType": "address",
          "name": "account_",
          "type": "address"
        }
      ],
      "name": "getAllLockedPositionsForAccount",
      "outputs": [
        {
          "internalType": "uint256[]",
          "name": "tokenIds_",
          "type": "uint256[]"
        },
        {
          "components": [
            {
              "internalType": "uint96",
              "name": "units",
              "type": "uint96"
            },
            {
              "internalType": "uint88",
              "name": "depositedSUPERDEFI",
              "type": "uint88"
            },
            {
              "internalType": "uint32",
              "name": "expiry",
              "type": "uint32"
            },
            {
              "internalType": "uint32",
              "name": "created",
              "type": "uint32"
            },
            {
              "internalType": "uint8",
              "name": "premiumMultiplier",
              "type": "uint8"
            },
            {
              "internalType": "int256",
              "name": "pointsCorrection",
              "type": "int256"
            }
          ],
          "internalType": "struct ISUPERDEFIDistribution.Position[]",
          "name": "positions_",
          "type": "tuple[]"
        },
        {
          "internalType": "uint256[]",
          "name": "withdrawables_",
          "type": "uint256[]"
        }
      ],
      "stateMutability": "view",
      "type": "function"
    },
    {
      "inputs": [
        {
          "internalType": "address",
          "name": "SUPERDEFIDistribution_",
          "type": "address"
        },
        {
          "internalType": "address",
          "name": "account_",
          "type": "address"
        }
      ],
      "name": "getAllTokensForAccount",
      "outputs": [
        {
          "internalType": "uint256[]",
          "name": "tokenIds_",
          "type": "uint256[]"
        }
      ],
      "stateMutability": "view",
      "type": "function"
    }
  ],
  "bytecode": "608060405234801561001057600080fd5b506108e9806100206000396000f3fe608060405234801561001057600080fd5b50600436106100365760003560e01c806347b339681461003b578063e82fa48c14610064575b600080fd5b61004e610049366004610651565b610086565b60405161005b91906106bf565b60405180910390f35b610077610072366004610651565b6101ee565b60405161005b939291906106d9565b6040516370a0823160e01b81526001600160a01b0382811660048301526060916000918516906370a0823190602401602060405180830381865afa1580156100d2573d6000803e3d6000fd5b505050506040513d601f19601f820116820180604052508101906100f6919061079b565b90508067ffffffffffffffff811115610111576101116107b4565b60405190808252806020026020018201604052801561013a578160200160208202803683370190505b50915060005b818110156101e657604051632f745c5960e01b81526001600160a01b03858116600483015260248201839052861690632f745c5990604401602060405180830381865afa158015610195573d6000803e3d6000fd5b505050506040513d601f19601f820116820180604052508101906101b9919061079b565b8382815181106101cb576101cb6107ca565b60209081029190910101526101df816107e0565b9050610140565b505092915050565b606080606060006101ff8686610086565b805190915060008167ffffffffffffffff81111561021f5761021f6107b4565b60405190808252806020026020018201604052801561027f57816020015b6040805160c08101825260008082526020808301829052928201819052606082018190526080820181905260a0820152825260001990920191018161023d5790505b5090506000805b8381101561040e576000806000806000808f6001600160a01b03166346f960238c89815181106102b8576102b86107ca565b60200260200101516040518263ffffffff1660e01b81526004016102de91815260200190565b60c060405180830381865afa1580156102fb573d6000803e3d6000fd5b505050506040513d601f19601f8201168201806040525081019061031f919061081b565b949a5092985090965094509250905063ffffffff8416610344575050505050506103fe565b8a8781518110610356576103566107ca565b60200260200101518b8981518110610370576103706107ca565b6020026020010181815250506040518060c00160405280876001600160601b03168152602001866affffffffffffffffffffff1681526020018563ffffffff1681526020018463ffffffff1681526020018360ff168152602001828152508989806103da906107e0565b9a50815181106103ec576103ec6107ca565b60200260200101819052505050505050505b610407816107e0565b9050610286565b508067ffffffffffffffff811115610428576104286107b4565b604051908082528060200260200182016040528015610451578160200160208202803683370190505b5096508067ffffffffffffffff81111561046d5761046d6107b4565b6040519080825280602002602001820160405280156104cd57816020015b6040805160c08101825260008082526020808301829052928201819052606082018190526080820181905260a0820152825260001990920191018161048b5790505b5095508067ffffffffffffffff8111156104e9576104e96107b4565b604051908082528060200260200182016040528015610512578160200160208202803683370190505b50945060005b8181101561062957828181518110610532576105326107ca565b602002602001015187828151811061054c5761054c6107ca565b6020026020010181905250896001600160a01b031663d1fdb3e8868381518110610578576105786107ca565b60200260200101518a8481518110610592576105926107ca565b60200260200101818152506040518263ffffffff1660e01b81526004016105bb91815260200190565b602060405180830381865afa1580156105d8573d6000803e3d6000fd5b505050506040513d601f19601f820116820180604052508101906105fc919061079b565b86828151811061060e5761060e6107ca565b6020908102919091010152610622816107e0565b9050610518565b50505050509250925092565b80356001600160a01b038116811461064c57600080fd5b919050565b6000806040838503121561066457600080fd5b61066d83610635565b915061067b60208401610635565b90509250929050565b600081518084526020808501945080840160005b838110156106b457815187529582019590820190600101610698565b509495945050505050565b6020815260006106d26020830184610684565b9392505050565b600060608083526106ec81840187610684565b83810360208581019190915286518083528782019282019060005b8181101561077a57845180516001600160601b03168452848101516affffffffffffffffffffff168585015260408082015163ffffffff9081169186019190915287820151168785015260808082015160ff169085015260a090810151908401529383019360c090920191600101610707565b5050858103604087015261078e8188610684565b9998505050505050505050565b6000602082840312156107ad57600080fd5b5051919050565b634e487b7160e01b600052604160045260246000fd5b634e487b7160e01b600052603260045260246000fd5b60006001820161080057634e487b7160e01b600052601160045260246000fd5b5060010190565b805163ffffffff8116811461064c57600080fd5b60008060008060008060c0878903121561083457600080fd5b86516001600160601b038116811461084b57600080fd5b60208801519096506affffffffffffffffffffff8116811461086c57600080fd5b945061087a60408801610807565b935061088860608801610807565b9250608087015160ff8116811461089e57600080fd5b8092505060a08701519050929550929550929556fea2646970667358221220c7a8d24d71edcdab670b1664b0a3a787f30010adf05fb9b0fd5e704bf8bf67c864736f6c634300080d0033",
  "bytecodeSha1": "2b1984ea134d28f21735b09bf78af8afb4b19fcf",
  "compiler": {
    "evm_version": "istanbul",
    "optimizer": {
      "enabled": true,
      "runs": 200
    },
    "version": "0.8.13+commit.abaa5c0e"
  },
  "contractName": "SUPERDEFIDistributionHelper",
  "language": "Solidity",
  "natspec": {
    "details": "Stateless helper contract for external clients to reduce web3 calls to gather SUPERDEFIDistribution information related to individual accounts.",
    "kind": "dev",
    "methods": {},
    "version": 1
  },
  "opcodes": "PUSH1 0x80 PUSH1 0x40 MSTORE CALLVALUE DUP1 ISZERO PUSH2 0x10 JUMPI PUSH1 0x0 DUP1 REVERT JUMPDEST POP PUSH1 0x4 CALLDATASIZE LT PUSH2 0x36 JUMPI PUSH1 0x0 CALLDATALOAD PUSH1 0xE0 SHR DUP1 PUSH4 0x47B33968 EQ PUSH2 0x3B JUMPI DUP1 PUSH4 0xE82FA48C EQ PUSH2 0x64 JUMPI JUMPDEST PUSH1 0x0 DUP1 REVERT JUMPDEST PUSH2 0x4E PUSH2 0x49 CALLDATASIZE PUSH1 0x4 PUSH2 0x651 JUMP JUMPDEST PUSH2 0x86 JUMP JUMPDEST PUSH1 0x40 MLOAD PUSH2 0x5B SWAP2 SWAP1 PUSH2 0x6BF JUMP JUMPDEST PUSH1 0x40 MLOAD DUP1 SWAP2 SUB SWAP1 RETURN JUMPDEST PUSH2 0x77 PUSH2 0x72 CALLDATASIZE PUSH1 0x4 PUSH2 0x651 JUMP JUMPDEST PUSH2 0x1EE JUMP JUMPDEST PUSH1 0x40 MLOAD PUSH2 0x5B SWAP4 SWAP3 SWAP2 SWAP1 PUSH2 0x6D9 JUMP JUMPDEST PUSH1 0x40 MLOAD PUSH4 0x70A08231 PUSH1 0xE0 SHL DUP2 MSTORE PUSH1 0x1 PUSH1 0x1 PUSH1 0xA0 SHL SUB DUP3 DUP2 AND PUSH1 0x4 DUP4 ADD MSTORE PUSH1 0x60 SWAP2 PUSH1 0x0 SWAP2 DUP6 AND SWAP1 PUSH4 0x70A08231 SWAP1 PUSH1 0x24 ADD PUSH1 0x20 PUSH1 0x40 MLOAD DUP1 DUP4 SUB DUP2 DUP7 GAS STATICCALL ISZERO DUP1 ISZERO PUSH2 0xD2 JUMPI RETURNDATASIZE PUSH1 0x0 DUP1 RETURNDATACOPY RETURNDATASIZE PUSH1 0x0 REVERT JUMPDEST POP POP POP POP PUSH1 0x40 MLOAD RETURNDATASIZE PUSH1 0x1F NOT PUSH1 0x1F DUP3 ADD AND DUP3 ADD DUP1 PUSH1 0x40 MSTORE POP DUP2 ADD SWAP1 PUSH2 0xF6 SWAP2 SWAP1 PUSH2 0x79B JUMP JUMPDEST SWAP1 POP DUP1 PUSH8 0xFFFFFFFFFFFFFFFF DUP2 GT ISZERO PUSH2 0x111 JUMPI PUSH2 0x111 PUSH2 0x7B4 JUMP JUMPDEST PUSH1 0x40 MLOAD SWAP1 DUP1 DUP3 MSTORE DUP1 PUSH1 0x20 MUL PUSH1 0x20 ADD DUP3 ADD PUSH1 0x40 MSTORE DUP1 ISZERO PUSH2 0x13A JUMPI DUP2 PUSH1 0x20 ADD PUSH1 0x20 DUP3 MUL DUP1 CALLDATASIZE DUP4 CALLDATACOPY ADD SWAP1 POP JUMPDEST POP SWAP2 POP PUSH1 0x0 JUMPDEST DUP2 DUP2 LT ISZERO PUSH2 0x1E6 JUMPI PUSH1 0x40 MLOAD PUSH4 0x2F745C59 PUSH1 0xE0 SHL DUP2 MSTORE PUSH1 0x1 PUSH1 0x1 PUSH1 0xA0 SHL SUB DUP6 DUP2 AND PUSH1 0x4 DUP4 ADD MSTORE PUSH1 0x24 DUP3 ADD DUP4 SWAP1 MSTORE DUP7 AND SWAP1 PUSH4 0x2F745C59 SWAP1 PUSH1 0x44 ADD PUSH1 0x20 PUSH1 0x40 MLOAD DUP1 DUP4 SUB DUP2 DUP7 GAS STATICCALL ISZERO DUP1 ISZERO PUSH2 0x195 JUMPI RETURNDATASIZE PUSH1 0x0 DUP1 RETURNDATACOPY RETURNDATASIZE PUSH1 0x0 REVERT JUMPDEST POP POP POP POP PUSH1 0x40 MLOAD RETURNDATASIZE PUSH1 0x1F NOT PUSH1 0x1F DUP3 ADD AND DUP3 ADD DUP1 PUSH1 0x40 MSTORE POP DUP2 ADD SWAP1 PUSH2 0x1B9 SWAP2 SWAP1 PUSH2 0x79B JUMP JUMPDEST DUP4 DUP3 DUP2 MLOAD DUP2 LT PUSH2 0x1CB JUMPI PUSH2 0x1CB PUSH2 0x7CA JUMP JUMPDEST PUSH1 0x20 SWAP1 DUP2 MUL SWAP2 SWAP1 SWAP2 ADD ADD MSTORE PUSH2 0x1DF DUP2 PUSH2 0x7E0 JUMP JUMPDEST SWAP1 POP PUSH2 0x140 JUMP JUMPDEST POP POP SWAP3 SWAP2 POP POP JUMP JUMPDEST PUSH1 0x60 DUP1 PUSH1 0x60 PUSH1 0x0 PUSH2 0x1FF DUP7 DUP7 PUSH2 0x86 JUMP JUMPDEST DUP1 MLOAD SWAP1 SWAP2 POP PUSH1 0x0 DUP2 PUSH8 0xFFFFFFFFFFFFFFFF DUP2 GT ISZERO PUSH2 0x21F JUMPI PUSH2 0x21F PUSH2 0x7B4 JUMP JUMPDEST PUSH1 0x40 MLOAD SWAP1 DUP1 DUP3 MSTORE DUP1 PUSH1 0x20 MUL PUSH1 0x20 ADD DUP3 ADD PUSH1 0x40 MSTORE DUP1 ISZERO PUSH2 0x27F JUMPI DUP2 PUSH1 0x20 ADD JUMPDEST PUSH1 0x40 DUP1 MLOAD PUSH1 0xC0 DUP2 ADD DUP3 MSTORE PUSH1 0x0 DUP1 DUP3 MSTORE PUSH1 0x20 DUP1 DUP4 ADD DUP3 SWAP1 MSTORE SWAP3 DUP3 ADD DUP2 SWAP1 MSTORE PUSH1 0x60 DUP3 ADD DUP2 SWAP1 MSTORE PUSH1 0x80 DUP3 ADD DUP2 SWAP1 MSTORE PUSH1 0xA0 DUP3 ADD MSTORE DUP3 MSTORE PUSH1 0x0 NOT SWAP1 SWAP3 ADD SWAP2 ADD DUP2 PUSH2 0x23D JUMPI SWAP1 POP JUMPDEST POP SWAP1 POP PUSH1 0x0 DUP1 JUMPDEST DUP4 DUP2 LT ISZERO PUSH2 0x40E JUMPI PUSH1 0x0 DUP1 PUSH1 0x0 DUP1 PUSH1 0x0 DUP1 DUP16 PUSH1 0x1 PUSH1 0x1 PUSH1 0xA0 SHL SUB AND PUSH4 0x46F96023 DUP13 DUP10 DUP2 MLOAD DUP2 LT PUSH2 0x2B8 JUMPI PUSH2 0x2B8 PUSH2 0x7CA JUMP JUMPDEST PUSH1 0x20 MUL PUSH1 0x20 ADD ADD MLOAD PUSH1 0x40 MLOAD DUP3 PUSH4 0xFFFFFFFF AND PUSH1 0xE0 SHL DUP2 MSTORE PUSH1 0x4 ADD PUSH2 0x2DE SWAP2 DUP2 MSTORE PUSH1 0x20 ADD SWAP1 JUMP JUMPDEST PUSH1 0xC0 PUSH1 0x40 MLOAD DUP1 DUP4 SUB DUP2 DUP7 GAS STATICCALL ISZERO DUP1 ISZERO PUSH2 0x2FB JUMPI RETURNDATASIZE PUSH1 0x0 DUP1 RETURNDATACOPY RETURNDATASIZE PUSH1 0x0 REVERT JUMPDEST POP POP POP POP PUSH1 0x40 MLOAD RETURNDATASIZE PUSH1 0x1F NOT PUSH1 0x1F DUP3 ADD AND DUP3 ADD DUP1 PUSH1 0x40 MSTORE POP DUP2 ADD SWAP1 PUSH2 0x31F SWAP2 SWAP1 PUSH2 0x81B JUMP JUMPDEST SWAP5 SWAP11 POP SWAP3 SWAP9 POP SWAP1 SWAP7 POP SWAP5 POP SWAP3 POP SWAP1 POP PUSH4 0xFFFFFFFF DUP5 AND PUSH2 0x344 JUMPI POP POP POP POP POP POP PUSH2 0x3FE JUMP JUMPDEST DUP11 DUP8 DUP2 MLOAD DUP2 LT PUSH2 0x356 JUMPI PUSH2 0x356 PUSH2 0x7CA JUMP JUMPDEST PUSH1 0x20 MUL PUSH1 0x20 ADD ADD MLOAD DUP12 DUP10 DUP2 MLOAD DUP2 LT PUSH2 0x370 JUMPI PUSH2 0x370 PUSH2 0x7CA JUMP JUMPDEST PUSH1 0x20 MUL PUSH1 0x20 ADD ADD DUP2 DUP2 MSTORE POP POP PUSH1 0x40 MLOAD DUP1 PUSH1 0xC0 ADD PUSH1 0x40 MSTORE DUP1 DUP8 PUSH1 0x1 PUSH1 0x1 PUSH1 0x60 SHL SUB AND DUP2 MSTORE PUSH1 0x20 ADD DUP7 PUSH11 0xFFFFFFFFFFFFFFFFFFFFFF AND DUP2 MSTORE PUSH1 0x20 ADD DUP6 PUSH4 0xFFFFFFFF AND DUP2 MSTORE PUSH1 0x20 ADD DUP5 PUSH4 0xFFFFFFFF AND DUP2 MSTORE PUSH1 0x20 ADD DUP4 PUSH1 0xFF AND DUP2 MSTORE PUSH1 0x20 ADD DUP3 DUP2 MSTORE POP DUP10 DUP10 DUP1 PUSH2 0x3DA SWAP1 PUSH2 0x7E0 JUMP JUMPDEST SWAP11 POP DUP2 MLOAD DUP2 LT PUSH2 0x3EC JUMPI PUSH2 0x3EC PUSH2 0x7CA JUMP JUMPDEST PUSH1 0x20 MUL PUSH1 0x20 ADD ADD DUP2 SWAP1 MSTORE POP POP POP POP POP POP POP JUMPDEST PUSH2 0x407 DUP2 PUSH2 0x7E0 JUMP JUMPDEST SWAP1 POP PUSH2 0x286 JUMP JUMPDEST POP DUP1 PUSH8 0xFFFFFFFFFFFFFFFF DUP2 GT ISZERO PUSH2 0x428 JUMPI PUSH2 0x428 PUSH2 0x7B4 JUMP JUMPDEST PUSH1 0x40 MLOAD SWAP1 DUP1 DUP3 MSTORE DUP1 PUSH1 0x20 MUL PUSH1 0x20 ADD DUP3 ADD PUSH1 0x40 MSTORE DUP1 ISZERO PUSH2 0x451 JUMPI DUP2 PUSH1 0x20 ADD PUSH1 0x20 DUP3 MUL DUP1 CALLDATASIZE DUP4 CALLDATACOPY ADD SWAP1 POP JUMPDEST POP SWAP7 POP DUP1 PUSH8 0xFFFFFFFFFFFFFFFF DUP2 GT ISZERO PUSH2 0x46D JUMPI PUSH2 0x46D PUSH2 0x7B4 JUMP JUMPDEST PUSH1 0x40 MLOAD SWAP1 DUP1 DUP3 MSTORE DUP1 PUSH1 0x20 MUL PUSH1 0x20 ADD DUP3 ADD PUSH1 0x40 MSTORE DUP1 ISZERO PUSH2 0x4CD JUMPI DUP2 PUSH1 0x20 ADD JUMPDEST PUSH1 0x40 DUP1 MLOAD PUSH1 0xC0 DUP2 ADD DUP3 MSTORE PUSH1 0x0 DUP1 DUP3 MSTORE PUSH1 0x20 DUP1 DUP4 ADD DUP3 SWAP1 MSTORE SWAP3 DUP3 ADD DUP2 SWAP1 MSTORE PUSH1 0x60 DUP3 ADD DUP2 SWAP1 MSTORE PUSH1 0x80 DUP3 ADD DUP2 SWAP1 MSTORE PUSH1 0xA0 DUP3 ADD MSTORE DUP3 MSTORE PUSH1 0x0 NOT SWAP1 SWAP3 ADD SWAP2 ADD DUP2 PUSH2 0x48B JUMPI SWAP1 POP JUMPDEST POP SWAP6 POP DUP1 PUSH8 0xFFFFFFFFFFFFFFFF DUP2 GT ISZERO PUSH2 0x4E9 JUMPI PUSH2 0x4E9 PUSH2 0x7B4 JUMP JUMPDEST PUSH1 0x40 MLOAD SWAP1 DUP1 DUP3 MSTORE DUP1 PUSH1 0x20 MUL PUSH1 0x20 ADD DUP3 ADD PUSH1 0x40 MSTORE DUP1 ISZERO PUSH2 0x512 JUMPI DUP2 PUSH1 0x20 ADD PUSH1 0x20 DUP3 MUL DUP1 CALLDATASIZE DUP4 CALLDATACOPY ADD SWAP1 POP JUMPDEST POP SWAP5 POP PUSH1 0x0 JUMPDEST DUP2 DUP2 LT ISZERO PUSH2 0x629 JUMPI DUP3 DUP2 DUP2 MLOAD DUP2 LT PUSH2 0x532 JUMPI PUSH2 0x532 PUSH2 0x7CA JUMP JUMPDEST PUSH1 0x20 MUL PUSH1 0x20 ADD ADD MLOAD DUP8 DUP3 DUP2 MLOAD DUP2 LT PUSH2 0x54C JUMPI PUSH2 0x54C PUSH2 0x7CA JUMP JUMPDEST PUSH1 0x20 MUL PUSH1 0x20 ADD ADD DUP2 SWAP1 MSTORE POP DUP10 PUSH1 0x1 PUSH1 0x1 PUSH1 0xA0 SHL SUB AND PUSH4 0xD1FDB3E8 DUP7 DUP4 DUP2 MLOAD DUP2 LT PUSH2 0x578 JUMPI PUSH2 0x578 PUSH2 0x7CA JUMP JUMPDEST PUSH1 0x20 MUL PUSH1 0x20 ADD ADD MLOAD DUP11 DUP5 DUP2 MLOAD DUP2 LT PUSH2 0x592 JUMPI PUSH2 0x592 PUSH2 0x7CA JUMP JUMPDEST PUSH1 0x20 MUL PUSH1 0x20 ADD ADD DUP2 DUP2 MSTORE POP PUSH1 0x40 MLOAD DUP3 PUSH4 0xFFFFFFFF AND PUSH1 0xE0 SHL DUP2 MSTORE PUSH1 0x4 ADD PUSH2 0x5BB SWAP2 DUP2 MSTORE PUSH1 0x20 ADD SWAP1 JUMP JUMPDEST PUSH1 0x20 PUSH1 0x40 MLOAD DUP1 DUP4 SUB DUP2 DUP7 GAS STATICCALL ISZERO DUP1 ISZERO PUSH2 0x5D8 JUMPI RETURNDATASIZE PUSH1 0x0 DUP1 RETURNDATACOPY RETURNDATASIZE PUSH1 0x0 REVERT JUMPDEST POP POP POP POP PUSH1 0x40 MLOAD RETURNDATASIZE PUSH1 0x1F NOT PUSH1 0x1F DUP3 ADD AND DUP3 ADD DUP1 PUSH1 0x40 MSTORE POP DUP2 ADD SWAP1 PUSH2 0x5FC SWAP2 SWAP1 PUSH2 0x79B JUMP JUMPDEST DUP7 DUP3 DUP2 MLOAD DUP2 LT PUSH2 0x60E JUMPI PUSH2 0x60E PUSH2 0x7CA JUMP JUMPDEST PUSH1 0x20 SWAP1 DUP2 MUL SWAP2 SWAP1 SWAP2 ADD ADD MSTORE PUSH2 0x622 DUP2 PUSH2 0x7E0 JUMP JUMPDEST SWAP1 POP PUSH2 0x518 JUMP JUMPDEST POP POP POP POP POP SWAP3 POP SWAP3 POP SWAP3 JUMP JUMPDEST DUP1 CALLDATALOAD PUSH1 0x1 PUSH1 0x1 PUSH1 0xA0 SHL SUB DUP2 AND DUP2 EQ PUSH2 0x64C JUMPI PUSH1 0x0 DUP1 REVERT JUMPDEST SWAP2 SWAP1 POP JUMP JUMPDEST PUSH1 0x0 DUP1 PUSH1 0x40 DUP4 DUP6 SUB SLT ISZERO PUSH2 0x664 JUMPI PUSH1 0x0 DUP1 REVERT JUMPDEST PUSH2 0x66D DUP4 PUSH2 0x635 JUMP JUMPDEST SWAP2 POP PUSH2 0x67B PUSH1 0x20 DUP5 ADD PUSH2 0x635 JUMP JUMPDEST SWAP1 POP SWAP3 POP SWAP3 SWAP1 POP JUMP JUMPDEST PUSH1 0x0 DUP2 MLOAD DUP1 DUP5 MSTORE PUSH1 0x20 DUP1 DUP6 ADD SWAP5 POP DUP1 DUP5 ADD PUSH1 0x0 JUMPDEST DUP4 DUP2 LT ISZERO PUSH2 0x6B4 JUMPI DUP2 MLOAD DUP8 MSTORE SWAP6 DUP3 ADD SWAP6 SWAP1 DUP3 ADD SWAP1 PUSH1 0x1 ADD PUSH2 0x698 JUMP JUMPDEST POP SWAP5 SWAP6 SWAP5 POP POP POP POP POP JUMP JUMPDEST PUSH1 0x20 DUP2 MSTORE PUSH1 0x0 PUSH2 0x6D2 PUSH1 0x20 DUP4 ADD DUP5 PUSH2 0x684 JUMP JUMPDEST SWAP4 SWAP3 POP POP POP JUMP JUMPDEST PUSH1 0x0 PUSH1 0x60 DUP1 DUP4 MSTORE PUSH2 0x6EC DUP2 DUP5 ADD DUP8 PUSH2 0x684 JUMP JUMPDEST DUP4 DUP2 SUB PUSH1 0x20 DUP6 DUP2 ADD SWAP2 SWAP1 SWAP2 MSTORE DUP7 MLOAD DUP1 DUP4 MSTORE DUP8 DUP3 ADD SWAP3 DUP3 ADD SWAP1 PUSH1 0x0 JUMPDEST DUP2 DUP2 LT ISZERO PUSH2 0x77A JUMPI DUP5 MLOAD DUP1 MLOAD PUSH1 0x1 PUSH1 0x1 PUSH1 0x60 SHL SUB AND DUP5 MSTORE DUP5 DUP2 ADD MLOAD PUSH11 0xFFFFFFFFFFFFFFFFFFFFFF AND DUP6 DUP6 ADD MSTORE PUSH1 0x40 DUP1 DUP3 ADD MLOAD PUSH4 0xFFFFFFFF SWAP1 DUP2 AND SWAP2 DUP7 ADD SWAP2 SWAP1 SWAP2 MSTORE DUP8 DUP3 ADD MLOAD AND DUP8 DUP6 ADD MSTORE PUSH1 0x80 DUP1 DUP3 ADD MLOAD PUSH1 0xFF AND SWAP1 DUP6 ADD MSTORE PUSH1 0xA0 SWAP1 DUP2 ADD MLOAD SWAP1 DUP5 ADD MSTORE SWAP4 DUP4 ADD SWAP4 PUSH1 0xC0 SWAP1 SWAP3 ADD SWAP2 PUSH1 0x1 ADD PUSH2 0x707 JUMP JUMPDEST POP POP DUP6 DUP2 SUB PUSH1 0x40 DUP8 ADD MSTORE PUSH2 0x78E DUP2 DUP9 PUSH2 0x684 JUMP JUMPDEST SWAP10 SWAP9 POP POP POP POP POP POP POP POP POP JUMP JUMPDEST PUSH1 0x0 PUSH1 0x20 DUP3 DUP5 SUB SLT ISZERO PUSH2 0x7AD JUMPI PUSH1 0x0 DUP1 REVERT JUMPDEST POP MLOAD SWAP2 SWAP1 POP JUMP JUMPDEST PUSH4 0x4E487B71 PUSH1 0xE0 SHL PUSH1 0x0 MSTORE PUSH1 0x41 PUSH1 0x4 MSTORE PUSH1 0x24 PUSH1 0x0 REVERT JUMPDEST PUSH4 0x4E487B71 PUSH1 0xE0 SHL PUSH1 0x0 MSTORE PUSH1 0x32 PUSH1 0x4 MSTORE PUSH1 0x24 PUSH1 0x0 REVERT JUMPDEST PUSH1 0x0 PUSH1 0x1 DUP3 ADD PUSH2 0x800 JUMPI PUSH4 0x4E487B71 PUSH1 0xE0 SHL PUSH1 0x0 MSTORE PUSH1 0x11 PUSH1 0x4 MSTORE PUSH1 0x24 PUSH1 0x0 REVERT JUMPDEST POP PUSH1 0x1 ADD SWAP1 JUMP JUMPDEST DUP1 MLOAD PUSH4 0xFFFFFFFF DUP2 AND DUP2 EQ PUSH2 0x64C JUMPI PUSH1 0x0 DUP1 REVERT JUMPDEST PUSH1 0x0 DUP1 PUSH1 0x0 DUP1 PUSH1 0x0 DUP1 PUSH1 0xC0 DUP8 DUP10 SUB SLT ISZERO PUSH2 0x834 JUMPI PUSH1 0x0 DUP1 REVERT JUMPDEST DUP7 MLOAD PUSH1 0x1 PUSH1 0x1 PUSH1 0x60 SHL SUB DUP2 AND DUP2 EQ PUSH2 0x84B JUMPI PUSH1 0x0 DUP1 REVERT JUMPDEST PUSH1 0x20 DUP9 ADD MLOAD SWAP1 SWAP7 POP PUSH11 0xFFFFFFFFFFFFFFFFFFFFFF DUP2 AND DUP2 EQ PUSH2 0x86C JUMPI PUSH1 0x0 DUP1 REVERT JUMPDEST SWAP5 POP PUSH2 0x87A PUSH1 0x40 DUP9 ADD PUSH2 0x807 JUMP JUMPDEST SWAP4 POP PUSH2 0x888 PUSH1 0x60 DUP9 ADD PUSH2 0x807 JUMP JUMPDEST SWAP3 POP PUSH1 0x80 DUP8 ADD MLOAD PUSH1 0xFF DUP2 AND DUP2 EQ PUSH2 0x89E JUMPI PUSH1 0x0 DUP1 REVERT JUMPDEST DUP1 SWAP3 POP POP PUSH1 0xA0 DUP8 ADD MLOAD SWAP1 POP SWAP3 SWAP6 POP SWAP3 SWAP6 POP SWAP3 SWAP6 JUMP INVALID LOG2 PUSH5 0x6970667358 0x22 SLT KECCAK256 0xC7 0xA8 0xD2 0x4D PUSH18 0xEDCDAB670B1664B0A3A787F30010ADF05FB9 0xB0 REVERT 0x5E PUSH17 0x4BF8BF67C864736F6C634300080D003300 ",
  "sha1": "4ccb8e95f6a59b1d13bcafa2b47cd76d7ab2fc38",
  "source": "// SPDX-License-Identifier: MIT\n\npragma solidity ^0.8.10;\n\nimport {ISUPERDEFIDistribution} from \"../interfaces/ISUPERDEFIDistribution.sol\";\nimport {ISUPERDEFIDistributionHelper} from \"../interfaces/ISUPERDEFIDistributionHelper.sol\";\n\n/// @dev Stateless helper contract for external clients to reduce web3 calls to gather SUPERDEFIDistribution information related to individual accounts.\ncontract SUPERDEFIDistributionHelper is ISUPERDEFIDistributionHelper {\n    function getAllTokensForAccount(address SUPERDEFIDistribution_, address account_) public view returns (uint256[] memory tokenIds_) {\n        uint256 count = ISUPERDEFIDistribution(SUPERDEFIDistribution_).balanceOf(account_);\n        tokenIds_ = new uint256[](count);\n\n        for (uint256 i; i < count; ++i) {\n            tokenIds_[i] = ISUPERDEFIDistribution(SUPERDEFIDistribution_).tokenOfOwnerByIndex(account_, i);\n        }\n    }\n\n    function getAllLockedPositionsForAccount(address SUPERDEFIDistribution_, address account_)\n        public\n        view\n        returns (\n            uint256[] memory tokenIds_,\n            ISUPERDEFIDistribution.Position[] memory positions_,\n            uint256[] memory withdrawables_\n        )\n    {\n        uint256[] memory tokenIds = getAllTokensForAccount(SUPERDEFIDistribution_, account_);\n\n        uint256 allTokenCount = tokenIds.length;\n\n        ISUPERDEFIDistribution.Position[] memory positions = new ISUPERDEFIDistribution.Position[](allTokenCount);\n\n        uint256 validPositionCount;\n\n        for (uint256 i; i < allTokenCount; ++i) {\n            (\n                uint96 units,\n                uint88 depositedSUPERDEFI,\n                uint32 expiry,\n                uint32 created,\n                uint8 premiumMultiplier,\n                int256 pointsCorrection\n            ) = ISUPERDEFIDistribution(SUPERDEFIDistribution_).positionOf(tokenIds[i]);\n\n            if (expiry == uint32(0)) continue;\n\n            tokenIds[validPositionCount] = tokenIds[i];\n            positions[validPositionCount++] = ISUPERDEFIDistribution.Position(\n                units,\n                depositedSUPERDEFI,\n                expiry,\n                created,\n                premiumMultiplier,\n                pointsCorrection\n            );\n        }\n\n        tokenIds_ = new uint256[](validPositionCount);\n        positions_ = new ISUPERDEFIDistribution.Position[](validPositionCount);\n        withdrawables_ = new uint256[](validPositionCount);\n\n        for (uint256 i; i < validPositionCount; ++i) {\n            positions_[i] = positions[i];\n            withdrawables_[i] = ISUPERDEFIDistribution(SUPERDEFIDistribution_).withdrawableOf(tokenIds_[i] = tokenIds[i]);\n        }\n    }\n}\n",
  "sourcePath": "contracts/SUPERDEFIDistributionHelper.sol",
  "type": "contract"
}